{
  "contractName": "Access",
  "abi": [
    {
      "inputs": [],
      "stateMutability": "nonpayable",
      "type": "constructor"
    },
    {
      "anonymous": false,
      "inputs": [
        {
          "indexed": true,
          "internalType": "bytes32",
          "name": "role",
          "type": "bytes32"
        },
        {
          "indexed": true,
          "internalType": "bytes32",
          "name": "previousAdminRole",
          "type": "bytes32"
        },
        {
          "indexed": true,
          "internalType": "bytes32",
          "name": "newAdminRole",
          "type": "bytes32"
        }
      ],
      "name": "RoleAdminChanged",
      "type": "event"
    },
    {
      "anonymous": false,
      "inputs": [
        {
          "indexed": true,
          "internalType": "bytes32",
          "name": "role",
          "type": "bytes32"
        },
        {
          "indexed": true,
          "internalType": "address",
          "name": "account",
          "type": "address"
        },
        {
          "indexed": true,
          "internalType": "address",
          "name": "sender",
          "type": "address"
        }
      ],
      "name": "RoleGranted",
      "type": "event"
    },
    {
      "anonymous": false,
      "inputs": [
        {
          "indexed": true,
          "internalType": "bytes32",
          "name": "role",
          "type": "bytes32"
        },
        {
          "indexed": true,
          "internalType": "address",
          "name": "account",
          "type": "address"
        },
        {
          "indexed": true,
          "internalType": "address",
          "name": "sender",
          "type": "address"
        }
      ],
      "name": "RoleRevoked",
      "type": "event"
    },
    {
      "inputs": [],
      "name": "DEFAULT_ADMIN_ROLE",
      "outputs": [
        {
          "internalType": "bytes32",
          "name": "",
          "type": "bytes32"
        }
      ],
      "stateMutability": "view",
      "type": "function"
    },
    {
      "inputs": [],
      "name": "OPERATOR",
      "outputs": [
        {
          "internalType": "bytes32",
          "name": "",
          "type": "bytes32"
        }
      ],
      "stateMutability": "view",
      "type": "function"
    },
    {
      "inputs": [],
      "name": "WHITELIST",
      "outputs": [
        {
          "internalType": "bytes32",
          "name": "",
          "type": "bytes32"
        }
      ],
      "stateMutability": "view",
      "type": "function"
    },
    {
      "inputs": [
        {
          "internalType": "bytes32",
          "name": "role",
          "type": "bytes32"
        }
      ],
      "name": "getRoleAdmin",
      "outputs": [
        {
          "internalType": "bytes32",
          "name": "",
          "type": "bytes32"
        }
      ],
      "stateMutability": "view",
      "type": "function"
    },
    {
      "inputs": [
        {
          "internalType": "bytes32",
          "name": "role",
          "type": "bytes32"
        },
        {
          "internalType": "address",
          "name": "account",
          "type": "address"
        }
      ],
      "name": "grantRole",
      "outputs": [],
      "stateMutability": "nonpayable",
      "type": "function"
    },
    {
      "inputs": [
        {
          "internalType": "bytes32",
          "name": "role",
          "type": "bytes32"
        },
        {
          "internalType": "address",
          "name": "account",
          "type": "address"
        }
      ],
      "name": "hasRole",
      "outputs": [
        {
          "internalType": "bool",
          "name": "",
          "type": "bool"
        }
      ],
      "stateMutability": "view",
      "type": "function"
    },
    {
      "inputs": [
        {
          "internalType": "bytes32",
          "name": "role",
          "type": "bytes32"
        },
        {
          "internalType": "address",
          "name": "account",
          "type": "address"
        }
      ],
      "name": "renounceRole",
      "outputs": [],
      "stateMutability": "nonpayable",
      "type": "function"
    },
    {
      "inputs": [
        {
          "internalType": "bytes32",
          "name": "role",
          "type": "bytes32"
        },
        {
          "internalType": "address",
          "name": "account",
          "type": "address"
        }
      ],
      "name": "revokeRole",
      "outputs": [],
      "stateMutability": "nonpayable",
      "type": "function"
    },
    {
      "inputs": [
        {
          "internalType": "bytes4",
          "name": "interfaceId",
          "type": "bytes4"
        }
      ],
      "name": "supportsInterface",
      "outputs": [
        {
          "internalType": "bool",
          "name": "",
          "type": "bool"
        }
      ],
      "stateMutability": "view",
      "type": "function"
    },
    {
      "inputs": [
        {
          "internalType": "address",
          "name": "forAddress",
          "type": "address"
        }
      ],
      "name": "hasAccess",
      "outputs": [
        {
          "internalType": "bool",
          "name": "",
          "type": "bool"
        }
      ],
      "stateMutability": "view",
      "type": "function"
    }
  ],
  "bytecode": "0x60806040523480156200001157600080fd5b506200002860003364010000000062000098810204565b6200005d7f0af0c3ebe77999ca20698e1ff25f812bf82409a59d21ca15a41f39e0ce9f250033640100000000620000b1810204565b620000927f523a704056dcd17bcf83bed8b68c59416dac1119be77755efe3bde0a64e46e0c33640100000000620000b1810204565b6200070b565b620000ad828264010000000062000106810204565b5050565b620000c582640100000000620001a2810204565b620000ec81620000dd640100000000620001b7810204565b640100000000620001bb810204565b62000101838364010000000062000106810204565b505050565b6200011b828264010000000062000272810204565b620000ad57600082815260208181526040808320600160a060020a03851684529091529020805460ff191660011790556200015e640100000000620001b7810204565b600160a060020a031681600160a060020a0316837f2f8788117e7eff1d82e926ec794901d17c78024a50270940304540a733656f0d60405160405180910390a45050565b60009081526020819052604090206001015490565b3390565b620001d0828264010000000062000272810204565b620000ad57620001f9600160a060020a03821660146401000000006200038f6200029b82021704565b620002148360206401000000006200038f6200029b82021704565b6040516020016200022792919062000563565b60408051601f19818403018152908290527f08c379a00000000000000000000000000000000000000000000000000000000082526200026991600401620005e8565b60405180910390fd5b600091825260208281526040808420600160a060020a0393909316845291905290205460ff1690565b60606000620002ac8360026200066d565b620002b990600262000652565b67ffffffffffffffff811115620002f9577f4e487b7100000000000000000000000000000000000000000000000000000000600052604160045260246000fd5b6040519080825280601f01601f19166020018201604052801562000324576020820181803683370190505b5090507f30000000000000000000000000000000000000000000000000000000000000008160008151811062000383577f4e487b7100000000000000000000000000000000000000000000000000000000600052603260045260246000fd5b6020010190600160f860020a031916908160001a9053507f780000000000000000000000000000000000000000000000000000000000000081600181518110620003f6577f4e487b7100000000000000000000000000000000000000000000000000000000600052603260045260246000fd5b6020010190600160f860020a031916908160001a90535060006200041c8460026200066d565b6200042990600162000652565b90505b600181111562000520577f303132333435363738396162636465660000000000000000000000000000000085600f166010811062000493577f4e487b7100000000000000000000000000000000000000000000000000000000600052603260045260246000fd5b1a7f010000000000000000000000000000000000000000000000000000000000000002828281518110620004f0577f4e487b7100000000000000000000000000000000000000000000000000000000600052603260045260246000fd5b6020010190600160f860020a031916908160001a9053506010909404936200051881620006c2565b90506200042c565b5083156200055c576040517f08c379a000000000000000000000000000000000000000000000000000000000815260040162000269906200061d565b9392505050565b60007f416363657373436f6e74726f6c3a206163636f756e7420000000000000000000825283516200059d8160178501602088016200068f565b7f206973206d697373696e6720726f6c65200000000000000000000000000000006017918401918201528351620005dc8160288401602088016200068f565b01602801949350505050565b6000602082528251806020840152620006098160408501602087016200068f565b601f01601f19169190910160400192915050565b6020808252818101527f537472696e67733a20686578206c656e67746820696e73756666696369656e74604082015260600190565b60008219821115620006685762000668620006dc565b500190565b60008160001904831182151516156200068a576200068a620006dc565b500290565b60005b83811015620006ac57818101518382015260200162000692565b83811115620006bc576000848401525b50505050565b600081620006d457620006d4620006dc565b506000190190565b7f4e487b7100000000000000000000000000000000000000000000000000000000600052601160045260246000fd5b610bb7806200071b6000396000f3fe608060405234801561001057600080fd5b50600436106100db576000357c01000000000000000000000000000000000000000000000000000000009004806391d1485411610093578063983d273711610078578063983d27371461017f578063a217fddf14610187578063d547741f1461018f576100db565b806391d148541461015957806395a078e81461016c576100db565b8063248a9ca3116100c4578063248a9ca31461011e5780632f2ff15d1461013157806336568abe14610146576100db565b806301ffc9a7146100e05780631bb7cc9914610109575b600080fd5b6100f36100ee36600461093a565b6101a2565b60405161010091906109fb565b60405180910390f35b610111610200565b6040516101009190610a06565b61011161012c3660046108f7565b610224565b61014461013f36600461090f565b610239565b005b61014461015436600461090f565b610262565b6100f361016736600461090f565b6102e5565b6100f361017a3660046108dd565b61031b565b610111610347565b61011161036b565b61014461019d36600461090f565b610370565b60007fffffffff0000000000000000000000000000000000000000000000000000000082167f7965db0b0000000000000000000000000000000000000000000000000000000014806101f857506101f88261068a565b90505b919050565b7f0af0c3ebe77999ca20698e1ff25f812bf82409a59d21ca15a41f39e0ce9f250081565b60009081526020819052604090206001015490565b61024282610224565b6102538161024e6106d4565b6106d8565b61025d8383610763565b505050565b61026a6106d4565b73ffffffffffffffffffffffffffffffffffffffff168173ffffffffffffffffffffffffffffffffffffffff16146102d7576040517f08c379a00000000000000000000000000000000000000000000000000000000081526004016102ce90610a77565b60405180910390fd5b6102e1828261080f565b5050565b60009182526020828152604080842073ffffffffffffffffffffffffffffffffffffffff93909316845291905290205460ff1690565b60006101f87f0af0c3ebe77999ca20698e1ff25f812bf82409a59d21ca15a41f39e0ce9f2500836102e5565b7f523a704056dcd17bcf83bed8b68c59416dac1119be77755efe3bde0a64e46e0c81565b600081565b61037982610224565b6103858161024e6106d4565b61025d838361080f565b6060600061039e836002610aec565b6103a9906002610ad4565b67ffffffffffffffff8111156103e8577f4e487b7100000000000000000000000000000000000000000000000000000000600052604160045260246000fd5b6040519080825280601f01601f191660200182016040528015610412576020820181803683370190505b5090507f300000000000000000000000000000000000000000000000000000000000000081600081518110610470577f4e487b7100000000000000000000000000000000000000000000000000000000600052603260045260246000fd5b60200101907effffffffffffffffffffffffffffffffffffffffffffffffffffffffffffff1916908160001a9053507f7800000000000000000000000000000000000000000000000000000000000000816001815181106104fa577f4e487b7100000000000000000000000000000000000000000000000000000000600052603260045260246000fd5b60200101907effffffffffffffffffffffffffffffffffffffffffffffffffffffffffffff1916908160001a9053506000610536846002610aec565b610541906001610ad4565b90505b600181111561064a577f303132333435363738396162636465660000000000000000000000000000000085600f16601081106105a9577f4e487b7100000000000000000000000000000000000000000000000000000000600052603260045260246000fd5b1a7f010000000000000000000000000000000000000000000000000000000000000002828281518110610605577f4e487b7100000000000000000000000000000000000000000000000000000000600052603260045260246000fd5b60200101907effffffffffffffffffffffffffffffffffffffffffffffffffffffffffffff1916908160001a90535060109094049361064381610b3b565b9050610544565b508315610683576040517f08c379a00000000000000000000000000000000000000000000000000000000081526004016102ce90610a42565b9392505050565b7fffffffff0000000000000000000000000000000000000000000000000000000081167f01ffc9a70000000000000000000000000000000000000000000000000000000014919050565b3390565b6106e282826102e5565b6102e1576107078173ffffffffffffffffffffffffffffffffffffffff16601461038f565b61071283602061038f565b60405160200161072392919061097a565b60408051601f19818403018152908290527f08c379a00000000000000000000000000000000000000000000000000000000082526102ce91600401610a0f565b61076d82826102e5565b6102e15760008281526020818152604080832073ffffffffffffffffffffffffffffffffffffffff851684529091529020805460ff191660011790556107b16106d4565b73ffffffffffffffffffffffffffffffffffffffff168173ffffffffffffffffffffffffffffffffffffffff16837f2f8788117e7eff1d82e926ec794901d17c78024a50270940304540a733656f0d60405160405180910390a45050565b61081982826102e5565b156102e15760008281526020818152604080832073ffffffffffffffffffffffffffffffffffffffff851684529091529020805460ff1916905561085b6106d4565b73ffffffffffffffffffffffffffffffffffffffff168173ffffffffffffffffffffffffffffffffffffffff16837ff6391f5c32d9c69d2a47ea670b442974b53935d1edc7fd64eb21e047a839171b60405160405180910390a45050565b803573ffffffffffffffffffffffffffffffffffffffff811681146101fb57600080fd5b6000602082840312156108ee578081fd5b610683826108b9565b600060208284031215610908578081fd5b5035919050565b60008060408385031215610921578081fd5b82359150610931602084016108b9565b90509250929050565b60006020828403121561094b578081fd5b81357fffffffff0000000000000000000000000000000000000000000000000000000081168114610683578182fd5b60007f416363657373436f6e74726f6c3a206163636f756e7420000000000000000000825283516109b2816017850160208801610b0b565b7f206973206d697373696e6720726f6c652000000000000000000000000000000060179184019182015283516109ef816028840160208801610b0b565b01602801949350505050565b901515815260200190565b90815260200190565b6000602082528251806020840152610a2e816040850160208701610b0b565b601f01601f19169190910160400192915050565b6020808252818101527f537472696e67733a20686578206c656e67746820696e73756666696369656e74604082015260600190565b6020808252602f908201527f416363657373436f6e74726f6c3a2063616e206f6e6c792072656e6f756e636560408201527f20726f6c657320666f722073656c660000000000000000000000000000000000606082015260800190565b60008219821115610ae757610ae7610b52565b500190565b6000816000190483118215151615610b0657610b06610b52565b500290565b60005b83811015610b26578181015183820152602001610b0e565b83811115610b35576000848401525b50505050565b600081610b4a57610b4a610b52565b506000190190565b7f4e487b7100000000000000000000000000000000000000000000000000000000600052601160045260246000fdfea264697066735822122025e83c804168f78588eb2b95ba4a3135def30c6b77a22fb6d2ab64263aeb394664736f6c63430008000033",
  "immutableReferences": {},
  "source": "// SPDX-License-Identifier: MIT\n\npragma solidity ^0.8.0;\n\nimport \"@openzeppelin/contracts/access/AccessControl.sol\";\n\ncontract Access is AccessControl {\n  bytes32 public constant WHITELIST = keccak256(\"WHITELIST\");\n  bytes32 public constant OPERATOR = keccak256(\"OPERATOR\");\n\n  constructor() AccessControl() {\n    _setupRole(DEFAULT_ADMIN_ROLE, msg.sender);\n\n    grantRole(WHITELIST, msg.sender);\n    grantRole(OPERATOR, msg.sender);\n  }\n\n  function hasAccess(address forAddress) public view returns (bool) {\n    return hasRole(WHITELIST, forAddress);\n  }\n}\n",
  "sourcePath": "/Users/charlespacker/alloyx-frontend/alloyx/contracts/Access.sol",
  "compiler": {
    "name": "solc",
    "version": "0.8.0+commit.c7dfd78e.Emscripten.clang"
  },
  "schemaVersion": "3.4.3",
  "updatedAt": "2021-09-07T13:54:42.920Z",
  "devdoc": {
    "kind": "dev",
    "methods": {
      "getRoleAdmin(bytes32)": {
        "details": "Returns the admin role that controls `role`. See {grantRole} and {revokeRole}. To change a role's admin, use {_setRoleAdmin}."
      },
      "grantRole(bytes32,address)": {
        "details": "Grants `role` to `account`. If `account` had not been already granted `role`, emits a {RoleGranted} event. Requirements: - the caller must have ``role``'s admin role."
      },
      "hasRole(bytes32,address)": {
        "details": "Returns `true` if `account` has been granted `role`."
      },
      "renounceRole(bytes32,address)": {
        "details": "Revokes `role` from the calling account. Roles are often managed via {grantRole} and {revokeRole}: this function's purpose is to provide a mechanism for accounts to lose their privileges if they are compromised (such as when a trusted device is misplaced). If the calling account had been granted `role`, emits a {RoleRevoked} event. Requirements: - the caller must be `account`."
      },
      "revokeRole(bytes32,address)": {
        "details": "Revokes `role` from `account`. If `account` had been granted `role`, emits a {RoleRevoked} event. Requirements: - the caller must have ``role``'s admin role."
      },
      "supportsInterface(bytes4)": {
        "details": "See {IERC165-supportsInterface}."
      }
    },
    "version": 1
  },
  "userdoc": {
    "kind": "user",
    "methods": {},
    "version": 1
  }
}