{
  "contractName": "Access",
  "abi": [
    {
      "inputs": [],
      "stateMutability": "nonpayable",
      "type": "constructor"
    },
    {
      "anonymous": false,
      "inputs": [
        {
          "indexed": true,
          "internalType": "bytes32",
          "name": "role",
          "type": "bytes32"
        },
        {
          "indexed": true,
          "internalType": "bytes32",
          "name": "previousAdminRole",
          "type": "bytes32"
        },
        {
          "indexed": true,
          "internalType": "bytes32",
          "name": "newAdminRole",
          "type": "bytes32"
        }
      ],
      "name": "RoleAdminChanged",
      "type": "event"
    },
    {
      "anonymous": false,
      "inputs": [
        {
          "indexed": true,
          "internalType": "bytes32",
          "name": "role",
          "type": "bytes32"
        },
        {
          "indexed": true,
          "internalType": "address",
          "name": "account",
          "type": "address"
        },
        {
          "indexed": true,
          "internalType": "address",
          "name": "sender",
          "type": "address"
        }
      ],
      "name": "RoleGranted",
      "type": "event"
    },
    {
      "anonymous": false,
      "inputs": [
        {
          "indexed": true,
          "internalType": "bytes32",
          "name": "role",
          "type": "bytes32"
        },
        {
          "indexed": true,
          "internalType": "address",
          "name": "account",
          "type": "address"
        },
        {
          "indexed": true,
          "internalType": "address",
          "name": "sender",
          "type": "address"
        }
      ],
      "name": "RoleRevoked",
      "type": "event"
    },
    {
      "inputs": [],
      "name": "DEFAULT_ADMIN_ROLE",
      "outputs": [
        {
          "internalType": "bytes32",
          "name": "",
          "type": "bytes32"
        }
      ],
      "stateMutability": "view",
      "type": "function"
    },
    {
      "inputs": [],
      "name": "OPERATOR",
      "outputs": [
        {
          "internalType": "bytes32",
          "name": "",
          "type": "bytes32"
        }
      ],
      "stateMutability": "view",
      "type": "function"
    },
    {
      "inputs": [],
      "name": "WHITELIST",
      "outputs": [
        {
          "internalType": "bytes32",
          "name": "",
          "type": "bytes32"
        }
      ],
      "stateMutability": "view",
      "type": "function"
    },
    {
      "inputs": [
        {
          "internalType": "bytes32",
          "name": "role",
          "type": "bytes32"
        }
      ],
      "name": "getRoleAdmin",
      "outputs": [
        {
          "internalType": "bytes32",
          "name": "",
          "type": "bytes32"
        }
      ],
      "stateMutability": "view",
      "type": "function"
    },
    {
      "inputs": [
        {
          "internalType": "bytes32",
          "name": "role",
          "type": "bytes32"
        },
        {
          "internalType": "address",
          "name": "account",
          "type": "address"
        }
      ],
      "name": "grantRole",
      "outputs": [],
      "stateMutability": "nonpayable",
      "type": "function"
    },
    {
      "inputs": [
        {
          "internalType": "bytes32",
          "name": "role",
          "type": "bytes32"
        },
        {
          "internalType": "address",
          "name": "account",
          "type": "address"
        }
      ],
      "name": "hasRole",
      "outputs": [
        {
          "internalType": "bool",
          "name": "",
          "type": "bool"
        }
      ],
      "stateMutability": "view",
      "type": "function"
    },
    {
      "inputs": [
        {
          "internalType": "bytes32",
          "name": "role",
          "type": "bytes32"
        },
        {
          "internalType": "address",
          "name": "account",
          "type": "address"
        }
      ],
      "name": "renounceRole",
      "outputs": [],
      "stateMutability": "nonpayable",
      "type": "function"
    },
    {
      "inputs": [
        {
          "internalType": "bytes32",
          "name": "role",
          "type": "bytes32"
        },
        {
          "internalType": "address",
          "name": "account",
          "type": "address"
        }
      ],
      "name": "revokeRole",
      "outputs": [],
      "stateMutability": "nonpayable",
      "type": "function"
    },
    {
      "inputs": [
        {
          "internalType": "bytes4",
          "name": "interfaceId",
          "type": "bytes4"
        }
      ],
      "name": "supportsInterface",
      "outputs": [
        {
          "internalType": "bool",
          "name": "",
          "type": "bool"
        }
      ],
      "stateMutability": "view",
      "type": "function"
    },
    {
      "inputs": [
        {
          "internalType": "address",
          "name": "forAddress",
          "type": "address"
        }
      ],
      "name": "hasAccess",
      "outputs": [
        {
          "internalType": "bool",
          "name": "",
          "type": "bool"
        }
      ],
      "stateMutability": "view",
      "type": "function"
    }
  ],
  "bytecode": "0x60806040523480156200001157600080fd5b5062000031600060010233620000ad640100000000026401000000009004565b6200006c7f0af0c3ebe77999ca20698e1ff25f812bf82409a59d21ca15a41f39e0ce9f250033620000cc640100000000026401000000009004565b620000a77f523a704056dcd17bcf83bed8b68c59416dac1119be77755efe3bde0a64e46e0c33620000cc640100000000026401000000009004565b62000a3d565b620000c8828262000139640100000000026401000000009004565b5050565b620000e6826200023c640100000000026401000000009004565b6200011981620001046200025b640100000000026401000000009004565b62000263640100000000026401000000009004565b62000134838362000139640100000000026401000000009004565b505050565b62000154828262000343640100000000026401000000009004565b6200023857600160008084815260200190815260200160002060000160008373ffffffffffffffffffffffffffffffffffffffff1673ffffffffffffffffffffffffffffffffffffffff16815260200190815260200160002060006101000a81548160ff021916908315150217905550620001dd6200025b640100000000026401000000009004565b73ffffffffffffffffffffffffffffffffffffffff168173ffffffffffffffffffffffffffffffffffffffff16837f2f8788117e7eff1d82e926ec794901d17c78024a50270940304540a733656f0d60405160405180910390a45b5050565b6000806000838152602001908152602001600020600101549050919050565b600033905090565b6200027e828262000343640100000000026401000000009004565b6200033f57620002ba8173ffffffffffffffffffffffffffffffffffffffff166014620003ad6401000000000262000489176401000000009004565b620002df83600190046020620003ad6401000000000262000489176401000000009004565b604051602001620002f292919062000821565b6040516020818303038152906040526040517f08c379a000000000000000000000000000000000000000000000000000000000815260040162000336919062000863565b60405180910390fd5b5050565b600080600084815260200190815260200160002060000160008373ffffffffffffffffffffffffffffffffffffffff1673ffffffffffffffffffffffffffffffffffffffff16815260200190815260200160002060009054906101000a900460ff16905092915050565b606060006002836002620003c291906200092d565b620003ce9190620008d0565b67ffffffffffffffff8111156200040e577f4e487b7100000000000000000000000000000000000000000000000000000000600052604160045260246000fd5b6040519080825280601f01601f191660200182016040528015620004415781602001600182028036833780820191505090505b5090507f300000000000000000000000000000000000000000000000000000000000000081600081518110620004a0577f4e487b7100000000000000000000000000000000000000000000000000000000600052603260045260246000fd5b60200101907effffffffffffffffffffffffffffffffffffffffffffffffffffffffffffff1916908160001a9053507f7800000000000000000000000000000000000000000000000000000000000000816001815181106200052b577f4e487b7100000000000000000000000000000000000000000000000000000000600052603260045260246000fd5b60200101907effffffffffffffffffffffffffffffffffffffffffffffffffffffffffffff1916908160001a905350600060018460026200056d91906200092d565b620005799190620008d0565b90505b600181111562000692577f3031323334353637383961626364656600000000000000000000000000000000600f861660108110620005e3577f4e487b7100000000000000000000000000000000000000000000000000000000600052603260045260246000fd5b1a7f01000000000000000000000000000000000000000000000000000000000000000282828151811062000640577f4e487b7100000000000000000000000000000000000000000000000000000000600052603260045260246000fd5b60200101907effffffffffffffffffffffffffffffffffffffffffffffffffffffffffffff1916908160001a905350600485908060020a82049150509450806200068a90620009ce565b90506200057c565b5060008414620006d9576040517f08c379a0000000000000000000000000000000000000000000000000000000008152600401620006d09062000887565b60405180910390fd5b8091505092915050565b6000620006f082620008a9565b620006fc8185620008b4565b93506200070e81856020860162000998565b620007198162000a2c565b840191505092915050565b60006200073182620008a9565b6200073d8185620008c5565b93506200074f81856020860162000998565b80840191505092915050565b60006200076a602083620008b4565b91507f537472696e67733a20686578206c656e67746820696e73756666696369656e746000830152602082019050919050565b6000620007ac601783620008c5565b91507f416363657373436f6e74726f6c3a206163636f756e74200000000000000000006000830152601782019050919050565b6000620007ee601183620008c5565b91507f206973206d697373696e6720726f6c65200000000000000000000000000000006000830152601182019050919050565b60006200082e826200079d565b91506200083c828562000724565b91506200084982620007df565b915062000857828462000724565b91508190509392505050565b600060208201905081810360008301526200087f8184620006e3565b905092915050565b60006020820190508181036000830152620008a2816200075b565b9050919050565b600081519050919050565b600082825260208201905092915050565b600081905092915050565b6000620008dd826200098e565b9150620008ea836200098e565b9250827fffffffffffffffffffffffffffffffffffffffffffffffffffffffffffffffff03821115620009225762000921620009fd565b5b828201905092915050565b60006200093a826200098e565b915062000947836200098e565b9250817fffffffffffffffffffffffffffffffffffffffffffffffffffffffffffffffff0483118215151615620009835762000982620009fd565b5b828202905092915050565b6000819050919050565b60005b83811015620009b85780820151818401526020810190506200099b565b83811115620009c8576000848401525b50505050565b6000620009db826200098e565b91506000821415620009f257620009f1620009fd565b5b600182039050919050565b7f4e487b7100000000000000000000000000000000000000000000000000000000600052601160045260246000fd5b6000601f19601f8301169050919050565b61105e8062000a4d6000396000f3fe608060405234801561001057600080fd5b50600436106100bb576000357c01000000000000000000000000000000000000000000000000000000009004806391d148541161008357806391d148541461017657806395a078e8146101a6578063983d2737146101d6578063a217fddf146101f4578063d547741f14610212576100bb565b806301ffc9a7146100c05780631bb7cc99146100f0578063248a9ca31461010e5780632f2ff15d1461013e57806336568abe1461015a575b600080fd5b6100da60048036038101906100d59190610b48565b61022e565b6040516100e79190610d59565b60405180910390f35b6100f86102a8565b6040516101059190610d74565b60405180910390f35b61012860048036038101906101239190610ae3565b6102cc565b6040516101359190610d74565b60405180910390f35b61015860048036038101906101539190610b0c565b6102eb565b005b610174600480360381019061016f9190610b0c565b610314565b005b610190600480360381019061018b9190610b0c565b610397565b60405161019d9190610d59565b60405180910390f35b6101c060048036038101906101bb9190610aba565b610401565b6040516101cd9190610d59565b60405180910390f35b6101de610434565b6040516101eb9190610d74565b60405180910390f35b6101fc610458565b6040516102099190610d74565b60405180910390f35b61022c60048036038101906102279190610b0c565b610460565b005b60007f7965db0b000000000000000000000000000000000000000000000000000000007bffffffffffffffffffffffffffffffffffffffffffffffffffffffff1916827bffffffffffffffffffffffffffffffffffffffffffffffffffffffff191614806102a157506102a0826107aa565b5b9050919050565b7f0af0c3ebe77999ca20698e1ff25f812bf82409a59d21ca15a41f39e0ce9f250081565b6000806000838152602001908152602001600020600101549050919050565b6102f4826102cc565b61030581610300610814565b61081c565b61030f83836108ba565b505050565b61031c610814565b73ffffffffffffffffffffffffffffffffffffffff168173ffffffffffffffffffffffffffffffffffffffff1614610389576040517f08c379a000000000000000000000000000000000000000000000000000000000815260040161038090610dd1565b60405180910390fd5b610393828261099a565b5050565b600080600084815260200190815260200160002060000160008373ffffffffffffffffffffffffffffffffffffffff1673ffffffffffffffffffffffffffffffffffffffff16815260200190815260200160002060009054906101000a900460ff16905092915050565b600061042d7f0af0c3ebe77999ca20698e1ff25f812bf82409a59d21ca15a41f39e0ce9f250083610397565b9050919050565b7f523a704056dcd17bcf83bed8b68c59416dac1119be77755efe3bde0a64e46e0c81565b600060010281565b610469826102cc565b61047a81610475610814565b61081c565b610484838361099a565b505050565b60606000600283600261049c9190610e6e565b6104a69190610e18565b67ffffffffffffffff8111156104e5577f4e487b7100000000000000000000000000000000000000000000000000000000600052604160045260246000fd5b6040519080825280601f01601f1916602001820160405280156105175781602001600182028036833780820191505090505b5090507f300000000000000000000000000000000000000000000000000000000000000081600081518110610575577f4e487b7100000000000000000000000000000000000000000000000000000000600052603260045260246000fd5b60200101907effffffffffffffffffffffffffffffffffffffffffffffffffffffffffffff1916908160001a9053507f7800000000000000000000000000000000000000000000000000000000000000816001815181106105ff577f4e487b7100000000000000000000000000000000000000000000000000000000600052603260045260246000fd5b60200101907effffffffffffffffffffffffffffffffffffffffffffffffffffffffffffff1916908160001a9053506000600184600261063f9190610e6e565b6106499190610e18565b90505b600181111561075c577f3031323334353637383961626364656600000000000000000000000000000000600f8616601081106106b1577f4e487b7100000000000000000000000000000000000000000000000000000000600052603260045260246000fd5b1a7f01000000000000000000000000000000000000000000000000000000000000000282828151811061070d577f4e487b7100000000000000000000000000000000000000000000000000000000600052603260045260246000fd5b60200101907effffffffffffffffffffffffffffffffffffffffffffffffffffffffffffff1916908160001a905350600485908060020a820491505094508061075590610f79565b905061064c565b50600084146107a0576040517f08c379a000000000000000000000000000000000000000000000000000000000815260040161079790610db1565b60405180910390fd5b8091505092915050565b60007f01ffc9a7000000000000000000000000000000000000000000000000000000007bffffffffffffffffffffffffffffffffffffffffffffffffffffffff1916827bffffffffffffffffffffffffffffffffffffffffffffffffffffffff1916149050919050565b600033905090565b6108268282610397565b6108b65761084b8173ffffffffffffffffffffffffffffffffffffffff166014610489565b61085a83600190046020610489565b60405160200161086b929190610d1f565b6040516020818303038152906040526040517f08c379a00000000000000000000000000000000000000000000000000000000081526004016108ad9190610d8f565b60405180910390fd5b5050565b6108c48282610397565b61099657600160008084815260200190815260200160002060000160008373ffffffffffffffffffffffffffffffffffffffff1673ffffffffffffffffffffffffffffffffffffffff16815260200190815260200160002060006101000a81548160ff02191690831515021790555061093b610814565b73ffffffffffffffffffffffffffffffffffffffff168173ffffffffffffffffffffffffffffffffffffffff16837f2f8788117e7eff1d82e926ec794901d17c78024a50270940304540a733656f0d60405160405180910390a45b5050565b6109a48282610397565b15610a7757600080600084815260200190815260200160002060000160008373ffffffffffffffffffffffffffffffffffffffff1673ffffffffffffffffffffffffffffffffffffffff16815260200190815260200160002060006101000a81548160ff021916908315150217905550610a1c610814565b73ffffffffffffffffffffffffffffffffffffffff168173ffffffffffffffffffffffffffffffffffffffff16837ff6391f5c32d9c69d2a47ea670b442974b53935d1edc7fd64eb21e047a839171b60405160405180910390a45b5050565b600081359050610a8a81610fe3565b92915050565b600081359050610a9f81610ffa565b92915050565b600081359050610ab481611011565b92915050565b600060208284031215610acc57600080fd5b6000610ada84828501610a7b565b91505092915050565b600060208284031215610af557600080fd5b6000610b0384828501610a90565b91505092915050565b60008060408385031215610b1f57600080fd5b6000610b2d85828601610a90565b9250506020610b3e85828601610a7b565b9150509250929050565b600060208284031215610b5a57600080fd5b6000610b6884828501610aa5565b91505092915050565b610b7a81610eda565b82525050565b610b8981610ee6565b82525050565b6000610b9a82610df1565b610ba48185610dfc565b9350610bb4818560208601610f46565b610bbd81610fd2565b840191505092915050565b6000610bd382610df1565b610bdd8185610e0d565b9350610bed818560208601610f46565b80840191505092915050565b6000610c06602083610dfc565b91507f537472696e67733a20686578206c656e67746820696e73756666696369656e746000830152602082019050919050565b6000610c46601783610e0d565b91507f416363657373436f6e74726f6c3a206163636f756e74200000000000000000006000830152601782019050919050565b6000610c86601183610e0d565b91507f206973206d697373696e6720726f6c65200000000000000000000000000000006000830152601182019050919050565b6000610cc6602f83610dfc565b91507f416363657373436f6e74726f6c3a2063616e206f6e6c792072656e6f756e636560008301527f20726f6c657320666f722073656c6600000000000000000000000000000000006020830152604082019050919050565b6000610d2a82610c39565b9150610d368285610bc8565b9150610d4182610c79565b9150610d4d8284610bc8565b91508190509392505050565b6000602082019050610d6e6000830184610b71565b92915050565b6000602082019050610d896000830184610b80565b92915050565b60006020820190508181036000830152610da98184610b8f565b905092915050565b60006020820190508181036000830152610dca81610bf9565b9050919050565b60006020820190508181036000830152610dea81610cb9565b9050919050565b600081519050919050565b600082825260208201905092915050565b600081905092915050565b6000610e2382610f3c565b9150610e2e83610f3c565b9250827fffffffffffffffffffffffffffffffffffffffffffffffffffffffffffffffff03821115610e6357610e62610fa3565b5b828201905092915050565b6000610e7982610f3c565b9150610e8483610f3c565b9250817fffffffffffffffffffffffffffffffffffffffffffffffffffffffffffffffff0483118215151615610ebd57610ebc610fa3565b5b828202905092915050565b6000610ed382610f1c565b9050919050565b60008115159050919050565b6000819050919050565b60007fffffffff0000000000000000000000000000000000000000000000000000000082169050919050565b600073ffffffffffffffffffffffffffffffffffffffff82169050919050565b6000819050919050565b60005b83811015610f64578082015181840152602081019050610f49565b83811115610f73576000848401525b50505050565b6000610f8482610f3c565b91506000821415610f9857610f97610fa3565b5b600182039050919050565b7f4e487b7100000000000000000000000000000000000000000000000000000000600052601160045260246000fd5b6000601f19601f8301169050919050565b610fec81610ec8565b8114610ff757600080fd5b50565b61100381610ee6565b811461100e57600080fd5b50565b61101a81610ef0565b811461102557600080fd5b5056fea26469706673582212201e413af7121a614cdb0702cfaf86babbe7ce87ce857b2e0a396fb4ddbb7347d564736f6c63430008000033",
  "immutableReferences": {},
  "source": "// SPDX-License-Identifier: MIT\n\npragma solidity ^0.8.0;\n\nimport \"@openzeppelin/contracts/access/AccessControl.sol\";\n\ncontract Access is AccessControl {\n  bytes32 public constant WHITELIST = keccak256(\"WHITELIST\");\n  bytes32 public constant OPERATOR = keccak256(\"OPERATOR\");\n\n  constructor() AccessControl() {\n    _setupRole(DEFAULT_ADMIN_ROLE, msg.sender);\n\n    grantRole(WHITELIST, msg.sender);\n    grantRole(OPERATOR, msg.sender);\n  }\n\n  function hasAccess(address forAddress) public view returns (bool) {\n    return hasRole(WHITELIST, forAddress);\n  }\n}\n",
  "sourcePath": "/Users/charlespacker/alloyx_smart_contracts/contracts/Access.sol",
  "compiler": {
    "name": "solc",
    "version": "0.8.0+commit.c7dfd78e.Emscripten.clang"
  },
  "schemaVersion": "3.4.3",
  "updatedAt": "2021-09-04T04:19:33.380Z",
  "devdoc": {
    "kind": "dev",
    "methods": {
      "getRoleAdmin(bytes32)": {
        "details": "Returns the admin role that controls `role`. See {grantRole} and {revokeRole}. To change a role's admin, use {_setRoleAdmin}."
      },
      "grantRole(bytes32,address)": {
        "details": "Grants `role` to `account`. If `account` had not been already granted `role`, emits a {RoleGranted} event. Requirements: - the caller must have ``role``'s admin role."
      },
      "hasRole(bytes32,address)": {
        "details": "Returns `true` if `account` has been granted `role`."
      },
      "renounceRole(bytes32,address)": {
        "details": "Revokes `role` from the calling account. Roles are often managed via {grantRole} and {revokeRole}: this function's purpose is to provide a mechanism for accounts to lose their privileges if they are compromised (such as when a trusted device is misplaced). If the calling account had been granted `role`, emits a {RoleRevoked} event. Requirements: - the caller must be `account`."
      },
      "revokeRole(bytes32,address)": {
        "details": "Revokes `role` from `account`. If `account` had been granted `role`, emits a {RoleRevoked} event. Requirements: - the caller must have ``role``'s admin role."
      },
      "supportsInterface(bytes4)": {
        "details": "See {IERC165-supportsInterface}."
      }
    },
    "version": 1
  },
  "userdoc": {
    "kind": "user",
    "methods": {},
    "version": 1
  }
}