{
  "contractName": "DesinationTokenManager",
  "abi": [
    {
      "inputs": [],
      "stateMutability": "nonpayable",
      "type": "constructor"
    },
    {
      "inputs": [
        {
          "internalType": "address",
          "name": "",
          "type": "address"
        },
        {
          "internalType": "uint256",
          "name": "",
          "type": "uint256"
        }
      ],
      "name": "vaultLookup",
      "outputs": [
        {
          "internalType": "address",
          "name": "",
          "type": "address"
        }
      ],
      "stateMutability": "view",
      "type": "function",
      "constant": true
    },
    {
      "inputs": [
        {
          "internalType": "address",
          "name": "vault",
          "type": "address"
        }
      ],
      "name": "getTokenByVault",
      "outputs": [
        {
          "internalType": "address[]",
          "name": "",
          "type": "address[]"
        }
      ],
      "stateMutability": "view",
      "type": "function",
      "constant": true
    },
    {
      "inputs": [
        {
          "internalType": "address",
          "name": "vaultAddress",
          "type": "address"
        },
        {
          "internalType": "string",
          "name": "tokenName",
          "type": "string"
        },
        {
          "internalType": "string",
          "name": "tokenSymbol",
          "type": "string"
        },
        {
          "internalType": "string",
          "name": "metadata",
          "type": "string"
        },
        {
          "internalType": "uint256",
          "name": "supply",
          "type": "uint256"
        },
        {
          "internalType": "address",
          "name": "owner",
          "type": "address"
        },
        {
          "internalType": "uint256",
          "name": "maturity",
          "type": "uint256"
        }
      ],
      "name": "deployDestinationToken",
      "outputs": [],
      "stateMutability": "nonpayable",
      "type": "function"
    }
  ],
  "bytecode": "0x608060405234801561001057600080fd5b50616e46806100206000396000f3fe60806040523480156200001157600080fd5b506004361062000063576000357c01000000000000000000000000000000000000000000000000000000009004806347870d291462000068578063849160de14620000885780639fa1921514620000be575b600080fd5b620000866004803603810190620000809190620003db565b620000f4565b005b620000a66004803603810190620000a09190620003af565b620001e4565b604051620000b5919062000629565b60405180910390f35b620000dc6004803603810190620000d69190620004d3565b620002b2565b604051620000eb91906200060c565b60405180910390f35b60008686868686866040516200010a9062000301565b6200011b969594939291906200064d565b604051809103906000f08015801562000138573d6000803e3d6000fd5b5090506000808973ffffffffffffffffffffffffffffffffffffffff1673ffffffffffffffffffffffffffffffffffffffff168152602001908152602001600020819080600181540180825580915050600190039060005260206000200160009091909190916101000a81548173ffffffffffffffffffffffffffffffffffffffff021916908373ffffffffffffffffffffffffffffffffffffffff1602179055505050505050505050565b60606000808373ffffffffffffffffffffffffffffffffffffffff1673ffffffffffffffffffffffffffffffffffffffff168152602001908152602001600020805480602002602001604051908101604052809291908181526020018280548015620002a657602002820191906000526020600020905b8160009054906101000a900473ffffffffffffffffffffffffffffffffffffffff1673ffffffffffffffffffffffffffffffffffffffff16815260200190600101908083116200025b575b50505050509050919050565b60006020528160005260406000208181548110620002cf57600080fd5b906000526020600020016000915091509054906101000a900473ffffffffffffffffffffffffffffffffffffffff1681565b61658e806200088383390190565b600062000326620003208462000703565b620006cf565b9050828152602081018484840111156200033f57600080fd5b6200034c848285620007c9565b509392505050565b60008135905062000365816200084e565b92915050565b600082601f8301126200037d57600080fd5b81356200038f8482602086016200030f565b91505092915050565b600081359050620003a98162000868565b92915050565b600060208284031215620003c257600080fd5b6000620003d28482850162000354565b91505092915050565b600080600080600080600060e0888a031215620003f757600080fd5b6000620004078a828b0162000354565b975050602088013567ffffffffffffffff8111156200042557600080fd5b620004338a828b016200036b565b965050604088013567ffffffffffffffff8111156200045157600080fd5b6200045f8a828b016200036b565b955050606088013567ffffffffffffffff8111156200047d57600080fd5b6200048b8a828b016200036b565b94505060806200049e8a828b0162000398565b93505060a0620004b18a828b0162000354565b92505060c0620004c48a828b0162000398565b91505092959891949750929550565b60008060408385031215620004e757600080fd5b6000620004f78582860162000354565b92505060206200050a8582860162000398565b9150509250929050565b60006200052283836200052e565b60208301905092915050565b62000539816200078b565b82525050565b6200054a816200078b565b82525050565b60006200055d8262000746565b62000569818562000769565b9350620005768362000736565b8060005b83811015620005ad57815162000591888262000514565b97506200059e836200075c565b9250506001810190506200057a565b5085935050505092915050565b6000620005c78262000751565b620005d381856200077a565b9350620005e5818560208601620007d8565b620005f0816200083d565b840191505092915050565b6200060681620007bf565b82525050565b60006020820190506200062360008301846200053f565b92915050565b6000602082019050818103600083015262000645818462000550565b905092915050565b600060c0820190508181036000830152620006698189620005ba565b905081810360208301526200067f8188620005ba565b90508181036040830152620006958187620005ba565b9050620006a66060830186620005fb565b620006b560808301856200053f565b620006c460a0830184620005fb565b979650505050505050565b6000604051905081810181811067ffffffffffffffff82111715620006f957620006f86200080e565b5b8060405250919050565b600067ffffffffffffffff8211156200072157620007206200080e565b5b601f19601f8301169050602081019050919050565b6000819050602082019050919050565b600081519050919050565b600081519050919050565b6000602082019050919050565b600082825260208201905092915050565b600082825260208201905092915050565b600062000798826200079f565b9050919050565b600073ffffffffffffffffffffffffffffffffffffffff82169050919050565b6000819050919050565b82818337600083830152505050565b60005b83811015620007f8578082015181840152602081019050620007db565b8381111562000808576000848401525b50505050565b7f4e487b7100000000000000000000000000000000000000000000000000000000600052604160045260246000fd5b6000601f19601f8301169050919050565b62000859816200078b565b81146200086557600080fd5b50565b6200087381620007bf565b81146200087f57600080fd5b5056fe60806040526000600d5560405180602001604052806000815250600e90805190602001906200003092919062000cc1565b503480156200003e57600080fd5b506040516200658e3803806200658e833981810160405281019062000064919062000e11565b858581600390805190602001906200007e92919062000cc1565b5080600490805190602001906200009792919062000cc1565b50505033600a60006101000a81548173ffffffffffffffffffffffffffffffffffffffff021916908373ffffffffffffffffffffffffffffffffffffffff16021790555081600b60006101000a81548173ffffffffffffffffffffffffffffffffffffffff021916908373ffffffffffffffffffffffffffffffffffffffff1602179055508260108190555080600c819055506200016b6000600102600a60009054906101000a900473ffffffffffffffffffffffffffffffffffffffff166200031a640100000000026401000000009004565b83600e90805190602001906200018392919062000cc1565b50620001e17f37869509cd177be1dff4623c455e0f6e991f086eada4aa4d62043ed390ec3078600a60009054906101000a900473ffffffffffffffffffffffffffffffffffffffff1662000339640100000000026401000000009004565b6200023e7f9f2df0fed2c77648de5860a4cc508cd0818c85b8b8a1ab4ceeef8d981c8956a6600b60009054906101000a900473ffffffffffffffffffffffffffffffffffffffff1662000339640100000000026401000000009004565b6200029b7f523a704056dcd17bcf83bed8b68c59416dac1119be77755efe3bde0a64e46e0c600b60009054906101000a900473ffffffffffffffffffffffffffffffffffffffff1662000339640100000000026401000000009004565b6200030e600b60009054906101000a900473ffffffffffffffffffffffffffffffffffffffff16620002db620003a6640100000000026401000000009004565b60ff16600a620002ec91906200137e565b85620002f99190620014bb565b620003af640100000000026401000000009004565b505050505050620016d4565b6200033582826200053a640100000000026401000000009004565b5050565b62000353826200063e640100000000026401000000009004565b6200038681620003716200065e640100000000026401000000009004565b62000666640100000000026401000000009004565b620003a183836200053a640100000000026401000000009004565b505050565b60006012905090565b600073ffffffffffffffffffffffffffffffffffffffff168273ffffffffffffffffffffffffffffffffffffffff16141562000422576040517f08c379a00000000000000000000000000000000000000000000000000000000081526004016200041990620011f9565b60405180910390fd5b6200043f6000838362000746640100000000026401000000009004565b8060026000828254620004539190620012c6565b92505081905550806000808473ffffffffffffffffffffffffffffffffffffffff1673ffffffffffffffffffffffffffffffffffffffff1681526020019081526020016000206000828254620004aa9190620012c6565b925050819055508173ffffffffffffffffffffffffffffffffffffffff16600073ffffffffffffffffffffffffffffffffffffffff167fddf252ad1be2c89b69c2b068fc378daa952ba7f163c4a11628f55a4df523b3ef836040516200051191906200121b565b60405180910390a362000536600083836200082c640100000000026401000000009004565b5050565b62000555828262000831640100000000026401000000009004565b6200063a5760016005600084815260200190815260200160002060000160008373ffffffffffffffffffffffffffffffffffffffff1673ffffffffffffffffffffffffffffffffffffffff16815260200190815260200160002060006101000a81548160ff021916908315150217905550620005df6200065e640100000000026401000000009004565b73ffffffffffffffffffffffffffffffffffffffff168173ffffffffffffffffffffffffffffffffffffffff16837f2f8788117e7eff1d82e926ec794901d17c78024a50270940304540a733656f0d60405160405180910390a45b5050565b600060056000838152602001908152602001600020600101549050919050565b600033905090565b62000681828262000831640100000000026401000000009004565b6200074257620006bd8173ffffffffffffffffffffffffffffffffffffffff1660146200089c64010000000002620029fa176401000000009004565b620006e2836001900460206200089c64010000000002620029fa176401000000009004565b604051602001620006f59291906200112d565b6040516020818303038152906040526040517f08c379a00000000000000000000000000000000000000000000000000000000081526004016200073991906200116f565b60405180910390fd5b5050565b6200076783838362000bd26401000000000262002d1b176401000000009004565b6007829080600181540180825580915050600190039060005260206000200160009091909190916101000a81548173ffffffffffffffffffffffffffffffffffffffff021916908373ffffffffffffffffffffffffffffffffffffffff160217905550620007e5823362000bd7640100000000026401000000009004565b62000827576040517f08c379a00000000000000000000000000000000000000000000000000000000081526004016200081e90620011d7565b60405180910390fd5b505050565b505050565b60006005600084815260200190815260200160002060000160008373ffffffffffffffffffffffffffffffffffffffff1673ffffffffffffffffffffffffffffffffffffffff16815260200190815260200160002060009054906101000a900460ff16905092915050565b606060006002836002620008b19190620014bb565b620008bd9190620012c6565b67ffffffffffffffff811115620008fd577f4e487b7100000000000000000000000000000000000000000000000000000000600052604160045260246000fd5b6040519080825280601f01601f191660200182016040528015620009305781602001600182028036833780820191505090505b5090507f3000000000000000000000000000000000000000000000000000000000000000816000815181106200098f577f4e487b7100000000000000000000000000000000000000000000000000000000600052603260045260246000fd5b60200101907effffffffffffffffffffffffffffffffffffffffffffffffffffffffffffff1916908160001a9053507f78000000000000000000000000000000000000000000000000000000000000008160018151811062000a1a577f4e487b7100000000000000000000000000000000000000000000000000000000600052603260045260246000fd5b60200101907effffffffffffffffffffffffffffffffffffffffffffffffffffffffffffff1916908160001a9053506000600184600262000a5c9190620014bb565b62000a689190620012c6565b90505b600181111562000b81577f3031323334353637383961626364656600000000000000000000000000000000600f86166010811062000ad2577f4e487b7100000000000000000000000000000000000000000000000000000000600052603260045260246000fd5b1a7f01000000000000000000000000000000000000000000000000000000000000000282828151811062000b2f577f4e487b7100000000000000000000000000000000000000000000000000000000600052603260045260246000fd5b60200101907effffffffffffffffffffffffffffffffffffffffffffffffffffffffffffff1916908160001a905350600485908060020a820491505094508062000b799062001590565b905062000a6b565b506000841462000bc8576040517f08c379a000000000000000000000000000000000000000000000000000000000815260040162000bbf9062001193565b60405180910390fd5b8091505092915050565b505050565b600080600d54141562000bee576001905062000cbb565b62000c297f7a05a596cb0ce7fdea8a1e1ec73be300bdb35097c944ce1897202f7a13122eb28362000831640100000000026401000000009004565b1562000c39576001905062000cbb565b62000c747f37869509cd177be1dff4623c455e0f6e991f086eada4aa4d62043ed390ec30788462000831640100000000026401000000009004565b62000cb6576040517f08c379a000000000000000000000000000000000000000000000000000000000815260040162000cad90620011b5565b60405180910390fd5b600190505b92915050565b82805462000ccf90620015bf565b90600052602060002090601f01602090048101928262000cf3576000855562000d3f565b82601f1062000d0e57805160ff191683800117855562000d3f565b8280016001018555821562000d3f579182015b8281111562000d3e57825182559160200191906001019062000d21565b5b50905062000d4e919062000d52565b5090565b5b8082111562000d6d57600081600090555060010162000d53565b5090565b600062000d8862000d82846200126c565b62001238565b90508281526020810184848401111562000da157600080fd5b62000dae8482856200155a565b509392505050565b60008151905062000dc781620016a0565b92915050565b600082601f83011262000ddf57600080fd5b815162000df184826020860162000d71565b91505092915050565b60008151905062000e0b81620016ba565b92915050565b60008060008060008060c0878903121562000e2b57600080fd5b600087015167ffffffffffffffff81111562000e4657600080fd5b62000e5489828a0162000dcd565b965050602087015167ffffffffffffffff81111562000e7257600080fd5b62000e8089828a0162000dcd565b955050604087015167ffffffffffffffff81111562000e9e57600080fd5b62000eac89828a0162000dcd565b945050606062000ebf89828a0162000dfa565b935050608062000ed289828a0162000db6565b92505060a062000ee589828a0162000dfa565b9150509295509295509295565b600062000eff826200129f565b62000f0b8185620012aa565b935062000f1d8185602086016200155a565b62000f288162001682565b840191505092915050565b600062000f40826200129f565b62000f4c8185620012bb565b935062000f5e8185602086016200155a565b80840191505092915050565b600062000f79602083620012aa565b91507f537472696e67733a20686578206c656e67746820696e73756666696369656e746000830152602082019050919050565b600062000fbb601e83620012aa565b91507f526563697069656e7420646f6573206e6f7420686176652061636365737300006000830152602082019050919050565b600062000ffd601783620012bb565b91507f416363657373436f6e74726f6c3a206163636f756e74200000000000000000006000830152601782019050919050565b60006200103f602883620012aa565b91507f455243323057697468536166655472616e736665723a20696e76616c6964207260008301527f6563697069656e740000000000000000000000000000000000000000000000006020830152604082019050919050565b6000620010a7601183620012bb565b91507f206973206d697373696e6720726f6c65200000000000000000000000000000006000830152601182019050919050565b6000620010e9601f83620012aa565b91507f45524332303a206d696e7420746f20746865207a65726f2061646472657373006000830152602082019050919050565b620011278162001550565b82525050565b60006200113a8262000fee565b915062001148828562000f33565b9150620011558262001098565b915062001163828462000f33565b91508190509392505050565b600060208201905081810360008301526200118b818462000ef2565b905092915050565b60006020820190508181036000830152620011ae8162000f6a565b9050919050565b60006020820190508181036000830152620011d08162000fac565b9050919050565b60006020820190508181036000830152620011f28162001030565b9050919050565b600060208201905081810360008301526200121481620010da565b9050919050565b60006020820190506200123260008301846200111c565b92915050565b6000604051905081810181811067ffffffffffffffff8211171562001262576200126162001653565b5b8060405250919050565b600067ffffffffffffffff8211156200128a576200128962001653565b5b601f19601f8301169050602081019050919050565b600081519050919050565b600082825260208201905092915050565b600081905092915050565b6000620012d38262001550565b9150620012e08362001550565b9250827fffffffffffffffffffffffffffffffffffffffffffffffffffffffffffffffff03821115620013185762001317620015f5565b5b828201905092915050565b6000808291508390505b600185111562001375578086048111156200134d576200134c620015f5565b5b60018516156200135d5780820291505b80810290506200136d8562001693565b94506200132d565b94509492505050565b60006200138b8262001550565b9150620013988362001550565b9250620013c77fffffffffffffffffffffffffffffffffffffffffffffffffffffffffffffffff8484620013cf565b905092915050565b600082620013e15760019050620014b4565b81620013f15760009050620014b4565b81600181146200140a576002811462001415576200144b565b6001915050620014b4565b60ff8411156200142a5762001429620015f5565b5b8360020a915084821115620014445762001443620015f5565b5b50620014b4565b5060208310610133831016604e8410600b8410161715620014855782820a9050838111156200147f576200147e620015f5565b5b620014b4565b62001494848484600162001323565b92509050818404811115620014ae57620014ad620015f5565b5b81810290505b9392505050565b6000620014c88262001550565b9150620014d58362001550565b9250817fffffffffffffffffffffffffffffffffffffffffffffffffffffffffffffffff0483118215151615620015115762001510620015f5565b5b828202905092915050565b6000620015298262001530565b9050919050565b600073ffffffffffffffffffffffffffffffffffffffff82169050919050565b6000819050919050565b60005b838110156200157a5780820151818401526020810190506200155d565b838111156200158a576000848401525b50505050565b60006200159d8262001550565b91506000821415620015b457620015b3620015f5565b5b600182039050919050565b60006002820490506001821680620015d857607f821691505b60208210811415620015ef57620015ee62001624565b5b50919050565b7f4e487b7100000000000000000000000000000000000000000000000000000000600052601160045260246000fd5b7f4e487b7100000000000000000000000000000000000000000000000000000000600052602260045260246000fd5b7f4e487b7100000000000000000000000000000000000000000000000000000000600052604160045260246000fd5b6000601f19601f8301169050919050565b6000600282049050919050565b620016ab816200151c565b8114620016b757600080fd5b50565b620016c58162001550565b8114620016d157600080fd5b50565b614eaa80620016e46000396000f3fe608060405234801561001057600080fd5b5060043610610286576000357c01000000000000000000000000000000000000000000000000000000009004806370a082311161016e578063a7775ab5116100e0578063d547741f116100a4578063d547741f146107a5578063dd62ed3e146107c1578063df57b3e0146107f1578063e21959041461080f578063ecb9ddc21461082d578063fdda77bd1461084957610286565b8063a7775ab5146106ff578063a9059cbb1461071b578063acf69e2e1461074b578063b5345bd914610769578063d53913931461078757610286565b806395d89b411161013257806395d89b4114610627578063983d273714610645578063a14e4d6914610663578063a217fddf14610693578063a457c2d7146106b1578063a76b4d56146106e157610286565b806370a082311461056f578063782aafac1461059f578063876b1566146105bb5780638da5cb5b146105d957806391d14854146105f757610286565b8063248a9ca311610207578063313ce567116101cb578063313ce567146104b157806336568abe146104cf57806339509351146104eb57806340c10f191461051b578063662faff0146105375780636b215c041461055357610286565b8063248a9ca3146103fb578063287eb6931461042b5780632b3f235c146104475780632f2ff15d1461047757806330d643b51461049357610286565b80630d77c7df1161024e5780630d77c7df146103575780630f67c5c11461037357806318160ddd1461038f578063184d69ab146103ad57806323b872dd146103cb57610286565b806301ffc9a71461028b57806306f2057a146102bb57806306fdde03146102d9578063095ea7b3146102f75780630d4552dd14610327575b600080fd5b6102a560048036038101906102a09190613bff565b610879565b6040516102b29190614600565b60405180910390f35b6102c36108f3565b6040516102d09190614878565b60405180910390f35b6102e16108fd565b6040516102ee9190614636565b60405180910390f35b610311600480360381019061030c9190613b35565b61098f565b60405161031e9190614600565b60405180910390f35b610341600480360381019061033c9190613aaa565b6109ad565b60405161034e9190614636565b60405180910390f35b610371600480360381019061036c9190613c69565b610c33565b005b61038d60048036038101906103889190613ae6565b610ca6565b005b610397610fe9565b6040516103a49190614878565b60405180910390f35b6103b5610ff3565b6040516103c29190614878565b60405180910390f35b6103e560048036038101906103e09190613ae6565b610ff9565b6040516103f29190614600565b60405180910390f35b61041560048036038101906104109190613b9a565b6110f1565b604051610422919061461b565b60405180910390f35b61044560048036038101906104409190613cbb565b611111565b005b610461600480360381019061045c9190613a81565b6111d4565b60405161046e9190614878565b60405180910390f35b610491600480360381019061048c9190613bc3565b61121d565b005b61049b611246565b6040516104a8919061461b565b60405180910390f35b6104b961126a565b6040516104c69190614893565b60405180910390f35b6104e960048036038101906104e49190613bc3565b611273565b005b61050560048036038101906105009190613b35565b6112f6565b6040516105129190614600565b60405180910390f35b61053560048036038101906105309190613b35565b6113a2565b005b610551600480360381019061054c9190613c28565b61143a565b005b61056d60048036038101906105689190613aaa565b611454565b005b61058960048036038101906105849190613a81565b611b77565b6040516105969190614878565b60405180910390f35b6105b960048036038101906105b49190613b35565b611bbf565b005b6105c3611f64565b6040516105d091906145de565b60405180910390f35b6105e1611ff2565b6040516105ee9190614563565b60405180910390f35b610611600480360381019061060c9190613bc3565b612018565b60405161061e9190614600565b60405180910390f35b61062f612083565b60405161063c9190614636565b60405180910390f35b61064d612115565b60405161065a919061461b565b60405180910390f35b61067d60048036038101906106789190613a81565b612139565b60405161068a9190614878565b60405180910390f35b61069b612274565b6040516106a8919061461b565b60405180910390f35b6106cb60048036038101906106c69190613b35565b61227c565b6040516106d89190614600565b60405180910390f35b6106e9612367565b6040516106f69190614636565b60405180910390f35b61071960048036038101906107149190613a81565b6123f5565b005b61073560048036038101906107309190613b35565b6124c4565b6040516107429190614600565b60405180910390f35b6107536124e2565b604051610760919061461b565b60405180910390f35b610771612506565b60405161077e9190614563565b60405180910390f35b61078f61252c565b60405161079c919061461b565b60405180910390f35b6107bf60048036038101906107ba9190613bc3565b612550565b005b6107db60048036038101906107d69190613aaa565b612579565b6040516107e89190614878565b60405180910390f35b6107f9612600565b6040516108069190614878565b60405180910390f35b610817612606565b60405161082491906145de565b60405180910390f35b61084760048036038101906108429190613cbb565b612694565b005b610863600480360381019061085e9190613aaa565b6127a5565b6040516108709190614878565b60405180910390f35b60007f7965db0b000000000000000000000000000000000000000000000000000000007bffffffffffffffffffffffffffffffffffffffffffffffffffffffff1916827bffffffffffffffffffffffffffffffffffffffffffffffffffffffff191614806108ec57506108eb82612d20565b5b9050919050565b6000600d54905090565b60606003805461090c90614cdb565b80601f016020809104026020016040519081016040528092919081815260200182805461093890614cdb565b80156109855780601f1061095a57610100808354040283529160200191610985565b820191906000526020600020905b81548152906001019060200180831161096857829003601f168201915b5050505050905090565b60006109a361099c612d8a565b8484612d92565b6001905092915050565b606060005b600880549050811015610bf3576000600882815481106109fb577f4e487b7100000000000000000000000000000000000000000000000000000000600052603260045260246000fd5b90600052602060002090600402016040518060800160405290816000820160009054906101000a900473ffffffffffffffffffffffffffffffffffffffff1673ffffffffffffffffffffffffffffffffffffffff1673ffffffffffffffffffffffffffffffffffffffff1681526020016001820160009054906101000a900473ffffffffffffffffffffffffffffffffffffffff1673ffffffffffffffffffffffffffffffffffffffff1673ffffffffffffffffffffffffffffffffffffffff16815260200160028201548152602001600382018054610ada90614cdb565b80601f0160208091040260200160405190810160405280929190818152602001828054610b0690614cdb565b8015610b535780601f10610b2857610100808354040283529160200191610b53565b820191906000526020600020905b815481529060010190602001808311610b3657829003601f168201915b50505050508152505090508373ffffffffffffffffffffffffffffffffffffffff16816020015173ffffffffffffffffffffffffffffffffffffffff16148015610bcc57508473ffffffffffffffffffffffffffffffffffffffff16816000015173ffffffffffffffffffffffffffffffffffffffff16145b15610bdf57806060015192505050610c2d565b508080610beb90614d0d565b9150506109b2565b506040518060400160405280600981526020017f6e6f207265636f7264000000000000000000000000000000000000000000000081525090505b92915050565b610c5d7f523a704056dcd17bcf83bed8b68c59416dac1119be77755efe3bde0a64e46e0c33612018565b610c9c576040517f08c379a0000000000000000000000000000000000000000000000000000000008152600401610c9390614718565b60405180910390fd5b80600d8190555050565b610cd07f523a704056dcd17bcf83bed8b68c59416dac1119be77755efe3bde0a64e46e0c33612018565b610d0f576040517f08c379a0000000000000000000000000000000000000000000000000000000008152600401610d0690614718565b60405180910390fd5b600c544211610d53576040517f08c379a0000000000000000000000000000000000000000000000000000000008152600401610d4a906147f8565b60405180910390fd5b60005b600f80549050811015610fe3576000600f8281548110610d9f577f4e487b7100000000000000000000000000000000000000000000000000000000600052603260045260246000fd5b9060005260206000200160009054906101000a900473ffffffffffffffffffffffffffffffffffffffff1690508373ffffffffffffffffffffffffffffffffffffffff168173ffffffffffffffffffffffffffffffffffffffff161415610fcf5760006040518060800160405280600f8581548110610e47577f4e487b7100000000000000000000000000000000000000000000000000000000600052603260045260246000fd5b9060005260206000200160009054906101000a900473ffffffffffffffffffffffffffffffffffffffff1673ffffffffffffffffffffffffffffffffffffffff1681526020018773ffffffffffffffffffffffffffffffffffffffff1681526020018581526020016040518060400160405280600781526020017f70656e64696e67000000000000000000000000000000000000000000000000008152508152509050600881908060018154018082558091505060019003906000526020600020906004020160009091909190915060008201518160000160006101000a81548173ffffffffffffffffffffffffffffffffffffffff021916908373ffffffffffffffffffffffffffffffffffffffff16021790555060208201518160010160006101000a81548173ffffffffffffffffffffffffffffffffffffffff021916908373ffffffffffffffffffffffffffffffffffffffff160217905550604082015181600201556060820151816003019080519060200190610fca9291906138f8565b505050505b508080610fdb90614d0d565b915050610d56565b50505050565b6000600254905090565b600d5481565b6000611006848484612f5d565b6000600160008673ffffffffffffffffffffffffffffffffffffffff1673ffffffffffffffffffffffffffffffffffffffff1681526020019081526020016000206000611051612d8a565b73ffffffffffffffffffffffffffffffffffffffff1673ffffffffffffffffffffffffffffffffffffffff168152602001908152602001600020549050828110156110d1576040517f08c379a00000000000000000000000000000000000000000000000000000000081526004016110c890614738565b60405180910390fd5b6110e5856110dd612d8a565b858403612d92565b60019150509392505050565b600060056000838152602001908152602001600020600101549050919050565b61113b7f523a704056dcd17bcf83bed8b68c59416dac1119be77755efe3bde0a64e46e0c33612018565b61117a576040517f08c379a000000000000000000000000000000000000000000000000000000000815260040161117190614718565b60405180910390fd5b81600660008373ffffffffffffffffffffffffffffffffffffffff1673ffffffffffffffffffffffffffffffffffffffff16815260200190815260200160002060008282546111c99190614bb0565b925050819055505050565b6000600660008373ffffffffffffffffffffffffffffffffffffffff1673ffffffffffffffffffffffffffffffffffffffff168152602001908152602001600020549050919050565b611226826110f1565b61123781611232612d8a565b6131de565b611241838361327c565b505050565b7f7a05a596cb0ce7fdea8a1e1ec73be300bdb35097c944ce1897202f7a13122eb281565b60006012905090565b61127b612d8a565b73ffffffffffffffffffffffffffffffffffffffff168173ffffffffffffffffffffffffffffffffffffffff16146112e8576040517f08c379a00000000000000000000000000000000000000000000000000000000081526004016112df90614838565b60405180910390fd5b6112f2828261335d565b5050565b6000611398611303612d8a565b848460016000611311612d8a565b73ffffffffffffffffffffffffffffffffffffffff1673ffffffffffffffffffffffffffffffffffffffff16815260200190815260200160002060008873ffffffffffffffffffffffffffffffffffffffff1673ffffffffffffffffffffffffffffffffffffffff16815260200190815260200160002054611393919061498f565b612d92565b6001905092915050565b6113cc7f9f2df0fed2c77648de5860a4cc508cd0818c85b8b8a1ab4ceeef8d981c8956a633612018565b61140b576040517f08c379a000000000000000000000000000000000000000000000000000000000815260040161140290614798565b60405180910390fd5b6114368261141761126a565b60ff16600a6114269190614a38565b836114319190614b56565b61343f565b5050565b80600e90805190602001906114509291906138f8565b5050565b600c544211611498576040517f08c379a000000000000000000000000000000000000000000000000000000000815260040161148f906147f8565b60405180910390fd5b60003390506000805b6008805490508110156116f4578373ffffffffffffffffffffffffffffffffffffffff16600882815481106114ff577f4e487b7100000000000000000000000000000000000000000000000000000000600052603260045260246000fd5b906000526020600020906004020160010160009054906101000a900473ffffffffffffffffffffffffffffffffffffffff1673ffffffffffffffffffffffffffffffffffffffff161480156115ea57508473ffffffffffffffffffffffffffffffffffffffff16600882815481106115a0577f4e487b7100000000000000000000000000000000000000000000000000000000600052603260045260246000fd5b906000526020600020906004020160000160009054906101000a900473ffffffffffffffffffffffffffffffffffffffff1673ffffffffffffffffffffffffffffffffffffffff16145b156116e1576040518060400160405280600481526020017f70616964000000000000000000000000000000000000000000000000000000008152508051906020012060088281548110611666577f4e487b7100000000000000000000000000000000000000000000000000000000600052603260045260246000fd5b90600052602060002090600402016003016040516116849190614512565b6040518091039020146116e057600881815481106116cb577f4e487b7100000000000000000000000000000000000000000000000000000000600052603260045260246000fd5b90600052602060002090600402016002015491505b5b80806116ec90614d0d565b9150506114a1565b5060005b600f80549050811015611975576000600f8281548110611741577f4e487b7100000000000000000000000000000000000000000000000000000000600052603260045260246000fd5b9060005260206000200160009054906101000a900473ffffffffffffffffffffffffffffffffffffffff1690506000600f83815481106117aa577f4e487b7100000000000000000000000000000000000000000000000000000000600052603260045260246000fd5b9060005260206000200160009054906101000a900473ffffffffffffffffffffffffffffffffffffffff1690508073ffffffffffffffffffffffffffffffffffffffff168773ffffffffffffffffffffffffffffffffffffffff161415611960578173ffffffffffffffffffffffffffffffffffffffff1663095ea7b386866040518363ffffffff167c01000000000000000000000000000000000000000000000000000000000281526004016118629291906145b5565b602060405180830381600087803b15801561187c57600080fd5b505af1158015611890573d6000803e3d6000fd5b505050506040513d601f19601f820116820180604052508101906118b49190613b71565b508173ffffffffffffffffffffffffffffffffffffffff1663a9059cbb86866040518363ffffffff167c010000000000000000000000000000000000000000000000000000000002815260040161190c9291906145b5565b602060405180830381600087803b15801561192657600080fd5b505af115801561193a573d6000803e3d6000fd5b505050506040513d601f19601f8201168201806040525081019061195e9190613b71565b505b5050808061196d90614d0d565b9150506116f8565b5060005b600880549050811015611b70578373ffffffffffffffffffffffffffffffffffffffff16600882815481106119d7577f4e487b7100000000000000000000000000000000000000000000000000000000600052603260045260246000fd5b906000526020600020906004020160010160009054906101000a900473ffffffffffffffffffffffffffffffffffffffff1673ffffffffffffffffffffffffffffffffffffffff16148015611ac257508473ffffffffffffffffffffffffffffffffffffffff1660088281548110611a78577f4e487b7100000000000000000000000000000000000000000000000000000000600052603260045260246000fd5b906000526020600020906004020160000160009054906101000a900473ffffffffffffffffffffffffffffffffffffffff1673ffffffffffffffffffffffffffffffffffffffff16145b15611b5d576040518060400160405280600481526020017f706169640000000000000000000000000000000000000000000000000000000081525060088281548110611b37577f4e487b7100000000000000000000000000000000000000000000000000000000600052603260045260246000fd5b90600052602060002090600402016003019080519060200190611b5b9291906138f8565b505b8080611b6890614d0d565b915050611979565b5050505050565b60008060008373ffffffffffffffffffffffffffffffffffffffff1673ffffffffffffffffffffffffffffffffffffffff168152602001908152602001600020549050919050565b611be97f523a704056dcd17bcf83bed8b68c59416dac1119be77755efe3bde0a64e46e0c33612018565b611c28576040517f08c379a0000000000000000000000000000000000000000000000000000000008152600401611c1f90614718565b60405180910390fd5b600033905060005b600f80549050811015611e05576000600f8281548110611c79577f4e487b7100000000000000000000000000000000000000000000000000000000600052603260045260246000fd5b9060005260206000200160009054906101000a900473ffffffffffffffffffffffffffffffffffffffff1690506000600f8381548110611ce2577f4e487b7100000000000000000000000000000000000000000000000000000000600052603260045260246000fd5b9060005260206000200160009054906101000a900473ffffffffffffffffffffffffffffffffffffffff1690508073ffffffffffffffffffffffffffffffffffffffff168673ffffffffffffffffffffffffffffffffffffffff161415611df0578173ffffffffffffffffffffffffffffffffffffffff166323b872dd8530886040518463ffffffff167c0100000000000000000000000000000000000000000000000000000000028152600401611d9c9392919061457e565b602060405180830381600087803b158015611db657600080fd5b505af1158015611dca573d6000803e3d6000fd5b505050506040513d601f19601f82011682018060405250810190611dee9190613b71565b505b50508080611dfd90614d0d565b915050611c30565b5060008373ffffffffffffffffffffffffffffffffffffffff166370a08231306040518263ffffffff167c0100000000000000000000000000000000000000000000000000000000028152600401611e5d9190614563565b60206040518083038186803b158015611e7557600080fd5b505afa158015611e89573d6000803e3d6000fd5b505050506040513d601f19601f82011682018060405250810190611ead9190613c92565b9050600060405180604001604052808673ffffffffffffffffffffffffffffffffffffffff168152602001838152509050600981908060018154018082558091505060019003906000526020600020906002020160009091909190915060008201518160000160006101000a81548173ffffffffffffffffffffffffffffffffffffffff021916908373ffffffffffffffffffffffffffffffffffffffff1602179055506020820151816001015550505050505050565b60606007805480602002602001604051908101604052809291908181526020018280548015611fe857602002820191906000526020600020905b8160009054906101000a900473ffffffffffffffffffffffffffffffffffffffff1673ffffffffffffffffffffffffffffffffffffffff1681526020019060010190808311611f9e575b5050505050905090565b600a60009054906101000a900473ffffffffffffffffffffffffffffffffffffffff1681565b60006005600084815260200190815260200160002060000160008373ffffffffffffffffffffffffffffffffffffffff1673ffffffffffffffffffffffffffffffffffffffff16815260200190815260200160002060009054906101000a900460ff16905092915050565b60606004805461209290614cdb565b80601f01602080910402602001604051908101604052809291908181526020018280546120be90614cdb565b801561210b5780601f106120e05761010080835404028352916020019161210b565b820191906000526020600020905b8154815290600101906020018083116120ee57829003601f168201915b5050505050905090565b7f523a704056dcd17bcf83bed8b68c59416dac1119be77755efe3bde0a64e46e0c81565b6000806000905060005b60098054905081101561226a5760006009828154811061218c577f4e487b7100000000000000000000000000000000000000000000000000000000600052603260045260246000fd5b90600052602060002090600202016040518060400160405290816000820160009054906101000a900473ffffffffffffffffffffffffffffffffffffffff1673ffffffffffffffffffffffffffffffffffffffff1673ffffffffffffffffffffffffffffffffffffffff16815260200160018201548152505090508473ffffffffffffffffffffffffffffffffffffffff16816000015173ffffffffffffffffffffffffffffffffffffffff161480156122495750828160200151115b1561225657806020015192505b50808061226290614d0d565b915050612143565b5080915050919050565b600060010281565b6000806001600061228b612d8a565b73ffffffffffffffffffffffffffffffffffffffff1673ffffffffffffffffffffffffffffffffffffffff16815260200190815260200160002060008573ffffffffffffffffffffffffffffffffffffffff1673ffffffffffffffffffffffffffffffffffffffff16815260200190815260200160002054905082811015612348576040517f08c379a000000000000000000000000000000000000000000000000000000000815260040161233f90614818565b60405180910390fd5b61235c612353612d8a565b85858403612d92565b600191505092915050565b600e805461237490614cdb565b80601f01602080910402602001604051908101604052809291908181526020018280546123a090614cdb565b80156123ed5780601f106123c2576101008083540402835291602001916123ed565b820191906000526020600020905b8154815290600101906020018083116123d057829003601f168201915b505050505081565b61241f7f523a704056dcd17bcf83bed8b68c59416dac1119be77755efe3bde0a64e46e0c33612018565b61245e576040517f08c379a000000000000000000000000000000000000000000000000000000000815260040161245590614718565b60405180910390fd5b600f819080600181540180825580915050600190039060005260206000200160009091909190916101000a81548173ffffffffffffffffffffffffffffffffffffffff021916908373ffffffffffffffffffffffffffffffffffffffff16021790555050565b60006124d86124d1612d8a565b8484612f5d565b6001905092915050565b7f37869509cd177be1dff4623c455e0f6e991f086eada4aa4d62043ed390ec307881565b600b60009054906101000a900473ffffffffffffffffffffffffffffffffffffffff1681565b7f9f2df0fed2c77648de5860a4cc508cd0818c85b8b8a1ab4ceeef8d981c8956a681565b612559826110f1565b61256a81612565612d8a565b6131de565b612574838361335d565b505050565b6000600160008473ffffffffffffffffffffffffffffffffffffffff1673ffffffffffffffffffffffffffffffffffffffff16815260200190815260200160002060008373ffffffffffffffffffffffffffffffffffffffff1673ffffffffffffffffffffffffffffffffffffffff16815260200190815260200160002054905092915050565b600c5481565b6060600f80548060200260200160405190810160405280929190818152602001828054801561268a57602002820191906000526020600020905b8160009054906101000a900473ffffffffffffffffffffffffffffffffffffffff1673ffffffffffffffffffffffffffffffffffffffff1681526020019060010190808311612640575b5050505050905090565b600c5442116126d8576040517f08c379a00000000000000000000000000000000000000000000000000000000081526004016126cf906147f8565b60405180910390fd5b6127027f523a704056dcd17bcf83bed8b68c59416dac1119be77755efe3bde0a64e46e0c33612018565b612741576040517f08c379a000000000000000000000000000000000000000000000000000000000815260040161273890614718565b60405180910390fd5b61274b818361359f565b81600660008373ffffffffffffffffffffffffffffffffffffffff1673ffffffffffffffffffffffffffffffffffffffff168152602001908152602001600020600082825461279a919061498f565b925050819055505050565b600080600090505b6008805490508110156129ee576000600882815481106127f6577f4e487b7100000000000000000000000000000000000000000000000000000000600052603260045260246000fd5b90600052602060002090600402016040518060800160405290816000820160009054906101000a900473ffffffffffffffffffffffffffffffffffffffff1673ffffffffffffffffffffffffffffffffffffffff1673ffffffffffffffffffffffffffffffffffffffff1681526020016001820160009054906101000a900473ffffffffffffffffffffffffffffffffffffffff1673ffffffffffffffffffffffffffffffffffffffff1673ffffffffffffffffffffffffffffffffffffffff168152602001600282015481526020016003820180546128d590614cdb565b80601f016020809104026020016040519081016040528092919081815260200182805461290190614cdb565b801561294e5780601f106129235761010080835404028352916020019161294e565b820191906000526020600020905b81548152906001019060200180831161293157829003601f168201915b50505050508152505090508373ffffffffffffffffffffffffffffffffffffffff16816020015173ffffffffffffffffffffffffffffffffffffffff161480156129c757508473ffffffffffffffffffffffffffffffffffffffff16816000015173ffffffffffffffffffffffffffffffffffffffff16145b156129da578060400151925050506129f4565b5080806129e690614d0d565b9150506127ad565b50600090505b92915050565b606060006002836002612a0d9190614b56565b612a17919061498f565b67ffffffffffffffff811115612a56577f4e487b7100000000000000000000000000000000000000000000000000000000600052604160045260246000fd5b6040519080825280601f01601f191660200182016040528015612a885781602001600182028036833780820191505090505b5090507f300000000000000000000000000000000000000000000000000000000000000081600081518110612ae6577f4e487b7100000000000000000000000000000000000000000000000000000000600052603260045260246000fd5b60200101907effffffffffffffffffffffffffffffffffffffffffffffffffffffffffffff1916908160001a9053507f780000000000000000000000000000000000000000000000000000000000000081600181518110612b70577f4e487b7100000000000000000000000000000000000000000000000000000000600052603260045260246000fd5b60200101907effffffffffffffffffffffffffffffffffffffffffffffffffffffffffffff1916908160001a90535060006001846002612bb09190614b56565b612bba919061498f565b90505b6001811115612ccd577f3031323334353637383961626364656600000000000000000000000000000000600f861660108110612c22577f4e487b7100000000000000000000000000000000000000000000000000000000600052603260045260246000fd5b1a7f010000000000000000000000000000000000000000000000000000000000000002828281518110612c7e577f4e487b7100000000000000000000000000000000000000000000000000000000600052603260045260246000fd5b60200101907effffffffffffffffffffffffffffffffffffffffffffffffffffffffffffff1916908160001a905350600485908060020a8204915050945080612cc690614cb1565b9050612bbd565b5060008414612d11576040517f08c379a0000000000000000000000000000000000000000000000000000000008152600401612d0890614658565b60405180910390fd5b8091505092915050565b505050565b60007f01ffc9a7000000000000000000000000000000000000000000000000000000007bffffffffffffffffffffffffffffffffffffffffffffffffffffffff1916827bffffffffffffffffffffffffffffffffffffffffffffffffffffffff1916149050919050565b600033905090565b600073ffffffffffffffffffffffffffffffffffffffff168373ffffffffffffffffffffffffffffffffffffffff161415612e02576040517f08c379a0000000000000000000000000000000000000000000000000000000008152600401612df9906147b8565b60405180910390fd5b600073ffffffffffffffffffffffffffffffffffffffff168273ffffffffffffffffffffffffffffffffffffffff161415612e72576040517f08c379a0000000000000000000000000000000000000000000000000000000008152600401612e69906146b8565b60405180910390fd5b80600160008573ffffffffffffffffffffffffffffffffffffffff1673ffffffffffffffffffffffffffffffffffffffff16815260200190815260200160002060008473ffffffffffffffffffffffffffffffffffffffff1673ffffffffffffffffffffffffffffffffffffffff168152602001908152602001600020819055508173ffffffffffffffffffffffffffffffffffffffff168373ffffffffffffffffffffffffffffffffffffffff167f8c5be1e5ebec7d5bd14f71427d1e84f3dd0314c0f7b2291e5b200ac8c7c3b92583604051612f509190614878565b60405180910390a3505050565b600073ffffffffffffffffffffffffffffffffffffffff168373ffffffffffffffffffffffffffffffffffffffff161415612fcd576040517f08c379a0000000000000000000000000000000000000000000000000000000008152600401612fc490614778565b60405180910390fd5b600073ffffffffffffffffffffffffffffffffffffffff168273ffffffffffffffffffffffffffffffffffffffff16141561303d576040517f08c379a000000000000000000000000000000000000000000000000000000000815260040161303490614678565b60405180910390fd5b613048838383613776565b60008060008573ffffffffffffffffffffffffffffffffffffffff1673ffffffffffffffffffffffffffffffffffffffff168152602001908152602001600020549050818110156130ce576040517f08c379a00000000000000000000000000000000000000000000000000000000081526004016130c5906146d8565b60405180910390fd5b8181036000808673ffffffffffffffffffffffffffffffffffffffff1673ffffffffffffffffffffffffffffffffffffffff16815260200190815260200160002081905550816000808573ffffffffffffffffffffffffffffffffffffffff1673ffffffffffffffffffffffffffffffffffffffff1681526020019081526020016000206000828254613161919061498f565b925050819055508273ffffffffffffffffffffffffffffffffffffffff168473ffffffffffffffffffffffffffffffffffffffff167fddf252ad1be2c89b69c2b068fc378daa952ba7f163c4a11628f55a4df523b3ef846040516131c59190614878565b60405180910390a36131d8848484613832565b50505050565b6131e88282612018565b6132785761320d8173ffffffffffffffffffffffffffffffffffffffff1660146129fa565b61321c836001900460206129fa565b60405160200161322d929190614529565b6040516020818303038152906040526040517f08c379a000000000000000000000000000000000000000000000000000000000815260040161326f9190614636565b60405180910390fd5b5050565b6132868282612018565b6133595760016005600084815260200190815260200160002060000160008373ffffffffffffffffffffffffffffffffffffffff1673ffffffffffffffffffffffffffffffffffffffff16815260200190815260200160002060006101000a81548160ff0219169083151502179055506132fe612d8a565b73ffffffffffffffffffffffffffffffffffffffff168173ffffffffffffffffffffffffffffffffffffffff16837f2f8788117e7eff1d82e926ec794901d17c78024a50270940304540a733656f0d60405160405180910390a45b5050565b6133678282612018565b1561343b5760006005600084815260200190815260200160002060000160008373ffffffffffffffffffffffffffffffffffffffff1673ffffffffffffffffffffffffffffffffffffffff16815260200190815260200160002060006101000a81548160ff0219169083151502179055506133e0612d8a565b73ffffffffffffffffffffffffffffffffffffffff168173ffffffffffffffffffffffffffffffffffffffff16837ff6391f5c32d9c69d2a47ea670b442974b53935d1edc7fd64eb21e047a839171b60405160405180910390a45b5050565b600073ffffffffffffffffffffffffffffffffffffffff168273ffffffffffffffffffffffffffffffffffffffff1614156134af576040517f08c379a00000000000000000000000000000000000000000000000000000000081526004016134a690614858565b60405180910390fd5b6134bb60008383613776565b80600260008282546134cd919061498f565b92505081905550806000808473ffffffffffffffffffffffffffffffffffffffff1673ffffffffffffffffffffffffffffffffffffffff1681526020019081526020016000206000828254613522919061498f565b925050819055508173ffffffffffffffffffffffffffffffffffffffff16600073ffffffffffffffffffffffffffffffffffffffff167fddf252ad1be2c89b69c2b068fc378daa952ba7f163c4a11628f55a4df523b3ef836040516135879190614878565b60405180910390a361359b60008383613832565b5050565b600073ffffffffffffffffffffffffffffffffffffffff168273ffffffffffffffffffffffffffffffffffffffff16141561360f576040517f08c379a000000000000000000000000000000000000000000000000000000000815260040161360690614758565b60405180910390fd5b61361b82600083613776565b60008060008473ffffffffffffffffffffffffffffffffffffffff1673ffffffffffffffffffffffffffffffffffffffff168152602001908152602001600020549050818110156136a1576040517f08c379a000000000000000000000000000000000000000000000000000000000815260040161369890614698565b60405180910390fd5b8181036000808573ffffffffffffffffffffffffffffffffffffffff1673ffffffffffffffffffffffffffffffffffffffff1681526020019081526020016000208190555081600260008282546136f89190614bb0565b92505081905550600073ffffffffffffffffffffffffffffffffffffffff168373ffffffffffffffffffffffffffffffffffffffff167fddf252ad1be2c89b69c2b068fc378daa952ba7f163c4a11628f55a4df523b3ef8460405161375d9190614878565b60405180910390a361377183600084613832565b505050565b613781838383612d1b565b6007829080600181540180825580915050600190039060005260206000200160009091909190916101000a81548173ffffffffffffffffffffffffffffffffffffffff021916908373ffffffffffffffffffffffffffffffffffffffff1602179055506137ee8233613837565b61382d576040517f08c379a0000000000000000000000000000000000000000000000000000000008152600401613824906147d8565b60405180910390fd5b505050565b505050565b600080600d54141561384c57600190506138f2565b6138767f7a05a596cb0ce7fdea8a1e1ec73be300bdb35097c944ce1897202f7a13122eb283612018565b1561388457600190506138f2565b6138ae7f37869509cd177be1dff4623c455e0f6e991f086eada4aa4d62043ed390ec307884612018565b6138ed576040517f08c379a00000000000000000000000000000000000000000000000000000000081526004016138e4906146f8565b60405180910390fd5b600190505b92915050565b82805461390490614cdb565b90600052602060002090601f016020900481019282613926576000855561396d565b82601f1061393f57805160ff191683800117855561396d565b8280016001018555821561396d579182015b8281111561396c578251825591602001919060010190613951565b5b50905061397a919061397e565b5090565b5b8082111561399757600081600090555060010161397f565b5090565b60006139ae6139a9846148df565b6148ae565b9050828152602081018484840111156139c657600080fd5b6139d1848285614c6f565b509392505050565b6000813590506139e881614e01565b92915050565b6000815190506139fd81614e18565b92915050565b600081359050613a1281614e2f565b92915050565b600081359050613a2781614e46565b92915050565b600082601f830112613a3e57600080fd5b8135613a4e84826020860161399b565b91505092915050565b600081359050613a6681614e5d565b92915050565b600081519050613a7b81614e5d565b92915050565b600060208284031215613a9357600080fd5b6000613aa1848285016139d9565b91505092915050565b60008060408385031215613abd57600080fd5b6000613acb858286016139d9565b9250506020613adc858286016139d9565b9150509250929050565b600080600060608486031215613afb57600080fd5b6000613b09868287016139d9565b9350506020613b1a868287016139d9565b9250506040613b2b86828701613a57565b9150509250925092565b60008060408385031215613b4857600080fd5b6000613b56858286016139d9565b9250506020613b6785828601613a57565b9150509250929050565b600060208284031215613b8357600080fd5b6000613b91848285016139ee565b91505092915050565b600060208284031215613bac57600080fd5b6000613bba84828501613a03565b91505092915050565b60008060408385031215613bd657600080fd5b6000613be485828601613a03565b9250506020613bf5858286016139d9565b9150509250929050565b600060208284031215613c1157600080fd5b6000613c1f84828501613a18565b91505092915050565b600060208284031215613c3a57600080fd5b600082013567ffffffffffffffff811115613c5457600080fd5b613c6084828501613a2d565b91505092915050565b600060208284031215613c7b57600080fd5b6000613c8984828501613a57565b91505092915050565b600060208284031215613ca457600080fd5b6000613cb284828501613a6c565b91505092915050565b60008060408385031215613cce57600080fd5b6000613cdc85828601613a57565b9250506020613ced858286016139d9565b9150509250929050565b6000613d038383613d0f565b60208301905092915050565b613d1881614be4565b82525050565b613d2781614be4565b82525050565b6000613d3882614934565b613d428185614957565b9350613d4d8361490f565b8060005b83811015613d7e578151613d658882613cf7565b9750613d708361494a565b925050600181019050613d51565b5085935050505092915050565b613d9481614bf6565b82525050565b613da381614c02565b82525050565b60008154613db681614cdb565b613dc08186614968565b94506001821660008114613ddb5760018114613dec57613e1f565b60ff19831686528186019350613e1f565b613df58561491f565b60005b83811015613e1757815481890152600182019150602081019050613df8565b838801955050505b50505092915050565b6000613e338261493f565b613e3d8185614973565b9350613e4d818560208601614c7e565b613e5681614de3565b840191505092915050565b6000613e6c8261493f565b613e768185614984565b9350613e86818560208601614c7e565b80840191505092915050565b6000613e9f602083614973565b91507f537472696e67733a20686578206c656e67746820696e73756666696369656e746000830152602082019050919050565b6000613edf602383614973565b91507f45524332303a207472616e7366657220746f20746865207a65726f206164647260008301527f65737300000000000000000000000000000000000000000000000000000000006020830152604082019050919050565b6000613f45602283614973565b91507f45524332303a206275726e20616d6f756e7420657863656564732062616c616e60008301527f63650000000000000000000000000000000000000000000000000000000000006020830152604082019050919050565b6000613fab602283614973565b91507f45524332303a20617070726f766520746f20746865207a65726f20616464726560008301527f73730000000000000000000000000000000000000000000000000000000000006020830152604082019050919050565b6000614011602683614973565b91507f45524332303a207472616e7366657220616d6f756e742065786365656473206260008301527f616c616e636500000000000000000000000000000000000000000000000000006020830152604082019050919050565b6000614077601e83614973565b91507f526563697069656e7420646f6573206e6f7420686176652061636365737300006000830152602082019050919050565b60006140b7600e83614973565b91507f4e6f742061206f70657261746f720000000000000000000000000000000000006000830152602082019050919050565b60006140f7602883614973565b91507f45524332303a207472616e7366657220616d6f756e742065786365656473206160008301527f6c6c6f77616e63650000000000000000000000000000000000000000000000006020830152604082019050919050565b600061415d602183614973565b91507f45524332303a206275726e2066726f6d20746865207a65726f2061646472657360008301527f73000000000000000000000000000000000000000000000000000000000000006020830152604082019050919050565b60006141c3602583614973565b91507f45524332303a207472616e736665722066726f6d20746865207a65726f20616460008301527f64726573730000000000000000000000000000000000000000000000000000006020830152604082019050919050565b6000614229600c83614973565b91507f4e6f742061206d696e74657200000000000000000000000000000000000000006000830152602082019050919050565b6000614269602483614973565b91507f45524332303a20617070726f76652066726f6d20746865207a65726f2061646460008301527f72657373000000000000000000000000000000000000000000000000000000006020830152604082019050919050565b60006142cf601783614984565b91507f416363657373436f6e74726f6c3a206163636f756e74200000000000000000006000830152601782019050919050565b600061430f602883614973565b91507f455243323057697468536166655472616e736665723a20696e76616c6964207260008301527f6563697069656e740000000000000000000000000000000000000000000000006020830152604082019050919050565b6000614375600f83614973565b91507f4e6f74206174206d6174757269747900000000000000000000000000000000006000830152602082019050919050565b60006143b5602583614973565b91507f45524332303a2064656372656173656420616c6c6f77616e63652062656c6f7760008301527f207a65726f0000000000000000000000000000000000000000000000000000006020830152604082019050919050565b600061441b601183614984565b91507f206973206d697373696e6720726f6c65200000000000000000000000000000006000830152601182019050919050565b600061445b602f83614973565b91507f416363657373436f6e74726f6c3a2063616e206f6e6c792072656e6f756e636560008301527f20726f6c657320666f722073656c6600000000000000000000000000000000006020830152604082019050919050565b60006144c1601f83614973565b91507f45524332303a206d696e7420746f20746865207a65726f2061646472657373006000830152602082019050919050565b6144fd81614c58565b82525050565b61450c81614c62565b82525050565b600061451e8284613da9565b915081905092915050565b6000614534826142c2565b91506145408285613e61565b915061454b8261440e565b91506145578284613e61565b91508190509392505050565b60006020820190506145786000830184613d1e565b92915050565b60006060820190506145936000830186613d1e565b6145a06020830185613d1e565b6145ad60408301846144f4565b949350505050565b60006040820190506145ca6000830185613d1e565b6145d760208301846144f4565b9392505050565b600060208201905081810360008301526145f88184613d2d565b905092915050565b60006020820190506146156000830184613d8b565b92915050565b60006020820190506146306000830184613d9a565b92915050565b600060208201905081810360008301526146508184613e28565b905092915050565b6000602082019050818103600083015261467181613e92565b9050919050565b6000602082019050818103600083015261469181613ed2565b9050919050565b600060208201905081810360008301526146b181613f38565b9050919050565b600060208201905081810360008301526146d181613f9e565b9050919050565b600060208201905081810360008301526146f181614004565b9050919050565b600060208201905081810360008301526147118161406a565b9050919050565b60006020820190508181036000830152614731816140aa565b9050919050565b60006020820190508181036000830152614751816140ea565b9050919050565b6000602082019050818103600083015261477181614150565b9050919050565b60006020820190508181036000830152614791816141b6565b9050919050565b600060208201905081810360008301526147b18161421c565b9050919050565b600060208201905081810360008301526147d18161425c565b9050919050565b600060208201905081810360008301526147f181614302565b9050919050565b6000602082019050818103600083015261481181614368565b9050919050565b60006020820190508181036000830152614831816143a8565b9050919050565b600060208201905081810360008301526148518161444e565b9050919050565b60006020820190508181036000830152614871816144b4565b9050919050565b600060208201905061488d60008301846144f4565b92915050565b60006020820190506148a86000830184614503565b92915050565b6000604051905081810181811067ffffffffffffffff821117156148d5576148d4614db4565b5b8060405250919050565b600067ffffffffffffffff8211156148fa576148f9614db4565b5b601f19601f8301169050602081019050919050565b6000819050602082019050919050565b60008190508160005260206000209050919050565b600081519050919050565b600081519050919050565b6000602082019050919050565b600082825260208201905092915050565b600081905092915050565b600082825260208201905092915050565b600081905092915050565b600061499a82614c58565b91506149a583614c58565b9250827fffffffffffffffffffffffffffffffffffffffffffffffffffffffffffffffff038211156149da576149d9614d56565b5b828201905092915050565b6000808291508390505b6001851115614a2f57808604811115614a0b57614a0a614d56565b5b6001851615614a1a5780820291505b8081029050614a2885614df4565b94506149ef565b94509492505050565b6000614a4382614c58565b9150614a4e83614c58565b9250614a7b7fffffffffffffffffffffffffffffffffffffffffffffffffffffffffffffffff8484614a83565b905092915050565b600082614a935760019050614b4f565b81614aa15760009050614b4f565b8160018114614ab75760028114614ac157614af0565b6001915050614b4f565b60ff841115614ad357614ad2614d56565b5b8360020a915084821115614aea57614ae9614d56565b5b50614b4f565b5060208310610133831016604e8410600b8410161715614b255782820a905083811115614b2057614b1f614d56565b5b614b4f565b614b3284848460016149e5565b92509050818404811115614b4957614b48614d56565b5b81810290505b9392505050565b6000614b6182614c58565b9150614b6c83614c58565b9250817fffffffffffffffffffffffffffffffffffffffffffffffffffffffffffffffff0483118215151615614ba557614ba4614d56565b5b828202905092915050565b6000614bbb82614c58565b9150614bc683614c58565b925082821015614bd957614bd8614d56565b5b828203905092915050565b6000614bef82614c38565b9050919050565b60008115159050919050565b6000819050919050565b60007fffffffff0000000000000000000000000000000000000000000000000000000082169050919050565b600073ffffffffffffffffffffffffffffffffffffffff82169050919050565b6000819050919050565b600060ff82169050919050565b82818337600083830152505050565b60005b83811015614c9c578082015181840152602081019050614c81565b83811115614cab576000848401525b50505050565b6000614cbc82614c58565b91506000821415614cd057614ccf614d56565b5b600182039050919050565b60006002820490506001821680614cf357607f821691505b60208210811415614d0757614d06614d85565b5b50919050565b6000614d1882614c58565b91507fffffffffffffffffffffffffffffffffffffffffffffffffffffffffffffffff821415614d4b57614d4a614d56565b5b600182019050919050565b7f4e487b7100000000000000000000000000000000000000000000000000000000600052601160045260246000fd5b7f4e487b7100000000000000000000000000000000000000000000000000000000600052602260045260246000fd5b7f4e487b7100000000000000000000000000000000000000000000000000000000600052604160045260246000fd5b6000601f19601f8301169050919050565b6000600282049050919050565b614e0a81614be4565b8114614e1557600080fd5b50565b614e2181614bf6565b8114614e2c57600080fd5b50565b614e3881614c02565b8114614e4357600080fd5b50565b614e4f81614c0c565b8114614e5a57600080fd5b50565b614e6681614c58565b8114614e7157600080fd5b5056fea26469706673582212202b0fad60e45290a6d345d9482fe311ef1c3d41177f2b385d8c1e116409f380cc64736f6c63430008000033a2646970667358221220e68ccb248734d5210694b08cdd6aa16b65145d9cdef575b5e6d6b32d9bfb33e164736f6c63430008000033",
  "immutableReferences": {},
  "source": "// SPDX-License-Identifier: MIT\npragma solidity ^0.8.0;\n\nimport \"./DestinationBondToken.sol\";\nimport \"@openzeppelin/contracts/token/ERC20/ERC20.sol\";\n\n/**\n * @title TokenVaultManager\n * @dev Token vault service.\n */\ncontract DesinationTokenManager {\n    mapping(address => address[]) public vaultLookup;\n\n    /**\n     * @dev Constructor sets token that can be received\n     */\n    constructor() {}\n\n    function getTokenByVault(address vault)\n        public\n        view\n        returns (address[] memory)\n    {\n        return vaultLookup[vault];\n    }\n\n    function deployDestinationToken(\n        address vaultAddress,\n        string memory tokenName,\n        string memory tokenSymbol,\n        string memory metadata,\n        uint256 supply,\n        address owner,\n        uint256 maturity\n    ) public {\n        address newToken = address(\n            new DestinationBondToken(\n                tokenName,\n                tokenSymbol,\n                metadata,\n                supply,\n                owner,\n                maturity\n            )\n        );\n        vaultLookup[vaultAddress].push(newToken);\n    }\n}\n",
  "sourcePath": "/Users/charlespacker/alloyx_smart_contracts/contracts/DestinationTokenManager.sol",
  "compiler": {
    "name": "solc",
    "version": "0.8.0+commit.c7dfd78e.Emscripten.clang"
  },
  "schemaVersion": "3.4.3",
  "updatedAt": "2021-09-04T01:34:57.492Z",
  "networkType": "ethereum",
  "devdoc": {
    "details": "Token vault service.",
    "kind": "dev",
    "methods": {
      "constructor": {
        "details": "Constructor sets token that can be received"
      }
    },
    "title": "TokenVaultManager",
    "version": 1
  },
  "userdoc": {
    "kind": "user",
    "methods": {},
    "version": 1
  }
}