{
  "contractName": "DestinationBondToken",
  "abi": [
    {
      "inputs": [
        {
          "internalType": "string",
          "name": "tokenName",
          "type": "string"
        },
        {
          "internalType": "string",
          "name": "tokenSymbol",
          "type": "string"
        },
        {
          "internalType": "string",
          "name": "metadata",
          "type": "string"
        },
        {
          "internalType": "uint256",
          "name": "supply",
          "type": "uint256"
        },
        {
          "internalType": "address",
          "name": "sender",
          "type": "address"
        },
        {
          "internalType": "uint256",
          "name": "maturity",
          "type": "uint256"
        }
      ],
      "stateMutability": "nonpayable",
      "type": "constructor"
    },
    {
      "anonymous": false,
      "inputs": [
        {
          "indexed": true,
          "internalType": "address",
          "name": "owner",
          "type": "address"
        },
        {
          "indexed": true,
          "internalType": "address",
          "name": "spender",
          "type": "address"
        },
        {
          "indexed": false,
          "internalType": "uint256",
          "name": "value",
          "type": "uint256"
        }
      ],
      "name": "Approval",
      "type": "event"
    },
    {
      "anonymous": false,
      "inputs": [
        {
          "indexed": true,
          "internalType": "bytes32",
          "name": "role",
          "type": "bytes32"
        },
        {
          "indexed": true,
          "internalType": "bytes32",
          "name": "previousAdminRole",
          "type": "bytes32"
        },
        {
          "indexed": true,
          "internalType": "bytes32",
          "name": "newAdminRole",
          "type": "bytes32"
        }
      ],
      "name": "RoleAdminChanged",
      "type": "event"
    },
    {
      "anonymous": false,
      "inputs": [
        {
          "indexed": true,
          "internalType": "bytes32",
          "name": "role",
          "type": "bytes32"
        },
        {
          "indexed": true,
          "internalType": "address",
          "name": "account",
          "type": "address"
        },
        {
          "indexed": true,
          "internalType": "address",
          "name": "sender",
          "type": "address"
        }
      ],
      "name": "RoleGranted",
      "type": "event"
    },
    {
      "anonymous": false,
      "inputs": [
        {
          "indexed": true,
          "internalType": "bytes32",
          "name": "role",
          "type": "bytes32"
        },
        {
          "indexed": true,
          "internalType": "address",
          "name": "account",
          "type": "address"
        },
        {
          "indexed": true,
          "internalType": "address",
          "name": "sender",
          "type": "address"
        }
      ],
      "name": "RoleRevoked",
      "type": "event"
    },
    {
      "anonymous": false,
      "inputs": [
        {
          "indexed": true,
          "internalType": "address",
          "name": "from",
          "type": "address"
        },
        {
          "indexed": true,
          "internalType": "address",
          "name": "to",
          "type": "address"
        },
        {
          "indexed": false,
          "internalType": "uint256",
          "name": "value",
          "type": "uint256"
        }
      ],
      "name": "Transfer",
      "type": "event"
    },
    {
      "inputs": [],
      "name": "DEFAULT_ADMIN_ROLE",
      "outputs": [
        {
          "internalType": "bytes32",
          "name": "",
          "type": "bytes32"
        }
      ],
      "stateMutability": "view",
      "type": "function"
    },
    {
      "inputs": [],
      "name": "MINTER_ROLE",
      "outputs": [
        {
          "internalType": "bytes32",
          "name": "",
          "type": "bytes32"
        }
      ],
      "stateMutability": "view",
      "type": "function"
    },
    {
      "inputs": [],
      "name": "ROUTER_ROLE",
      "outputs": [
        {
          "internalType": "bytes32",
          "name": "",
          "type": "bytes32"
        }
      ],
      "stateMutability": "view",
      "type": "function"
    },
    {
      "inputs": [],
      "name": "VALT_OPERATOR",
      "outputs": [
        {
          "internalType": "bytes32",
          "name": "",
          "type": "bytes32"
        }
      ],
      "stateMutability": "view",
      "type": "function"
    },
    {
      "inputs": [],
      "name": "WHITELISTED_HOLDER_ROLE",
      "outputs": [
        {
          "internalType": "bytes32",
          "name": "",
          "type": "bytes32"
        }
      ],
      "stateMutability": "view",
      "type": "function"
    },
    {
      "inputs": [
        {
          "internalType": "address",
          "name": "owner",
          "type": "address"
        },
        {
          "internalType": "address",
          "name": "spender",
          "type": "address"
        }
      ],
      "name": "allowance",
      "outputs": [
        {
          "internalType": "uint256",
          "name": "",
          "type": "uint256"
        }
      ],
      "stateMutability": "view",
      "type": "function"
    },
    {
      "inputs": [
        {
          "internalType": "address",
          "name": "spender",
          "type": "address"
        },
        {
          "internalType": "uint256",
          "name": "amount",
          "type": "uint256"
        }
      ],
      "name": "approve",
      "outputs": [
        {
          "internalType": "bool",
          "name": "",
          "type": "bool"
        }
      ],
      "stateMutability": "nonpayable",
      "type": "function"
    },
    {
      "inputs": [
        {
          "internalType": "address",
          "name": "account",
          "type": "address"
        }
      ],
      "name": "balanceOf",
      "outputs": [
        {
          "internalType": "uint256",
          "name": "",
          "type": "uint256"
        }
      ],
      "stateMutability": "view",
      "type": "function"
    },
    {
      "inputs": [],
      "name": "contractMetadata",
      "outputs": [
        {
          "internalType": "string",
          "name": "",
          "type": "string"
        }
      ],
      "stateMutability": "view",
      "type": "function"
    },
    {
      "inputs": [],
      "name": "decimals",
      "outputs": [
        {
          "internalType": "uint8",
          "name": "",
          "type": "uint8"
        }
      ],
      "stateMutability": "view",
      "type": "function"
    },
    {
      "inputs": [
        {
          "internalType": "address",
          "name": "spender",
          "type": "address"
        },
        {
          "internalType": "uint256",
          "name": "subtractedValue",
          "type": "uint256"
        }
      ],
      "name": "decreaseAllowance",
      "outputs": [
        {
          "internalType": "bool",
          "name": "",
          "type": "bool"
        }
      ],
      "stateMutability": "nonpayable",
      "type": "function"
    },
    {
      "inputs": [
        {
          "internalType": "bytes32",
          "name": "role",
          "type": "bytes32"
        }
      ],
      "name": "getRoleAdmin",
      "outputs": [
        {
          "internalType": "bytes32",
          "name": "",
          "type": "bytes32"
        }
      ],
      "stateMutability": "view",
      "type": "function"
    },
    {
      "inputs": [
        {
          "internalType": "bytes32",
          "name": "role",
          "type": "bytes32"
        },
        {
          "internalType": "address",
          "name": "account",
          "type": "address"
        }
      ],
      "name": "grantRole",
      "outputs": [],
      "stateMutability": "nonpayable",
      "type": "function"
    },
    {
      "inputs": [
        {
          "internalType": "bytes32",
          "name": "role",
          "type": "bytes32"
        },
        {
          "internalType": "address",
          "name": "account",
          "type": "address"
        }
      ],
      "name": "hasRole",
      "outputs": [
        {
          "internalType": "bool",
          "name": "",
          "type": "bool"
        }
      ],
      "stateMutability": "view",
      "type": "function"
    },
    {
      "inputs": [
        {
          "internalType": "address",
          "name": "spender",
          "type": "address"
        },
        {
          "internalType": "uint256",
          "name": "addedValue",
          "type": "uint256"
        }
      ],
      "name": "increaseAllowance",
      "outputs": [
        {
          "internalType": "bool",
          "name": "",
          "type": "bool"
        }
      ],
      "stateMutability": "nonpayable",
      "type": "function"
    },
    {
      "inputs": [],
      "name": "isWhitelistEnabled",
      "outputs": [
        {
          "internalType": "uint256",
          "name": "",
          "type": "uint256"
        }
      ],
      "stateMutability": "view",
      "type": "function"
    },
    {
      "inputs": [],
      "name": "name",
      "outputs": [
        {
          "internalType": "string",
          "name": "",
          "type": "string"
        }
      ],
      "stateMutability": "view",
      "type": "function"
    },
    {
      "inputs": [],
      "name": "owner",
      "outputs": [
        {
          "internalType": "address",
          "name": "",
          "type": "address"
        }
      ],
      "stateMutability": "view",
      "type": "function"
    },
    {
      "inputs": [
        {
          "internalType": "bytes32",
          "name": "role",
          "type": "bytes32"
        },
        {
          "internalType": "address",
          "name": "account",
          "type": "address"
        }
      ],
      "name": "renounceRole",
      "outputs": [],
      "stateMutability": "nonpayable",
      "type": "function"
    },
    {
      "inputs": [
        {
          "internalType": "bytes32",
          "name": "role",
          "type": "bytes32"
        },
        {
          "internalType": "address",
          "name": "account",
          "type": "address"
        }
      ],
      "name": "revokeRole",
      "outputs": [],
      "stateMutability": "nonpayable",
      "type": "function"
    },
    {
      "inputs": [
        {
          "internalType": "bytes4",
          "name": "interfaceId",
          "type": "bytes4"
        }
      ],
      "name": "supportsInterface",
      "outputs": [
        {
          "internalType": "bool",
          "name": "",
          "type": "bool"
        }
      ],
      "stateMutability": "view",
      "type": "function"
    },
    {
      "inputs": [],
      "name": "symbol",
      "outputs": [
        {
          "internalType": "string",
          "name": "",
          "type": "string"
        }
      ],
      "stateMutability": "view",
      "type": "function"
    },
    {
      "inputs": [],
      "name": "totalSupply",
      "outputs": [
        {
          "internalType": "uint256",
          "name": "",
          "type": "uint256"
        }
      ],
      "stateMutability": "view",
      "type": "function"
    },
    {
      "inputs": [
        {
          "internalType": "address",
          "name": "recipient",
          "type": "address"
        },
        {
          "internalType": "uint256",
          "name": "amount",
          "type": "uint256"
        }
      ],
      "name": "transfer",
      "outputs": [
        {
          "internalType": "bool",
          "name": "",
          "type": "bool"
        }
      ],
      "stateMutability": "nonpayable",
      "type": "function"
    },
    {
      "inputs": [
        {
          "internalType": "address",
          "name": "sender",
          "type": "address"
        },
        {
          "internalType": "address",
          "name": "recipient",
          "type": "address"
        },
        {
          "internalType": "uint256",
          "name": "amount",
          "type": "uint256"
        }
      ],
      "name": "transferFrom",
      "outputs": [
        {
          "internalType": "bool",
          "name": "",
          "type": "bool"
        }
      ],
      "stateMutability": "nonpayable",
      "type": "function"
    },
    {
      "inputs": [],
      "name": "vaultMaturity",
      "outputs": [
        {
          "internalType": "uint256",
          "name": "",
          "type": "uint256"
        }
      ],
      "stateMutability": "view",
      "type": "function"
    },
    {
      "inputs": [
        {
          "internalType": "string",
          "name": "newData",
          "type": "string"
        }
      ],
      "name": "updateContractMetadata",
      "outputs": [],
      "stateMutability": "nonpayable",
      "type": "function"
    },
    {
      "inputs": [
        {
          "internalType": "uint256",
          "name": "newValue",
          "type": "uint256"
        }
      ],
      "name": "enableWhitelist",
      "outputs": [],
      "stateMutability": "nonpayable",
      "type": "function"
    },
    {
      "inputs": [],
      "name": "checkWhitelist",
      "outputs": [
        {
          "internalType": "uint256",
          "name": "",
          "type": "uint256"
        }
      ],
      "stateMutability": "view",
      "type": "function"
    },
    {
      "inputs": [
        {
          "internalType": "address",
          "name": "to",
          "type": "address"
        },
        {
          "internalType": "uint256",
          "name": "amount",
          "type": "uint256"
        }
      ],
      "name": "mint",
      "outputs": [],
      "stateMutability": "nonpayable",
      "type": "function"
    },
    {
      "inputs": [
        {
          "internalType": "address",
          "name": "user",
          "type": "address"
        }
      ],
      "name": "getRedemptionAvailableForUser",
      "outputs": [
        {
          "internalType": "uint256",
          "name": "",
          "type": "uint256"
        }
      ],
      "stateMutability": "view",
      "type": "function"
    },
    {
      "inputs": [
        {
          "internalType": "address",
          "name": "rewardToken",
          "type": "address"
        },
        {
          "internalType": "address",
          "name": "user",
          "type": "address"
        }
      ],
      "name": "getRedemptionAmount",
      "outputs": [
        {
          "internalType": "uint256",
          "name": "",
          "type": "uint256"
        }
      ],
      "stateMutability": "view",
      "type": "function"
    },
    {
      "inputs": [
        {
          "internalType": "address",
          "name": "rewardToken",
          "type": "address"
        },
        {
          "internalType": "address",
          "name": "user",
          "type": "address"
        }
      ],
      "name": "getRedemptionStatus",
      "outputs": [
        {
          "internalType": "string",
          "name": "",
          "type": "string"
        }
      ],
      "stateMutability": "view",
      "type": "function"
    },
    {
      "inputs": [
        {
          "internalType": "uint256",
          "name": "amount",
          "type": "uint256"
        },
        {
          "internalType": "address",
          "name": "forUser",
          "type": "address"
        }
      ],
      "name": "startRedeem",
      "outputs": [],
      "stateMutability": "nonpayable",
      "type": "function"
    },
    {
      "inputs": [
        {
          "internalType": "address",
          "name": "user",
          "type": "address"
        },
        {
          "internalType": "address",
          "name": "rewardToken",
          "type": "address"
        },
        {
          "internalType": "uint256",
          "name": "amount",
          "type": "uint256"
        }
      ],
      "name": "approveRedemption",
      "outputs": [],
      "stateMutability": "nonpayable",
      "type": "function"
    },
    {
      "inputs": [
        {
          "internalType": "uint256",
          "name": "amount",
          "type": "uint256"
        },
        {
          "internalType": "address",
          "name": "account",
          "type": "address"
        }
      ],
      "name": "markRedeemed",
      "outputs": [],
      "stateMutability": "nonpayable",
      "type": "function"
    },
    {
      "inputs": [],
      "name": "getStableCoins",
      "outputs": [
        {
          "internalType": "address[]",
          "name": "",
          "type": "address[]"
        }
      ],
      "stateMutability": "view",
      "type": "function"
    },
    {
      "inputs": [],
      "name": "getTokenHolders",
      "outputs": [
        {
          "internalType": "address[]",
          "name": "",
          "type": "address[]"
        }
      ],
      "stateMutability": "view",
      "type": "function"
    },
    {
      "inputs": [
        {
          "internalType": "address",
          "name": "newToken",
          "type": "address"
        }
      ],
      "name": "addToStableCoins",
      "outputs": [],
      "stateMutability": "nonpayable",
      "type": "function"
    },
    {
      "inputs": [
        {
          "internalType": "address",
          "name": "rewardToken",
          "type": "address"
        }
      ],
      "name": "getTokenVaultBalance",
      "outputs": [
        {
          "internalType": "uint256",
          "name": "",
          "type": "uint256"
        }
      ],
      "stateMutability": "view",
      "type": "function"
    },
    {
      "inputs": [
        {
          "internalType": "address",
          "name": "rewardToken",
          "type": "address"
        },
        {
          "internalType": "uint256",
          "name": "amount",
          "type": "uint256"
        }
      ],
      "name": "depositIntoStableCoin",
      "outputs": [],
      "stateMutability": "nonpayable",
      "type": "function"
    },
    {
      "inputs": [
        {
          "internalType": "address",
          "name": "rewardToken",
          "type": "address"
        },
        {
          "internalType": "address",
          "name": "tokenHolder",
          "type": "address"
        }
      ],
      "name": "redeemFromStableCoin",
      "outputs": [],
      "stateMutability": "nonpayable",
      "type": "function"
    }
  ],
  "bytecode": "0x6000600c81905560a0604081905260808290526200002191600d919062000901565b503480156200002f57600080fd5b506040516200422738038062004227833981016040819052620000529162000a30565b8551869086906200006b90600390602085019062000901565b5080516200008190600490602084019062000901565b5050600a8054600160a060020a0319163317905550600f839055600b8190558351620000b590600d90602087019062000901565b50600a54620000d990600090600160a060020a0316640100000000620001b6810204565b620000fd6000805160206200420783398151915283640100000000620001cf810204565b620001327f9f2df0fed2c77648de5860a4cc508cd0818c85b8b8a1ab4ceeef8d981c8956a683640100000000620001cf810204565b620001677fc5c92f39ffa8f1471a82cf301c1391bf96d83f010965a4bb1af353359e80b24783640100000000620001cf810204565b620001aa826200017f64010000000062000224810204565b6200018f9060ff16600a62000d1f565b6200019b908662000e07565b64010000000062000229810204565b50505050505062000f2a565b620001cb828264010000000062000333810204565b5050565b620001e382640100000000620003d1810204565b6200020a81620001fb640100000000620003e6810204565b640100000000620003ea810204565b6200021f838364010000000062000333810204565b505050565b601290565b600160a060020a03821662000275576040517f08c379a00000000000000000000000000000000000000000000000000000000081526004016200026c9062000c75565b60405180910390fd5b6200028c6000838364010000000062000498810204565b8060026000828254620002a0919062000cb5565b9091555050600160a060020a03821660009081526020819052604081208054839290620002cf90849062000cb5565b9091555050604051600160a060020a038316906000907fddf252ad1be2c89b69c2b068fc378daa952ba7f163c4a11628f55a4df523b3ef906200031490859062000cac565b60405180910390a3620001cb600083836401000000006200021f810204565b6200034882826401000000006200054c810204565b620001cb576000828152600560209081526040808320600160a060020a03851684529091529020805460ff191660011790556200038d640100000000620003e6810204565b600160a060020a031681600160a060020a0316837f2f8788117e7eff1d82e926ec794901d17c78024a50270940304540a733656f0d60405160405180910390a45050565b60009081526005602052604090206001015490565b3390565b620003ff82826401000000006200054c810204565b620001cb5762000428600160a060020a038216601464010000000062001cb36200057982021704565b6200044383602064010000000062001cb36200057982021704565b6040516020016200045692919062000af2565b60408051601f19818403018152908290527f08c379a00000000000000000000000000000000000000000000000000000000082526200026c9160040162000b77565b620004b383838364010000000062000cd86200021f82021704565b600780546001810182556000919091527fa66cc928b5edb82af9bd49922954155ab7b0942694bea4ce44661d9a8736c688018054600160a060020a031916600160a060020a03841617905562000513823364010000000062000840810204565b6200021f576040517f08c379a00000000000000000000000000000000000000000000000000000000081526004016200026c9062000c18565b6000828152600560209081526040808320600160a060020a038516845290915290205460ff165b92915050565b606060006200058a83600262000e07565b6200059790600262000cb5565b6001604060020a03811115620005d6577f4e487b7100000000000000000000000000000000000000000000000000000000600052604160045260246000fd5b6040519080825280601f01601f19166020018201604052801562000601576020820181803683370190505b5090507f30000000000000000000000000000000000000000000000000000000000000008160008151811062000660577f4e487b7100000000000000000000000000000000000000000000000000000000600052603260045260246000fd5b6020010190600160f860020a031916908160001a9053507f780000000000000000000000000000000000000000000000000000000000000081600181518110620006d3577f4e487b7100000000000000000000000000000000000000000000000000000000600052603260045260246000fd5b6020010190600160f860020a031916908160001a9053506000620006f984600262000e07565b6200070690600162000cb5565b90505b6001811115620007fd577f303132333435363738396162636465660000000000000000000000000000000085600f166010811062000770577f4e487b7100000000000000000000000000000000000000000000000000000000600052603260045260246000fd5b1a7f010000000000000000000000000000000000000000000000000000000000000002828281518110620007cd577f4e487b7100000000000000000000000000000000000000000000000000000000600052603260045260246000fd5b6020010190600160f860020a031916908160001a905350601090940493620007f58162000e5c565b905062000709565b50831562000839576040517f08c379a00000000000000000000000000000000000000000000000000000000081526004016200026c9062000bac565b9392505050565b6000600c5460001415620008575750600162000573565b6200088c7f7a05a596cb0ce7fdea8a1e1ec73be300bdb35097c944ce1897202f7a13122eb2836401000000006200054c810204565b156200089b5750600162000573565b620008bf60008051602062004207833981519152846401000000006200054c810204565b620008f8576040517f08c379a00000000000000000000000000000000000000000000000000000000081526004016200026c9062000be1565b50600192915050565b8280546200090f9062000e76565b90600052602060002090601f0160209004810192826200093357600085556200097e565b82601f106200094e57805160ff19168380011785556200097e565b828001600101855582156200097e579182015b828111156200097e57825182559160200191906001019062000961565b506200098c92915062000990565b5090565b5b808211156200098c576000815560010162000991565b600082601f830112620009b8578081fd5b81516001604060020a0380821115620009d557620009d562000efb565b604051601f8301601f191681016020018281118282101715620009fc57620009fc62000efb565b60405282815284830160200186101562000a14578384fd5b62000a2783602083016020880162000e29565b95945050505050565b60008060008060008060c0878903121562000a49578182fd5b86516001604060020a038082111562000a60578384fd5b62000a6e8a838b01620009a7565b9750602089015191508082111562000a84578384fd5b62000a928a838b01620009a7565b9650604089015191508082111562000aa8578384fd5b5062000ab789828a01620009a7565b606089015160808a015191965094509050600160a060020a038116811462000add578283fd5b8092505060a087015190509295509295509295565b60007f416363657373436f6e74726f6c3a206163636f756e74200000000000000000008252835162000b2c81601785016020880162000e29565b7f206973206d697373696e6720726f6c6520000000000000000000000000000000601791840191820152835162000b6b81602884016020880162000e29565b01602801949350505050565b600060208252825180602084015262000b9881604085016020870162000e29565b601f01601f19169190910160400192915050565b6020808252818101527f537472696e67733a20686578206c656e67746820696e73756666696369656e74604082015260600190565b6020808252601e908201527f526563697069656e7420646f6573206e6f742068617665206163636573730000604082015260600190565b60208082526028908201527f455243323057697468536166655472616e736665723a20696e76616c6964207260408201527f6563697069656e74000000000000000000000000000000000000000000000000606082015260800190565b6020808252601f908201527f45524332303a206d696e7420746f20746865207a65726f206164647265737300604082015260600190565b90815260200190565b6000821982111562000ccb5762000ccb62000ecc565b500190565b80825b600180861162000ce4575062000d16565b81870482111562000cf95762000cf962000ecc565b8086161562000d0757918102915b50600290940493800262000cd3565b94509492505050565b600062000839600019848460008262000d3b5750600162000839565b8162000d4a5750600062000839565b816001811462000d63576002811462000d6e5762000da2565b600191505062000839565b60ff84111562000d825762000d8262000ecc565b8360020a91508482111562000d9b5762000d9b62000ecc565b5062000839565b5060208310610133831016604e8410600b841016171562000dda575081810a8381111562000dd45762000dd462000ecc565b62000839565b62000de9848484600162000cd0565b80860482111562000dfe5762000dfe62000ecc565b02949350505050565b600081600019048311821515161562000e245762000e2462000ecc565b500290565b60005b8381101562000e4657818101518382015260200162000e2c565b8381111562000e56576000848401525b50505050565b60008162000e6e5762000e6e62000ecc565b506000190190565b60028104600182168062000e8b57607f821691505b6020821081141562000ec6577f4e487b7100000000000000000000000000000000000000000000000000000000600052602260045260246000fd5b50919050565b7f4e487b7100000000000000000000000000000000000000000000000000000000600052601160045260246000fd5b7f4e487b7100000000000000000000000000000000000000000000000000000000600052604160045260246000fd5b6132cd8062000f3a6000396000f3fe608060405234801561001057600080fd5b50600436106102fb576000357c01000000000000000000000000000000000000000000000000000000009004806370a08231116101a3578063a7775ab511610100578063d74bd99c116100b4578063e21959041161008e578063e219590414610599578063ecb9ddc2146105a1578063fdda77bd146105b4576102fb565b8063d74bd99c14610576578063dd62ed3e1461057e578063df57b3e014610591576102fb565b8063acf69e2e116100e5578063acf69e2e14610553578063d53913931461055b578063d547741f14610563576102fb565b8063a7775ab51461052d578063a9059cbb14610540576102fb565b806395d89b4111610157578063a217fddf1161013c578063a217fddf1461050a578063a457c2d714610512578063a76b4d5614610525576102fb565b806395d89b41146104ef578063a14e4d69146104f7576102fb565b8063876b156611610188578063876b1566146104b25780638da5cb5b146104c757806391d14854146104dc576102fb565b806370a082311461048c578063782aafac1461049f576102fb565b8063248a9ca31161025c578063313ce5671161021057806340c10f19116101ea57806340c10f1914610453578063662faff0146104665780636b215c0414610479576102fb565b8063313ce5671461041857806336568abe1461042d5780633950935114610440576102fb565b80632b3f235c116102415780632b3f235c146103ea5780632f2ff15d146103fd57806330d643b514610410576102fb565b8063248a9ca3146103c4578063287eb693146103d7576102fb565b80630d77c7df116102b357806318160ddd1161029857806318160ddd146103a1578063184d69ab146103a957806323b872dd146103b1576102fb565b80630d77c7df146103795780630f67c5c11461038e576102fb565b806306fdde03116102e457806306fdde031461033e578063095ea7b3146103535780630d4552dd14610366576102fb565b806301ffc9a71461030057806306f2057a14610329575b600080fd5b61031361030e3660046127b7565b6105c7565b6040516103209190612a71565b60405180910390f35b610331610625565b6040516103209190612a7c565b61034661062b565b6040516103209190612a85565b610313610361366004612734565b6106bd565b6103466103743660046126c7565b6106db565b61038c61038736600461277d565b61088d565b005b61038c61039c3660046126f9565b6108e9565b610331610b5f565b610331610b65565b6103136103bf3660046126f9565b610b6b565b6103316103d236600461277d565b610c05565b61038c6103e5366004612795565b610c1a565b6103316103f83660046126ad565b610c99565b61038c61040b366004612795565b610cb4565b610331610cdd565b610420610d01565b6040516103209190612fff565b61038c61043b366004612795565b610d06565b61031361044e366004612734565b610d54565b61038c610461366004612734565b610da8565b61038c6104743660046127f7565b610e1f565b61038c6104873660046126c7565b610e32565b61033161049a3660046126ad565b61134a565b61038c6104ad366004612734565b611365565b6104ba611642565b6040516103209190612a24565b6104cf6116a3565b60405161032091906129d3565b6103136104ea366004612795565b6116b2565b6103466116dd565b6103316105053660046126ad565b6116ec565b61033161179a565b610313610520366004612734565b61179f565b610346611820565b61038c61053b3660046126ad565b6118ae565b61031361054e366004612734565b61195b565b61033161196f565b610331611993565b61038c610571366004612795565b6119b7565b6103316119d6565b61033161058c3660046126c7565b6119fa565b610331611a25565b6104ba611a2b565b61038c6105af366004612795565b611a8b565b6103316105c23660046126c7565b611b34565b60007fffffffff0000000000000000000000000000000000000000000000000000000082167f7965db0b00000000000000000000000000000000000000000000000000000000148061061d575061061d82611f3b565b90505b919050565b600c5490565b60606003805461063a906131c0565b80601f0160208091040260200160405190810160405280929190818152602001828054610666906131c0565b80156106b35780601f10610688576101008083540402835291602001916106b3565b820191906000526020600020905b81548152906001019060200180831161069657829003601f168201915b5050505050905090565b60006106d16106ca611f85565b8484611f89565b5060015b92915050565b606060005b6008548110156108515760006008828154811061071457600080516020613258833981519152600052603260045260246000fd5b60009182526020918290206040805160808101825260049093029091018054600160a060020a0390811684526001820154169383019390935260028301549082015260038201805491929160608401919061076e906131c0565b80601f016020809104026020016040519081016040528092919081815260200182805461079a906131c0565b80156107e75780601f106107bc576101008083540402835291602001916107e7565b820191906000526020600020905b8154815290600101906020018083116107ca57829003601f168201915b505050505081525050905083600160a060020a03168160200151600160a060020a031614801561082c575084600160a060020a03168160000151600160a060020a0316145b1561083e576060015191506106d59050565b508061084981613202565b9150506106e0565b505060408051808201909152600981527f6e6f207265636f72640000000000000000000000000000000000000000000000602082015292915050565b6108b77fc5c92f39ffa8f1471a82cf301c1391bf96d83f010965a4bb1af353359e80b247336116b2565b6108e45760405160008051602061327883398151915281526004016108db90612c98565b60405180910390fd5b600c55565b6109137fc5c92f39ffa8f1471a82cf301c1391bf96d83f010965a4bb1af353359e80b247336116b2565b6109375760405160008051602061327883398151915281526004016108db90612c98565b600b5442116109605760405160008051602061327883398151915281526004016108db90612ed7565b60005b600e54811015610b59576000600e828154811061099757600080516020613258833981519152600052603260045260246000fd5b600091825260209091200154600160a060020a0390811691508416811415610b465760006040518060800160405280600e85815481106109ee57600080516020613258833981519152600052603260045260246000fd5b600091825260208083209190910154600160a060020a0390811684528a81168483015260408085018a905280518082018252600781527f70656e64696e67000000000000000000000000000000000000000000000000008185015260609586015260088054600181018255945285517ff3f7a9fe364faab93b216da50a3214154f22a0a2b415b23a84c8169e8b636ee36004909502948501805473ffffffffffffffffffffffffffffffffffffffff19908116928516929092178155878501517ff3f7a9fe364faab93b216da50a3214154f22a0a2b415b23a84c8169e8b636ee48701805490931694169390931790558501517ff3f7a9fe364faab93b216da50a3214154f22a0a2b415b23a84c8169e8b636ee58401559284015180519495508594610b41937ff3f7a9fe364faab93b216da50a3214154f22a0a2b415b23a84c8169e8b636ee6019291909101906125fd565b505050505b5080610b5181613202565b915050610963565b50505050565b60025490565b600c5481565b6000610b7884848461204d565b600160a060020a038416600090815260016020526040812081610b99611f85565b600160a060020a0316600160a060020a0316815260200190815260200160002054905082811015610be45760405160008051602061327883398151915281526004016108db90612ccf565b610bf885610bf0611f85565b858403611f89565b60019150505b9392505050565b60009081526005602052604090206001015490565b610c447fc5c92f39ffa8f1471a82cf301c1391bf96d83f010965a4bb1af353359e80b247336116b2565b610c685760405160008051602061327883398151915281526004016108db90612c98565b600160a060020a03811660009081526006602052604081208054849290610c90908490613166565b90915550505050565b600160a060020a031660009081526006602052604090205490565b610cbd82610c05565b610cce81610cc9611f85565b612189565b610cd883836121f5565b505050565b7f7a05a596cb0ce7fdea8a1e1ec73be300bdb35097c944ce1897202f7a13122eb281565b601290565b610d0e611f85565b600160a060020a031681600160a060020a031614610d465760405160008051602061327883398151915281526004016108db90612f6b565b610d50828261227c565b5050565b60006106d1610d61611f85565b848460016000610d6f611f85565b600160a060020a03908116825260208083019390935260409182016000908120918b1681529252902054610da39190613019565b611f89565b610dd27f9f2df0fed2c77648de5860a4cc508cd0818c85b8b8a1ab4ceeef8d981c8956a6336116b2565b610df65760405160008051602061327883398151915281526004016108db90612de6565b610d5082610e02610d01565b610e109060ff16600a613079565b610e1a9084613147565b612301565b8051610d5090600d9060208401906125fd565b600b544211610e5b5760405160008051602061327883398151915281526004016108db90612ed7565b336000805b60085481101561100f5783600160a060020a031660088281548110610e9c57600080516020613258833981519152600052603260045260246000fd5b6000918252602090912060016004909202010154600160a060020a0316148015610f0f575084600160a060020a031660088281548110610ef357600080516020613258833981519152600052603260045260246000fd5b6000918252602090912060049091020154600160a060020a0316145b15610ffd5760408051808201909152600481527f7061696400000000000000000000000000000000000000000000000000000000602090910152600880547f5ab53550295bfc9315c562232d99e75119ebb4d3b8a6e012160126a3506b02a8919083908110610f9557600080516020613258833981519152600052603260045260246000fd5b9060005260206000209060040201600301604051610fb391906128b0565b604051809103902014610ffd5760088181548110610fe857600080516020613258833981519152600052603260045260246000fd5b90600052602060002090600402016002015491505b8061100781613202565b915050610e60565b5060005b600e548110156111f5576000600e828154811061104757600080516020613258833981519152600052603260045260246000fd5b6000918252602082200154600e8054600160a060020a039092169350908490811061108957600080516020613258833981519152600052603260045260246000fd5b600091825260209091200154600160a060020a03908116915087168114156111e0576040517f095ea7b3000000000000000000000000000000000000000000000000000000008152600160a060020a0383169063095ea7b3906110f29088908890600401612a0b565b602060405180830381600087803b15801561110c57600080fd5b505af1158015611120573d6000803e3d6000fd5b505050506040513d601f19601f82011682018060405250810190611144919061275d565b506040517fa9059cbb000000000000000000000000000000000000000000000000000000008152600160a060020a0383169063a9059cbb9061118c9088908890600401612a0b565b602060405180830381600087803b1580156111a657600080fd5b505af11580156111ba573d6000803e3d6000fd5b505050506040513d601f19601f820116820180604052508101906111de919061275d565b505b505080806111ed90613202565b915050611013565b5060005b6008548110156113435783600160a060020a03166008828154811061123557600080516020613258833981519152600052603260045260246000fd5b6000918252602090912060016004909202010154600160a060020a03161480156112a8575084600160a060020a03166008828154811061128c57600080516020613258833981519152600052603260045260246000fd5b6000918252602090912060049091020154600160a060020a0316145b15611331576040518060400160405280600481526020017f70616964000000000000000000000000000000000000000000000000000000008152506008828154811061130b57600080516020613258833981519152600052603260045260246000fd5b9060005260206000209060040201600301908051906020019061132f9291906125fd565b505b8061133b81613202565b9150506111f9565b5050505050565b600160a060020a031660009081526020819052604090205490565b61138f7fc5c92f39ffa8f1471a82cf301c1391bf96d83f010965a4bb1af353359e80b247336116b2565b6113b35760405160008051602061327883398151915281526004016108db90612c98565b3360005b600e54811015611501576000600e82815481106113eb57600080516020613258833981519152600052603260045260246000fd5b6000918252602082200154600e8054600160a060020a039092169350908490811061142d57600080516020613258833981519152600052603260045260246000fd5b600091825260209091200154600160a060020a03908116915086168114156114ec576040517f23b872dd000000000000000000000000000000000000000000000000000000008152600160a060020a038316906323b872dd9061149890879030908a906004016129e7565b602060405180830381600087803b1580156114b257600080fd5b505af11580156114c6573d6000803e3d6000fd5b505050506040513d601f19601f820116820180604052508101906114ea919061275d565b505b505080806114f990613202565b9150506113b7565b506040517f70a08231000000000000000000000000000000000000000000000000000000008152600090600160a060020a038516906370a082319061154a9030906004016129d3565b60206040518083038186803b15801561156257600080fd5b505afa158015611576573d6000803e3d6000fd5b505050506040513d601f19601f8201168201806040525081019061159a9190612898565b60408051808201909152600160a060020a039586168152602081019182526009805460018101825560009190915290517f6e1540171b6c0c960b71a7020d9f60077f6af931a8bbf590da0223dacf75c7af6002909202918201805473ffffffffffffffffffffffffffffffffffffffff19169190971617909555517f6e1540171b6c0c960b71a7020d9f60077f6af931a8bbf590da0223dacf75c7b090940193909355505050565b606060078054806020026020016040519081016040528092919081815260200182805480156106b357602002820191906000526020600020905b8154600160a060020a0316815260019091019060200180831161167c575050505050905090565b600a54600160a060020a031681565b6000918252600560209081526040808420600160a060020a0393909316845291905290205460ff1690565b60606004805461063a906131c0565b600080805b6009548110156117935760006009828154811061172557600080516020613258833981519152600052603260045260246000fd5b6000918252602091829020604080518082019091526002909202018054600160a060020a03908116808452600190920154938301939093529092509086161480156117735750828160200151115b1561178057806020015192505b508061178b81613202565b9150506116f1565b5092915050565b600081565b600080600160006117ae611f85565b600160a060020a03908116825260208083019390935260409182016000908120918816815292529020549050828110156118025760405160008051602061327883398151915281526004016108db90612f0e565b61181661180d611f85565b85858403611f89565b5060019392505050565b600d805461182d906131c0565b80601f0160208091040260200160405190810160405280929190818152602001828054611859906131c0565b80156118a65780601f1061187b576101008083540402835291602001916118a6565b820191906000526020600020905b81548152906001019060200180831161188957829003601f168201915b505050505081565b6118d87fc5c92f39ffa8f1471a82cf301c1391bf96d83f010965a4bb1af353359e80b247336116b2565b6118fc5760405160008051602061327883398151915281526004016108db90612c98565b600e80546001810182556000919091527fbb7b4a454dc3493923482f07822329ed19e8244eff582cc204f8554c3620c3fd01805473ffffffffffffffffffffffffffffffffffffffff1916600160a060020a0392909216919091179055565b60006106d1611968611f85565b848461204d565b7f37869509cd177be1dff4623c455e0f6e991f086eada4aa4d62043ed390ec307881565b7f9f2df0fed2c77648de5860a4cc508cd0818c85b8b8a1ab4ceeef8d981c8956a681565b6119c082610c05565b6119cc81610cc9611f85565b610cd8838361227c565b7fc5c92f39ffa8f1471a82cf301c1391bf96d83f010965a4bb1af353359e80b24781565b600160a060020a03918216600090815260016020908152604080832093909416825291909152205490565b600b5481565b6060600e8054806020026020016040519081016040528092919081815260200182805480156106b357602002820191906000526020600020908154600160a060020a0316815260019091019060200180831161167c575050505050905090565b600b544211611ab45760405160008051602061327883398151915281526004016108db90612ed7565b611ade7fc5c92f39ffa8f1471a82cf301c1391bf96d83f010965a4bb1af353359e80b247336116b2565b611b025760405160008051602061327883398151915281526004016108db90612c98565b611b0c81836123d1565b600160a060020a03811660009081526006602052604081208054849290610c90908490613019565b6000805b600854811015611ca957600060088281548110611b6c57600080516020613258833981519152600052603260045260246000fd5b60009182526020918290206040805160808101825260049093029091018054600160a060020a03908116845260018201541693830193909352600283015490820152600382018054919291606084019190611bc6906131c0565b80601f0160208091040260200160405190810160405280929190818152602001828054611bf2906131c0565b8015611c3f5780601f10611c1457610100808354040283529160200191611c3f565b820191906000526020600020905b815481529060010190602001808311611c2257829003601f168201915b505050505081525050905083600160a060020a03168160200151600160a060020a0316148015611c84575084600160a060020a03168160000151600160a060020a0316145b15611c96576040015191506106d59050565b5080611ca181613202565b915050611b38565b5060009392505050565b60606000611cc2836002613147565b611ccd906002613019565b67ffffffffffffffff811115611cfa57600080516020613258833981519152600052604160045260246000fd5b6040519080825280601f01601f191660200182016040528015611d24576020820181803683370190505b5090507f300000000000000000000000000000000000000000000000000000000000000081600081518110611d7057600080516020613258833981519152600052603260045260246000fd5b60200101907effffffffffffffffffffffffffffffffffffffffffffffffffffffffffffff1916908160001a9053507f780000000000000000000000000000000000000000000000000000000000000081600181518110611de857600080516020613258833981519152600052603260045260246000fd5b60200101907effffffffffffffffffffffffffffffffffffffffffffffffffffffffffffff1916908160001a9053506000611e24846002613147565b611e2f906001613019565b90505b6001811115611f14577f303132333435363738396162636465660000000000000000000000000000000085600f1660108110611e8557600080516020613258833981519152600052603260045260246000fd5b1a7f010000000000000000000000000000000000000000000000000000000000000002828281518110611ecf57600080516020613258833981519152600052603260045260246000fd5b60200101907effffffffffffffffffffffffffffffffffffffffffffffffffffffffffffff1916908160001a905350601090940493611f0d816131a9565b9050611e32565b508315610bfe5760405160008051602061327883398151915281526004016108db90612ab8565b7fffffffff0000000000000000000000000000000000000000000000000000000081167f01ffc9a70000000000000000000000000000000000000000000000000000000014919050565b3390565b600160a060020a038316611fb75760405160008051602061327883398151915281526004016108db90612e1d565b600160a060020a038216611fe55760405160008051602061327883398151915281526004016108db90612ba7565b600160a060020a0380841660008181526001602090815260408083209487168084529490915290819020849055517f8c5be1e5ebec7d5bd14f71427d1e84f3dd0314c0f7b2291e5b200ac8c7c3b92590612040908590612a7c565b60405180910390a3505050565b600160a060020a03831661207b5760405160008051602061327883398151915281526004016108db90612d89565b600160a060020a0382166120a95760405160008051602061327883398151915281526004016108db90612aed565b6120b48383836124d2565b600160a060020a038316600090815260208190526040902054818110156120f55760405160008051602061327883398151915281526004016108db90612c04565b600160a060020a0380851660009081526020819052604080822085850390559185168152908120805484929061212c908490613019565b9250508190555082600160a060020a031684600160a060020a03167fddf252ad1be2c89b69c2b068fc378daa952ba7f163c4a11628f55a4df523b3ef846040516121769190612a7c565b60405180910390a3610b59848484610cd8565b61219382826116b2565b610d50576121ab81600160a060020a03166014611cb3565b6121b6836020611cb3565b6040516020016121c7929190612952565b60408051601f198184030181529082905260008051602061327883398151915282526108db91600401612a85565b6121ff82826116b2565b610d50576000828152600560209081526040808320600160a060020a03851684529091529020805460ff19166001179055612238611f85565b600160a060020a031681600160a060020a0316837f2f8788117e7eff1d82e926ec794901d17c78024a50270940304540a733656f0d60405160405180910390a45050565b61228682826116b2565b15610d50576000828152600560209081526040808320600160a060020a03851684529091529020805460ff191690556122bd611f85565b600160a060020a031681600160a060020a0316837ff6391f5c32d9c69d2a47ea670b442974b53935d1edc7fd64eb21e047a839171b60405160405180910390a45050565b600160a060020a03821661232f5760405160008051602061327883398151915281526004016108db90612fc8565b61233b600083836124d2565b806002600082825461234d9190613019565b9091555050600160a060020a0382166000908152602081905260408120805483929061237a908490613019565b9091555050604051600160a060020a038316906000907fddf252ad1be2c89b69c2b068fc378daa952ba7f163c4a11628f55a4df523b3ef906123bd908590612a7c565b60405180910390a3610d5060008383610cd8565b600160a060020a0382166123ff5760405160008051602061327883398151915281526004016108db90612d2c565b61240b826000836124d2565b600160a060020a0382166000908152602081905260409020548181101561244c5760405160008051602061327883398151915281526004016108db90612b4a565b600160a060020a038316600090815260208190526040812083830390556002805484929061247b908490613166565b9091555050604051600090600160a060020a038516907fddf252ad1be2c89b69c2b068fc378daa952ba7f163c4a11628f55a4df523b3ef906124be908690612a7c565b60405180910390a3610cd883600084610cd8565b6124dd838383610cd8565b600780546001810182556000919091527fa66cc928b5edb82af9bd49922954155ab7b0942694bea4ce44661d9a8736c68801805473ffffffffffffffffffffffffffffffffffffffff1916600160a060020a03841617905561253f8233612563565b610cd85760405160008051602061327883398151915281526004016108db90612e7a565b6000600c5460001415612578575060016106d5565b6125a27f7a05a596cb0ce7fdea8a1e1ec73be300bdb35097c944ce1897202f7a13122eb2836116b2565b156125af575060016106d5565b6125d97f37869509cd177be1dff4623c455e0f6e991f086eada4aa4d62043ed390ec3078846116b2565b6106d15760405160008051602061327883398151915281526004016108db90612c61565b828054612609906131c0565b90600052602060002090601f01602090048101928261262b5760008555612671565b82601f1061264457805160ff1916838001178555612671565b82800160010185558215612671579182015b82811115612671578251825591602001919060010190612656565b5061267d929150612681565b5090565b5b8082111561267d5760008155600101612682565b8035600160a060020a038116811461062057600080fd5b6000602082840312156126be578081fd5b610bfe82612696565b600080604083850312156126d9578081fd5b6126e283612696565b91506126f060208401612696565b90509250929050565b60008060006060848603121561270d578081fd5b61271684612696565b925061272460208501612696565b9150604084013590509250925092565b60008060408385031215612746578182fd5b61274f83612696565b946020939093013593505050565b60006020828403121561276e578081fd5b81518015158114610bfe578182fd5b60006020828403121561278e578081fd5b5035919050565b600080604083850312156127a7578182fd5b823591506126f060208401612696565b6000602082840312156127c8578081fd5b81357fffffffff0000000000000000000000000000000000000000000000000000000081168114610bfe578182fd5b60006020808385031215612809578182fd5b823567ffffffffffffffff80821115612820578384fd5b818501915085601f830112612833578384fd5b8135818111156128455761284561323a565b60405184601f19601f84011682010181811084821117156128685761286861323a565b604052818152838201850188101561287e578586fd5b818585018683013790810190930193909352509392505050565b6000602082840312156128a9578081fd5b5051919050565b81546000908190600281046001808316806128cc57607f831692505b60208084108214156128f35760008051602061325883398151915287526022600452602487fd5b818015612907576001811461291857612944565b60ff19861689528489019650612944565b6129218a61300d565b885b8681101561293c5781548b820152908501908301612923565b505084890196505b509498975050505050505050565b60007f416363657373436f6e74726f6c3a206163636f756e74200000000000000000008252835161298a81601785016020880161317d565b7f206973206d697373696e6720726f6c652000000000000000000000000000000060179184019182015283516129c781602884016020880161317d565b01602801949350505050565b600160a060020a0391909116815260200190565b600160a060020a039384168152919092166020820152604081019190915260600190565b600160a060020a03929092168252602082015260400190565b6020808252825182820181905260009190848201906040850190845b81811015612a65578351600160a060020a031683529284019291840191600101612a40565b50909695505050505050565b901515815260200190565b90815260200190565b6000602082528251806020840152612aa481604085016020870161317d565b601f01601f19169190910160400192915050565b6020808252818101527f537472696e67733a20686578206c656e67746820696e73756666696369656e74604082015260600190565b60208082526023908201527f45524332303a207472616e7366657220746f20746865207a65726f206164647260408201527f6573730000000000000000000000000000000000000000000000000000000000606082015260800190565b60208082526022908201527f45524332303a206275726e20616d6f756e7420657863656564732062616c616e60408201527f6365000000000000000000000000000000000000000000000000000000000000606082015260800190565b60208082526022908201527f45524332303a20617070726f766520746f20746865207a65726f20616464726560408201527f7373000000000000000000000000000000000000000000000000000000000000606082015260800190565b60208082526026908201527f45524332303a207472616e7366657220616d6f756e742065786365656473206260408201527f616c616e63650000000000000000000000000000000000000000000000000000606082015260800190565b6020808252601e908201527f526563697069656e7420646f6573206e6f742068617665206163636573730000604082015260600190565b6020808252600e908201527f4e6f742061206f70657261746f72000000000000000000000000000000000000604082015260600190565b60208082526028908201527f45524332303a207472616e7366657220616d6f756e742065786365656473206160408201527f6c6c6f77616e6365000000000000000000000000000000000000000000000000606082015260800190565b60208082526021908201527f45524332303a206275726e2066726f6d20746865207a65726f2061646472657360408201527f7300000000000000000000000000000000000000000000000000000000000000606082015260800190565b60208082526025908201527f45524332303a207472616e736665722066726f6d20746865207a65726f20616460408201527f6472657373000000000000000000000000000000000000000000000000000000606082015260800190565b6020808252600c908201527f4e6f742061206d696e7465720000000000000000000000000000000000000000604082015260600190565b60208082526024908201527f45524332303a20617070726f76652066726f6d20746865207a65726f2061646460408201527f7265737300000000000000000000000000000000000000000000000000000000606082015260800190565b60208082526028908201527f455243323057697468536166655472616e736665723a20696e76616c6964207260408201527f6563697069656e74000000000000000000000000000000000000000000000000606082015260800190565b6020808252600f908201527f4e6f74206174206d617475726974790000000000000000000000000000000000604082015260600190565b60208082526025908201527f45524332303a2064656372656173656420616c6c6f77616e63652062656c6f7760408201527f207a65726f000000000000000000000000000000000000000000000000000000606082015260800190565b6020808252602f908201527f416363657373436f6e74726f6c3a2063616e206f6e6c792072656e6f756e636560408201527f20726f6c657320666f722073656c660000000000000000000000000000000000606082015260800190565b6020808252601f908201527f45524332303a206d696e7420746f20746865207a65726f206164647265737300604082015260600190565b60ff91909116815260200190565b60009081526020902090565b6000821982111561302c5761302c61321d565b500190565b80825b60018086116130435750613070565b8187048211156130555761305561321d565b8086161561306257918102915b506002909404938002613034565b94509492505050565b6000610bfe600019848460008261309257506001610bfe565b8161309f57506000610bfe565b81600181146130b557600281146130bf576130ec565b6001915050610bfe565b60ff8411156130d0576130d061321d565b8360020a9150848211156130e6576130e661321d565b50610bfe565b5060208310610133831016604e8410600b841016171561311f575081810a8381111561311a5761311a61321d565b610bfe565b61312c8484846001613031565b80860482111561313e5761313e61321d565b02949350505050565b60008160001904831182151516156131615761316161321d565b500290565b6000828210156131785761317861321d565b500390565b60005b83811015613198578181015183820152602001613180565b83811115610b595750506000910152565b6000816131b8576131b861321d565b506000190190565b6002810460018216806131d457607f821691505b602082108114156131fc57600080516020613258833981519152600052602260045260246000fd5b50919050565b60006000198214156132165761321661321d565b5060010190565b600080516020613258833981519152600052601160045260246000fd5b600080516020613258833981519152600052604160045260246000fdfe4e487b710000000000000000000000000000000000000000000000000000000008c379a000000000000000000000000000000000000000000000000000000000a26469706673582212201eeb248b408c60c93faaea7a17ad9106f13c049ee61d6ea8cbc810fd50fcaeff64736f6c6343000800003337869509cd177be1dff4623c455e0f6e991f086eada4aa4d62043ed390ec3078",
  "immutableReferences": {},
  "source": "// SPDX-License-Identifier: MIT\npragma solidity ^0.8.0;\n\nimport \"@openzeppelin/contracts/token/ERC20/ERC20.sol\";\nimport \"@openzeppelin/contracts/access/AccessControl.sol\";\n\ncontract DestinationBondToken is ERC20, AccessControl {\n  mapping(address => uint256) private redemptionLookup;\n\n  address[] tokenHolders;\n\n  struct RedemptionRecord {\n    address token;\n    address wallet;\n    uint256 amount;\n    string status;\n  }\n\n  struct DepositRecord {\n    address token;\n    uint256 amount;\n  }\n\n  RedemptionRecord[] private redemptionRecordList;\n  DepositRecord[] private depositRecordList;\n\n  address public owner;\n  uint256 public vaultMaturity;\n\n  bytes32 public constant WHITELISTED_HOLDER_ROLE =\n    keccak256(\"WHITELISTED_HOLDER_ROLE\");\n  bytes32 public constant MINTER_ROLE = keccak256(\"MINTER_ROLE\");\n  bytes32 public constant VALT_OPERATOR = keccak256(\"VALT_OPERATOR\");\n  bytes32 public constant ROUTER_ROLE = keccak256(\"ROUTER_ROLE\");\n\n  uint256 public isWhitelistEnabled = 0;\n  string public contractMetadata = \"\";\n\n  address[] stableCoins;\n  uint256 tokenSupply;\n\n  constructor(\n    string memory tokenName,\n    string memory tokenSymbol,\n    string memory metadata,\n    uint256 supply,\n    address sender,\n    uint256 maturity\n  ) ERC20(tokenName, tokenSymbol) {\n    owner = msg.sender;\n    tokenSupply = supply;\n    vaultMaturity = maturity;\n    contractMetadata = metadata;\n    _setupRole(DEFAULT_ADMIN_ROLE, owner);\n    grantRole(WHITELISTED_HOLDER_ROLE, sender);\n    grantRole(MINTER_ROLE, sender);\n    grantRole(VALT_OPERATOR, sender);\n    _mint(sender, supply * (10**uint256(decimals())));\n  }\n\n  function updateContractMetadata(string memory newData) public {\n    contractMetadata = newData;\n  }\n\n  function enableWhitelist(uint256 newValue) public {\n    require(hasRole(VALT_OPERATOR, msg.sender), \"Not a operator\");\n    isWhitelistEnabled = newValue;\n  }\n\n  function checkWhitelist() public view returns (uint256) {\n    return isWhitelistEnabled;\n  }\n\n  function mint(address to, uint256 amount) public {\n    // require that the requester have the role of Minter\n    require(hasRole(MINTER_ROLE, msg.sender), \"Not a minter\");\n    _mint(to, amount * (10**uint256(decimals())));\n  }\n\n  function getRedemptionAvailableForUser(address user)\n    public\n    view\n    returns (uint256)\n  {\n    return redemptionLookup[user];\n  }\n\n  function getRedemptionAmount(address rewardToken, address user)\n    public\n    view\n    returns (uint256)\n  {\n    for (uint256 i = 0; i < redemptionRecordList.length; i++) {\n      RedemptionRecord memory record = redemptionRecordList[i];\n      if (record.wallet == user && record.token == rewardToken) {\n        return record.amount;\n      }\n    }\n    return 0;\n  }\n\n  function getRedemptionStatus(address rewardToken, address user)\n    public\n    view\n    returns (string memory)\n  {\n    for (uint256 i = 0; i < redemptionRecordList.length; i++) {\n      RedemptionRecord memory record = redemptionRecordList[i];\n      if (record.wallet == user && record.token == rewardToken) {\n        return record.status;\n      }\n    }\n    return \"no record\";\n  }\n\n  function startRedeem(uint256 amount, address forUser) external {\n    require(block.timestamp > vaultMaturity, \"Not at maturity\");\n    require(hasRole(VALT_OPERATOR, msg.sender), \"Not a operator\");\n\n    _burn(forUser, amount);\n    redemptionLookup[forUser] += amount;\n  }\n\n  function approveRedemption(\n    address user,\n    address rewardToken,\n    uint256 amount\n  ) public {\n    require(hasRole(VALT_OPERATOR, msg.sender), \"Not a operator\");\n    require(block.timestamp > vaultMaturity, \"Not at maturity\");\n\n    for (uint256 i = 0; i < stableCoins.length; i++) {\n      address rToken = stableCoins[i];\n      if (rToken == rewardToken) {\n        RedemptionRecord memory newRecord = RedemptionRecord(\n          stableCoins[i],\n          user,\n          amount,\n          \"pending\"\n        );\n        redemptionRecordList.push(newRecord);\n      }\n    }\n  }\n\n  function markRedeemed(uint256 amount, address account) external {\n    require(hasRole(VALT_OPERATOR, msg.sender), \"Not a operator\");\n    redemptionLookup[account] -= amount;\n  }\n\n  //all token transfers must have a recpient in the whitelist\n  function _beforeTokenTransfer(\n    address from,\n    address to,\n    uint256 amount\n  ) internal virtual override {\n    super._beforeTokenTransfer(from, to, amount);\n    tokenHolders.push(to);\n    require(\n      _validRecipient(to, msg.sender),\n      \"ERC20WithSafeTransfer: invalid recipient\"\n    );\n  }\n\n  function getStableCoins() public view returns (address[] memory) {\n    return stableCoins;\n  }\n\n  function getTokenHolders() public view returns (address[] memory) {\n    return tokenHolders;\n  }\n\n  function addToStableCoins(address newToken) public {\n    require(hasRole(VALT_OPERATOR, msg.sender), \"Not a operator\");\n    stableCoins.push(newToken);\n  }\n\n  function getTokenVaultBalance(address rewardToken)\n    public\n    view\n    returns (uint256)\n  {\n    uint256 highAmount = 0;\n    for (uint256 i = 0; i < depositRecordList.length; i++) {\n      DepositRecord memory record = depositRecordList[i];\n      if (record.token == rewardToken && record.amount > highAmount) {\n        highAmount = record.amount;\n      }\n    }\n    return highAmount;\n  }\n\n  function depositIntoStableCoin(address rewardToken, uint256 amount) public {\n    require(hasRole(VALT_OPERATOR, msg.sender), \"Not a operator\");\n    address from = msg.sender;\n\n    for (uint256 i = 0; i < stableCoins.length; i++) {\n      address rToken = stableCoins[i];\n      address rTokenAddress = stableCoins[i];\n      if (rewardToken == rTokenAddress) {\n        ERC20(rToken).transferFrom(from, address(this), amount);\n      }\n    }\n\n    uint256 currentBalance = ERC20(rewardToken).balanceOf(address(this));\n    DepositRecord memory newRecord = DepositRecord(rewardToken, currentBalance);\n    depositRecordList.push(newRecord);\n  }\n\n  function redeemFromStableCoin(address rewardToken, address tokenHolder)\n    public\n  {\n    require(block.timestamp > vaultMaturity, \"Not at maturity\");\n\n    address from = msg.sender;\n    uint256 redeemAmount = 0;\n    for (uint256 i = 0; i < redemptionRecordList.length; i++) {\n      if (\n        redemptionRecordList[i].wallet == tokenHolder &&\n        redemptionRecordList[i].token == rewardToken\n      ) {\n        if (\n          keccak256(bytes(redemptionRecordList[i].status)) !=\n          keccak256(bytes(\"paid\"))\n        ) {\n          redeemAmount = redemptionRecordList[i].amount;\n        }\n      }\n    }\n\n    for (uint256 i = 0; i < stableCoins.length; i++) {\n      address rToken = stableCoins[i];\n      address rTokenAddress = stableCoins[i];\n      if (rewardToken == rTokenAddress) {\n        ERC20(rToken).approve(from, redeemAmount);\n        ERC20(rToken).transfer(from, redeemAmount);\n      }\n    }\n\n    for (uint256 z = 0; z < redemptionRecordList.length; z++) {\n      if (\n        redemptionRecordList[z].wallet == tokenHolder &&\n        redemptionRecordList[z].token == rewardToken\n      ) {\n        redemptionRecordList[z].status = \"paid\";\n      }\n    }\n  }\n\n  // validate the recipeient is in the whitelist\n  function _validRecipient(address to, address sender)\n    private\n    view\n    returns (bool)\n  {\n    if (isWhitelistEnabled == 0) {\n      return true;\n    }\n\n    if (hasRole(ROUTER_ROLE, sender)) {\n      return true;\n    }\n\n    require(\n      hasRole(WHITELISTED_HOLDER_ROLE, to),\n      \"Recipient does not have access\"\n    );\n    return true;\n  }\n}\n",
  "sourcePath": "/Users/charlespacker/alloyx_smart_contracts/contracts/DestinationBondToken.sol",
  "compiler": {
    "name": "solc",
    "version": "0.8.0+commit.c7dfd78e.Emscripten.clang"
  },
  "schemaVersion": "3.4.3",
  "updatedAt": "2021-09-05T01:37:20.856Z",
  "devdoc": {
    "kind": "dev",
    "methods": {
      "allowance(address,address)": {
        "details": "See {IERC20-allowance}."
      },
      "approve(address,uint256)": {
        "details": "See {IERC20-approve}. Requirements: - `spender` cannot be the zero address."
      },
      "balanceOf(address)": {
        "details": "See {IERC20-balanceOf}."
      },
      "decimals()": {
        "details": "Returns the number of decimals used to get its user representation. For example, if `decimals` equals `2`, a balance of `505` tokens should be displayed to a user as `5.05` (`505 / 10 ** 2`). Tokens usually opt for a value of 18, imitating the relationship between Ether and Wei. This is the value {ERC20} uses, unless this function is overridden; NOTE: This information is only used for _display_ purposes: it in no way affects any of the arithmetic of the contract, including {IERC20-balanceOf} and {IERC20-transfer}."
      },
      "decreaseAllowance(address,uint256)": {
        "details": "Atomically decreases the allowance granted to `spender` by the caller. This is an alternative to {approve} that can be used as a mitigation for problems described in {IERC20-approve}. Emits an {Approval} event indicating the updated allowance. Requirements: - `spender` cannot be the zero address. - `spender` must have allowance for the caller of at least `subtractedValue`."
      },
      "getRoleAdmin(bytes32)": {
        "details": "Returns the admin role that controls `role`. See {grantRole} and {revokeRole}. To change a role's admin, use {_setRoleAdmin}."
      },
      "grantRole(bytes32,address)": {
        "details": "Grants `role` to `account`. If `account` had not been already granted `role`, emits a {RoleGranted} event. Requirements: - the caller must have ``role``'s admin role."
      },
      "hasRole(bytes32,address)": {
        "details": "Returns `true` if `account` has been granted `role`."
      },
      "increaseAllowance(address,uint256)": {
        "details": "Atomically increases the allowance granted to `spender` by the caller. This is an alternative to {approve} that can be used as a mitigation for problems described in {IERC20-approve}. Emits an {Approval} event indicating the updated allowance. Requirements: - `spender` cannot be the zero address."
      },
      "name()": {
        "details": "Returns the name of the token."
      },
      "renounceRole(bytes32,address)": {
        "details": "Revokes `role` from the calling account. Roles are often managed via {grantRole} and {revokeRole}: this function's purpose is to provide a mechanism for accounts to lose their privileges if they are compromised (such as when a trusted device is misplaced). If the calling account had been granted `role`, emits a {RoleRevoked} event. Requirements: - the caller must be `account`."
      },
      "revokeRole(bytes32,address)": {
        "details": "Revokes `role` from `account`. If `account` had been granted `role`, emits a {RoleRevoked} event. Requirements: - the caller must have ``role``'s admin role."
      },
      "supportsInterface(bytes4)": {
        "details": "See {IERC165-supportsInterface}."
      },
      "symbol()": {
        "details": "Returns the symbol of the token, usually a shorter version of the name."
      },
      "totalSupply()": {
        "details": "See {IERC20-totalSupply}."
      },
      "transfer(address,uint256)": {
        "details": "See {IERC20-transfer}. Requirements: - `recipient` cannot be the zero address. - the caller must have a balance of at least `amount`."
      },
      "transferFrom(address,address,uint256)": {
        "details": "See {IERC20-transferFrom}. Emits an {Approval} event indicating the updated allowance. This is not required by the EIP. See the note at the beginning of {ERC20}. Requirements: - `sender` and `recipient` cannot be the zero address. - `sender` must have a balance of at least `amount`. - the caller must have allowance for ``sender``'s tokens of at least `amount`."
      }
    },
    "version": 1
  },
  "userdoc": {
    "kind": "user",
    "methods": {},
    "version": 1
  }
}