{
  "contractName": "DestinationBondToken",
  "abi": [
    {
      "inputs": [
        {
          "internalType": "string",
          "name": "tokenName",
          "type": "string"
        },
        {
          "internalType": "string",
          "name": "tokenSymbol",
          "type": "string"
        },
        {
          "internalType": "string",
          "name": "metadata",
          "type": "string"
        },
        {
          "internalType": "uint256",
          "name": "supply",
          "type": "uint256"
        },
        {
          "internalType": "address",
          "name": "sender",
          "type": "address"
        },
        {
          "internalType": "uint256",
          "name": "maturity",
          "type": "uint256"
        }
      ],
      "stateMutability": "nonpayable",
      "type": "constructor"
    },
    {
      "anonymous": false,
      "inputs": [
        {
          "indexed": true,
          "internalType": "address",
          "name": "owner",
          "type": "address"
        },
        {
          "indexed": true,
          "internalType": "address",
          "name": "spender",
          "type": "address"
        },
        {
          "indexed": false,
          "internalType": "uint256",
          "name": "value",
          "type": "uint256"
        }
      ],
      "name": "Approval",
      "type": "event"
    },
    {
      "anonymous": false,
      "inputs": [
        {
          "indexed": true,
          "internalType": "bytes32",
          "name": "role",
          "type": "bytes32"
        },
        {
          "indexed": true,
          "internalType": "bytes32",
          "name": "previousAdminRole",
          "type": "bytes32"
        },
        {
          "indexed": true,
          "internalType": "bytes32",
          "name": "newAdminRole",
          "type": "bytes32"
        }
      ],
      "name": "RoleAdminChanged",
      "type": "event"
    },
    {
      "anonymous": false,
      "inputs": [
        {
          "indexed": true,
          "internalType": "bytes32",
          "name": "role",
          "type": "bytes32"
        },
        {
          "indexed": true,
          "internalType": "address",
          "name": "account",
          "type": "address"
        },
        {
          "indexed": true,
          "internalType": "address",
          "name": "sender",
          "type": "address"
        }
      ],
      "name": "RoleGranted",
      "type": "event"
    },
    {
      "anonymous": false,
      "inputs": [
        {
          "indexed": true,
          "internalType": "bytes32",
          "name": "role",
          "type": "bytes32"
        },
        {
          "indexed": true,
          "internalType": "address",
          "name": "account",
          "type": "address"
        },
        {
          "indexed": true,
          "internalType": "address",
          "name": "sender",
          "type": "address"
        }
      ],
      "name": "RoleRevoked",
      "type": "event"
    },
    {
      "anonymous": false,
      "inputs": [
        {
          "indexed": true,
          "internalType": "address",
          "name": "from",
          "type": "address"
        },
        {
          "indexed": true,
          "internalType": "address",
          "name": "to",
          "type": "address"
        },
        {
          "indexed": false,
          "internalType": "uint256",
          "name": "value",
          "type": "uint256"
        }
      ],
      "name": "Transfer",
      "type": "event"
    },
    {
      "inputs": [],
      "name": "DEFAULT_ADMIN_ROLE",
      "outputs": [
        {
          "internalType": "bytes32",
          "name": "",
          "type": "bytes32"
        }
      ],
      "stateMutability": "view",
      "type": "function"
    },
    {
      "inputs": [],
      "name": "MINTER_ROLE",
      "outputs": [
        {
          "internalType": "bytes32",
          "name": "",
          "type": "bytes32"
        }
      ],
      "stateMutability": "view",
      "type": "function"
    },
    {
      "inputs": [],
      "name": "ROUTER_ROLE",
      "outputs": [
        {
          "internalType": "bytes32",
          "name": "",
          "type": "bytes32"
        }
      ],
      "stateMutability": "view",
      "type": "function"
    },
    {
      "inputs": [],
      "name": "VALT_OPERATOR",
      "outputs": [
        {
          "internalType": "bytes32",
          "name": "",
          "type": "bytes32"
        }
      ],
      "stateMutability": "view",
      "type": "function"
    },
    {
      "inputs": [],
      "name": "WHITELISTED_HOLDER_ROLE",
      "outputs": [
        {
          "internalType": "bytes32",
          "name": "",
          "type": "bytes32"
        }
      ],
      "stateMutability": "view",
      "type": "function"
    },
    {
      "inputs": [
        {
          "internalType": "address",
          "name": "owner",
          "type": "address"
        },
        {
          "internalType": "address",
          "name": "spender",
          "type": "address"
        }
      ],
      "name": "allowance",
      "outputs": [
        {
          "internalType": "uint256",
          "name": "",
          "type": "uint256"
        }
      ],
      "stateMutability": "view",
      "type": "function"
    },
    {
      "inputs": [
        {
          "internalType": "address",
          "name": "spender",
          "type": "address"
        },
        {
          "internalType": "uint256",
          "name": "amount",
          "type": "uint256"
        }
      ],
      "name": "approve",
      "outputs": [
        {
          "internalType": "bool",
          "name": "",
          "type": "bool"
        }
      ],
      "stateMutability": "nonpayable",
      "type": "function"
    },
    {
      "inputs": [
        {
          "internalType": "address",
          "name": "account",
          "type": "address"
        }
      ],
      "name": "balanceOf",
      "outputs": [
        {
          "internalType": "uint256",
          "name": "",
          "type": "uint256"
        }
      ],
      "stateMutability": "view",
      "type": "function"
    },
    {
      "inputs": [],
      "name": "contractMetadata",
      "outputs": [
        {
          "internalType": "string",
          "name": "",
          "type": "string"
        }
      ],
      "stateMutability": "view",
      "type": "function"
    },
    {
      "inputs": [],
      "name": "decimals",
      "outputs": [
        {
          "internalType": "uint8",
          "name": "",
          "type": "uint8"
        }
      ],
      "stateMutability": "view",
      "type": "function"
    },
    {
      "inputs": [
        {
          "internalType": "address",
          "name": "spender",
          "type": "address"
        },
        {
          "internalType": "uint256",
          "name": "subtractedValue",
          "type": "uint256"
        }
      ],
      "name": "decreaseAllowance",
      "outputs": [
        {
          "internalType": "bool",
          "name": "",
          "type": "bool"
        }
      ],
      "stateMutability": "nonpayable",
      "type": "function"
    },
    {
      "inputs": [
        {
          "internalType": "bytes32",
          "name": "role",
          "type": "bytes32"
        }
      ],
      "name": "getRoleAdmin",
      "outputs": [
        {
          "internalType": "bytes32",
          "name": "",
          "type": "bytes32"
        }
      ],
      "stateMutability": "view",
      "type": "function"
    },
    {
      "inputs": [
        {
          "internalType": "bytes32",
          "name": "role",
          "type": "bytes32"
        },
        {
          "internalType": "address",
          "name": "account",
          "type": "address"
        }
      ],
      "name": "grantRole",
      "outputs": [],
      "stateMutability": "nonpayable",
      "type": "function"
    },
    {
      "inputs": [
        {
          "internalType": "bytes32",
          "name": "role",
          "type": "bytes32"
        },
        {
          "internalType": "address",
          "name": "account",
          "type": "address"
        }
      ],
      "name": "hasRole",
      "outputs": [
        {
          "internalType": "bool",
          "name": "",
          "type": "bool"
        }
      ],
      "stateMutability": "view",
      "type": "function"
    },
    {
      "inputs": [
        {
          "internalType": "address",
          "name": "spender",
          "type": "address"
        },
        {
          "internalType": "uint256",
          "name": "addedValue",
          "type": "uint256"
        }
      ],
      "name": "increaseAllowance",
      "outputs": [
        {
          "internalType": "bool",
          "name": "",
          "type": "bool"
        }
      ],
      "stateMutability": "nonpayable",
      "type": "function"
    },
    {
      "inputs": [],
      "name": "isWhitelistEnabled",
      "outputs": [
        {
          "internalType": "uint256",
          "name": "",
          "type": "uint256"
        }
      ],
      "stateMutability": "view",
      "type": "function"
    },
    {
      "inputs": [],
      "name": "name",
      "outputs": [
        {
          "internalType": "string",
          "name": "",
          "type": "string"
        }
      ],
      "stateMutability": "view",
      "type": "function"
    },
    {
      "inputs": [],
      "name": "owner",
      "outputs": [
        {
          "internalType": "address",
          "name": "",
          "type": "address"
        }
      ],
      "stateMutability": "view",
      "type": "function"
    },
    {
      "inputs": [
        {
          "internalType": "bytes32",
          "name": "role",
          "type": "bytes32"
        },
        {
          "internalType": "address",
          "name": "account",
          "type": "address"
        }
      ],
      "name": "renounceRole",
      "outputs": [],
      "stateMutability": "nonpayable",
      "type": "function"
    },
    {
      "inputs": [
        {
          "internalType": "bytes32",
          "name": "role",
          "type": "bytes32"
        },
        {
          "internalType": "address",
          "name": "account",
          "type": "address"
        }
      ],
      "name": "revokeRole",
      "outputs": [],
      "stateMutability": "nonpayable",
      "type": "function"
    },
    {
      "inputs": [
        {
          "internalType": "bytes4",
          "name": "interfaceId",
          "type": "bytes4"
        }
      ],
      "name": "supportsInterface",
      "outputs": [
        {
          "internalType": "bool",
          "name": "",
          "type": "bool"
        }
      ],
      "stateMutability": "view",
      "type": "function"
    },
    {
      "inputs": [],
      "name": "symbol",
      "outputs": [
        {
          "internalType": "string",
          "name": "",
          "type": "string"
        }
      ],
      "stateMutability": "view",
      "type": "function"
    },
    {
      "inputs": [],
      "name": "totalSupply",
      "outputs": [
        {
          "internalType": "uint256",
          "name": "",
          "type": "uint256"
        }
      ],
      "stateMutability": "view",
      "type": "function"
    },
    {
      "inputs": [
        {
          "internalType": "address",
          "name": "recipient",
          "type": "address"
        },
        {
          "internalType": "uint256",
          "name": "amount",
          "type": "uint256"
        }
      ],
      "name": "transfer",
      "outputs": [
        {
          "internalType": "bool",
          "name": "",
          "type": "bool"
        }
      ],
      "stateMutability": "nonpayable",
      "type": "function"
    },
    {
      "inputs": [
        {
          "internalType": "address",
          "name": "sender",
          "type": "address"
        },
        {
          "internalType": "address",
          "name": "recipient",
          "type": "address"
        },
        {
          "internalType": "uint256",
          "name": "amount",
          "type": "uint256"
        }
      ],
      "name": "transferFrom",
      "outputs": [
        {
          "internalType": "bool",
          "name": "",
          "type": "bool"
        }
      ],
      "stateMutability": "nonpayable",
      "type": "function"
    },
    {
      "inputs": [],
      "name": "vaultMaturity",
      "outputs": [
        {
          "internalType": "uint256",
          "name": "",
          "type": "uint256"
        }
      ],
      "stateMutability": "view",
      "type": "function"
    },
    {
      "inputs": [
        {
          "internalType": "string",
          "name": "newData",
          "type": "string"
        }
      ],
      "name": "updateContractMetadata",
      "outputs": [],
      "stateMutability": "nonpayable",
      "type": "function"
    },
    {
      "inputs": [
        {
          "internalType": "uint256",
          "name": "newValue",
          "type": "uint256"
        }
      ],
      "name": "enableWhitelist",
      "outputs": [],
      "stateMutability": "nonpayable",
      "type": "function"
    },
    {
      "inputs": [],
      "name": "checkWhitelist",
      "outputs": [
        {
          "internalType": "uint256",
          "name": "",
          "type": "uint256"
        }
      ],
      "stateMutability": "view",
      "type": "function"
    },
    {
      "inputs": [
        {
          "internalType": "address",
          "name": "to",
          "type": "address"
        },
        {
          "internalType": "uint256",
          "name": "amount",
          "type": "uint256"
        }
      ],
      "name": "mint",
      "outputs": [],
      "stateMutability": "nonpayable",
      "type": "function"
    },
    {
      "inputs": [
        {
          "internalType": "address",
          "name": "user",
          "type": "address"
        }
      ],
      "name": "getRedemptionAvailableForUser",
      "outputs": [
        {
          "internalType": "uint256",
          "name": "",
          "type": "uint256"
        }
      ],
      "stateMutability": "view",
      "type": "function"
    },
    {
      "inputs": [
        {
          "internalType": "address",
          "name": "rewardToken",
          "type": "address"
        },
        {
          "internalType": "address",
          "name": "user",
          "type": "address"
        }
      ],
      "name": "getRedemptionAmount",
      "outputs": [
        {
          "internalType": "uint256",
          "name": "",
          "type": "uint256"
        }
      ],
      "stateMutability": "view",
      "type": "function"
    },
    {
      "inputs": [
        {
          "internalType": "address",
          "name": "rewardToken",
          "type": "address"
        },
        {
          "internalType": "address",
          "name": "user",
          "type": "address"
        }
      ],
      "name": "getRedemptionStatus",
      "outputs": [
        {
          "internalType": "string",
          "name": "",
          "type": "string"
        }
      ],
      "stateMutability": "view",
      "type": "function"
    },
    {
      "inputs": [],
      "name": "batchStartRedeem",
      "outputs": [],
      "stateMutability": "nonpayable",
      "type": "function"
    },
    {
      "inputs": [],
      "name": "approveRedemption",
      "outputs": [],
      "stateMutability": "nonpayable",
      "type": "function"
    },
    {
      "inputs": [
        {
          "internalType": "uint256",
          "name": "amount",
          "type": "uint256"
        },
        {
          "internalType": "address",
          "name": "account",
          "type": "address"
        }
      ],
      "name": "markRedeemed",
      "outputs": [],
      "stateMutability": "nonpayable",
      "type": "function"
    },
    {
      "inputs": [],
      "name": "getStableCoins",
      "outputs": [
        {
          "internalType": "address[]",
          "name": "",
          "type": "address[]"
        }
      ],
      "stateMutability": "view",
      "type": "function"
    },
    {
      "inputs": [],
      "name": "getTokenHolders",
      "outputs": [
        {
          "internalType": "address[]",
          "name": "",
          "type": "address[]"
        }
      ],
      "stateMutability": "view",
      "type": "function"
    },
    {
      "inputs": [
        {
          "internalType": "address",
          "name": "newToken",
          "type": "address"
        }
      ],
      "name": "addToStableCoins",
      "outputs": [],
      "stateMutability": "nonpayable",
      "type": "function"
    },
    {
      "inputs": [
        {
          "internalType": "address",
          "name": "rewardToken",
          "type": "address"
        }
      ],
      "name": "getTokenVaultBalance",
      "outputs": [
        {
          "internalType": "uint256",
          "name": "",
          "type": "uint256"
        }
      ],
      "stateMutability": "view",
      "type": "function"
    },
    {
      "inputs": [
        {
          "internalType": "address",
          "name": "rewardToken",
          "type": "address"
        },
        {
          "internalType": "uint256",
          "name": "amount",
          "type": "uint256"
        }
      ],
      "name": "depositIntoStableCoin",
      "outputs": [],
      "stateMutability": "nonpayable",
      "type": "function"
    },
    {
      "inputs": [
        {
          "internalType": "address",
          "name": "rewardToken",
          "type": "address"
        },
        {
          "internalType": "address",
          "name": "tokenHolder",
          "type": "address"
        }
      ],
      "name": "redeemFromStableCoin",
      "outputs": [],
      "stateMutability": "nonpayable",
      "type": "function"
    }
  ],
  "bytecode": "0x6000600c81905560a0604081905260808290526200002191600d919062000901565b503480156200002f57600080fd5b50604051620043c0380380620043c0833981016040819052620000529162000a30565b8551869086906200006b90600390602085019062000901565b5080516200008190600490602084019062000901565b5050600a8054600160a060020a0319163317905550600f839055600b8190558351620000b590600d90602087019062000901565b50600a54620000d990600090600160a060020a0316640100000000620001b6810204565b620000fd600080516020620043a083398151915283640100000000620001cf810204565b620001327f9f2df0fed2c77648de5860a4cc508cd0818c85b8b8a1ab4ceeef8d981c8956a683640100000000620001cf810204565b620001677fc5c92f39ffa8f1471a82cf301c1391bf96d83f010965a4bb1af353359e80b24783640100000000620001cf810204565b620001aa826200017f64010000000062000224810204565b6200018f9060ff16600a62000d1f565b6200019b908662000e07565b64010000000062000229810204565b50505050505062000f2a565b620001cb828264010000000062000333810204565b5050565b620001e382640100000000620003d1810204565b6200020a81620001fb640100000000620003e6810204565b640100000000620003ea810204565b6200021f838364010000000062000333810204565b505050565b601290565b600160a060020a03821662000275576040517f08c379a00000000000000000000000000000000000000000000000000000000081526004016200026c9062000c75565b60405180910390fd5b6200028c6000838364010000000062000498810204565b8060026000828254620002a0919062000cb5565b9091555050600160a060020a03821660009081526020819052604081208054839290620002cf90849062000cb5565b9091555050604051600160a060020a038316906000907fddf252ad1be2c89b69c2b068fc378daa952ba7f163c4a11628f55a4df523b3ef906200031490859062000cac565b60405180910390a3620001cb600083836401000000006200021f810204565b6200034882826401000000006200054c810204565b620001cb576000828152600560209081526040808320600160a060020a03851684529091529020805460ff191660011790556200038d640100000000620003e6810204565b600160a060020a031681600160a060020a0316837f2f8788117e7eff1d82e926ec794901d17c78024a50270940304540a733656f0d60405160405180910390a45050565b60009081526005602052604090206001015490565b3390565b620003ff82826401000000006200054c810204565b620001cb5762000428600160a060020a038216601464010000000062001e146200057982021704565b6200044383602064010000000062001e146200057982021704565b6040516020016200045692919062000af2565b60408051601f19818403018152908290527f08c379a00000000000000000000000000000000000000000000000000000000082526200026c9160040162000b77565b620004b383838364010000000062000da66200021f82021704565b600680546001810182556000919091527ff652222313e28459528d920b65115c16c04f3efc82aaedc97be59f3f377c0d3f018054600160a060020a031916600160a060020a03841617905562000513823364010000000062000840810204565b6200021f576040517f08c379a00000000000000000000000000000000000000000000000000000000081526004016200026c9062000c18565b6000828152600560209081526040808320600160a060020a038516845290915290205460ff165b92915050565b606060006200058a83600262000e07565b6200059790600262000cb5565b6001604060020a03811115620005d6577f4e487b7100000000000000000000000000000000000000000000000000000000600052604160045260246000fd5b6040519080825280601f01601f19166020018201604052801562000601576020820181803683370190505b5090507f30000000000000000000000000000000000000000000000000000000000000008160008151811062000660577f4e487b7100000000000000000000000000000000000000000000000000000000600052603260045260246000fd5b6020010190600160f860020a031916908160001a9053507f780000000000000000000000000000000000000000000000000000000000000081600181518110620006d3577f4e487b7100000000000000000000000000000000000000000000000000000000600052603260045260246000fd5b6020010190600160f860020a031916908160001a9053506000620006f984600262000e07565b6200070690600162000cb5565b90505b6001811115620007fd577f303132333435363738396162636465660000000000000000000000000000000085600f166010811062000770577f4e487b7100000000000000000000000000000000000000000000000000000000600052603260045260246000fd5b1a7f010000000000000000000000000000000000000000000000000000000000000002828281518110620007cd577f4e487b7100000000000000000000000000000000000000000000000000000000600052603260045260246000fd5b6020010190600160f860020a031916908160001a905350601090940493620007f58162000e5c565b905062000709565b50831562000839576040517f08c379a00000000000000000000000000000000000000000000000000000000081526004016200026c9062000bac565b9392505050565b6000600c5460001415620008575750600162000573565b6200088c7f7a05a596cb0ce7fdea8a1e1ec73be300bdb35097c944ce1897202f7a13122eb2836401000000006200054c810204565b156200089b5750600162000573565b620008bf600080516020620043a0833981519152846401000000006200054c810204565b620008f8576040517f08c379a00000000000000000000000000000000000000000000000000000000081526004016200026c9062000be1565b50600192915050565b8280546200090f9062000e76565b90600052602060002090601f0160209004810192826200093357600085556200097e565b82601f106200094e57805160ff19168380011785556200097e565b828001600101855582156200097e579182015b828111156200097e57825182559160200191906001019062000961565b506200098c92915062000990565b5090565b5b808211156200098c576000815560010162000991565b600082601f830112620009b8578081fd5b81516001604060020a0380821115620009d557620009d562000efb565b604051601f8301601f191681016020018281118282101715620009fc57620009fc62000efb565b60405282815284830160200186101562000a14578384fd5b62000a2783602083016020880162000e29565b95945050505050565b60008060008060008060c0878903121562000a49578182fd5b86516001604060020a038082111562000a60578384fd5b62000a6e8a838b01620009a7565b9750602089015191508082111562000a84578384fd5b62000a928a838b01620009a7565b9650604089015191508082111562000aa8578384fd5b5062000ab789828a01620009a7565b606089015160808a015191965094509050600160a060020a038116811462000add578283fd5b8092505060a087015190509295509295509295565b60007f416363657373436f6e74726f6c3a206163636f756e74200000000000000000008252835162000b2c81601785016020880162000e29565b7f206973206d697373696e6720726f6c6520000000000000000000000000000000601791840191820152835162000b6b81602884016020880162000e29565b01602801949350505050565b600060208252825180602084015262000b9881604085016020870162000e29565b601f01601f19169190910160400192915050565b6020808252818101527f537472696e67733a20686578206c656e67746820696e73756666696369656e74604082015260600190565b6020808252601e908201527f526563697069656e7420646f6573206e6f742068617665206163636573730000604082015260600190565b60208082526028908201527f455243323057697468536166655472616e736665723a20696e76616c6964207260408201527f6563697069656e74000000000000000000000000000000000000000000000000606082015260800190565b6020808252601f908201527f45524332303a206d696e7420746f20746865207a65726f206164647265737300604082015260600190565b90815260200190565b6000821982111562000ccb5762000ccb62000ecc565b500190565b80825b600180861162000ce4575062000d16565b81870482111562000cf95762000cf962000ecc565b8086161562000d0757918102915b50600290940493800262000cd3565b94509492505050565b600062000839600019848460008262000d3b5750600162000839565b8162000d4a5750600062000839565b816001811462000d63576002811462000d6e5762000da2565b600191505062000839565b60ff84111562000d825762000d8262000ecc565b8360020a91508482111562000d9b5762000d9b62000ecc565b5062000839565b5060208310610133831016604e8410600b841016171562000dda575081810a8381111562000dd45762000dd462000ecc565b62000839565b62000de9848484600162000cd0565b80860482111562000dfe5762000dfe62000ecc565b02949350505050565b600081600019048311821515161562000e245762000e2462000ecc565b500290565b60005b8381101562000e4657818101518382015260200162000e2c565b8381111562000e56576000848401525b50505050565b60008162000e6e5762000e6e62000ecc565b506000190190565b60028104600182168062000e8b57607f821691505b6020821081141562000ec6577f4e487b7100000000000000000000000000000000000000000000000000000000600052602260045260246000fd5b50919050565b7f4e487b7100000000000000000000000000000000000000000000000000000000600052601160045260246000fd5b7f4e487b7100000000000000000000000000000000000000000000000000000000600052604160045260246000fd5b6134668062000f3a6000396000f3fe608060405234801561001057600080fd5b50600436106102fb576000357c01000000000000000000000000000000000000000000000000000000009004806370a08231116101a3578063a7775ab511610100578063d547741f116100b4578063df57b3e01161008e578063df57b3e01461058e578063e219590414610596578063fdda77bd1461059e576102fb565b8063d547741f14610560578063d74bd99c14610573578063dd62ed3e1461057b576102fb565b8063acf69e2e116100e5578063acf69e2e14610548578063ae73088014610550578063d539139314610558576102fb565b8063a7775ab514610522578063a9059cbb14610535576102fb565b806395d89b4111610157578063a217fddf1161013c578063a217fddf146104ff578063a457c2d714610507578063a76b4d561461051a576102fb565b806395d89b41146104e4578063a14e4d69146104ec576102fb565b8063876b156611610188578063876b1566146104a75780638da5cb5b146104bc57806391d14854146104d1576102fb565b806370a0823114610481578063782aafac14610494576102fb565b8063272a98a01161025c578063313ce5671161021057806340c10f19116101ea57806340c10f1914610448578063662faff01461045b5780636b215c041461046e576102fb565b8063313ce5671461040d57806336568abe146104225780633950935114610435576102fb565b80632b3f235c116102415780632b3f235c146103df5780632f2ff15d146103f257806330d643b514610405576102fb565b8063272a98a0146103c4578063287eb693146103cc576102fb565b80630d77c7df116102b3578063184d69ab11610298578063184d69ab1461039657806323b872dd1461039e578063248a9ca3146103b1576102fb565b80630d77c7df1461037957806318160ddd1461038e576102fb565b806306fdde03116102e457806306fdde031461033e578063095ea7b3146103535780630d4552dd14610366576102fb565b806301ffc9a71461030057806306f2057a14610329575b600080fd5b61031361030e366004612950565b6105b1565b6040516103209190612c0a565b60405180910390f35b61033161060f565b6040516103209190612c15565b610346610615565b6040516103209190612c1e565b6103136103613660046128cd565b6106a7565b610346610374366004612860565b6106c5565b61038c610387366004612916565b610877565b005b6103316108d3565b6103316108d9565b6103136103ac366004612892565b6108df565b6103316103bf366004612916565b610979565b61038c61098e565b61038c6103da36600461292e565b610ce8565b6103316103ed366004612846565b610d67565b61038c61040036600461292e565b610d82565b610331610dab565b610415610dcf565b6040516103209190613198565b61038c61043036600461292e565b610dd4565b6103136104433660046128cd565b610e22565b61038c6104563660046128cd565b610e76565b61038c610469366004612990565b610eed565b61038c61047c366004612860565b610f4e565b61033161048f366004612846565b611466565b61038c6104a23660046128cd565b611481565b6104af61175e565b6040516103209190612bbd565b6104c46117bf565b6040516103209190612b6c565b6103136104df36600461292e565b6117ce565b6103466117f9565b6103316104fa366004612846565b611808565b6103316118b6565b6103136105153660046128cd565b6118bb565b61034661193c565b61038c610530366004612846565b6119ca565b6103136105433660046128cd565b611a77565b610331611a8b565b61038c611aaf565b610331611b9d565b61038c61056e36600461292e565b611bc1565b610331611be0565b610331610589366004612860565b611c04565b610331611c2f565b6104af611c35565b6103316105ac366004612860565b611c95565b60007fffffffff0000000000000000000000000000000000000000000000000000000082167f7965db0b00000000000000000000000000000000000000000000000000000000148061060757506106078261209c565b90505b919050565b600c5490565b60606003805461062490613359565b80601f016020809104026020016040519081016040528092919081815260200182805461065090613359565b801561069d5780601f106106725761010080835404028352916020019161069d565b820191906000526020600020905b81548152906001019060200180831161068057829003601f168201915b5050505050905090565b60006106bb6106b46120e6565b84846120ea565b5060015b92915050565b606060005b60075481101561083b576000600782815481106106fe576000805160206133f1833981519152600052603260045260246000fd5b60009182526020918290206040805160808101825260049093029091018054600160a060020a0390811684526001820154169383019390935260028301549082015260038201805491929160608401919061075890613359565b80601f016020809104026020016040519081016040528092919081815260200182805461078490613359565b80156107d15780601f106107a6576101008083540402835291602001916107d1565b820191906000526020600020905b8154815290600101906020018083116107b457829003601f168201915b505050505081525050905083600160a060020a03168160200151600160a060020a0316148015610816575084600160a060020a03168160000151600160a060020a0316145b15610828576060015191506106bf9050565b50806108338161339b565b9150506106ca565b505060408051808201909152600981527f6e6f207265636f72640000000000000000000000000000000000000000000000602082015292915050565b6108a17fc5c92f39ffa8f1471a82cf301c1391bf96d83f010965a4bb1af353359e80b247336117ce565b6108ce5760405160008051602061341183398151915281526004016108c590612e31565b60405180910390fd5b600c55565b60025490565b600c5481565b60006108ec8484846121ae565b600160a060020a03841660009081526001602052604081208161090d6120e6565b600160a060020a0316600160a060020a03168152602001908152602001600020549050828110156109585760405160008051602061341183398151915281526004016108c590612e68565b61096c856109646120e6565b8584036120ea565b60019150505b9392505050565b60009081526005602052604090206001015490565b6109b87fc5c92f39ffa8f1471a82cf301c1391bf96d83f010965a4bb1af353359e80b247336117ce565b6109dc5760405160008051602061341183398151915281526004016108c590612e31565b600b544211610a055760405160008051602061341183398151915281526004016108c590613070565b60005b600654811015610ce557600060068281548110610a3c576000805160206133f1833981519152600052603260045260246000fd5b6000918252602082200154600160a060020a031691505b600e54811015610cd0576000600e8281548110610a87576000805160206133f1833981519152600052603260045260246000fd5b60009182526020822001546040517f70a08231000000000000000000000000000000000000000000000000000000008152600160a060020a03909116925082906370a0823190610adb908790600401612b6c565b60206040518083038186803b158015610af357600080fd5b505afa158015610b07573d6000803e3d6000fd5b505050506040513d601f19601f82011682018060405250810190610b2b9190612a31565b905060006040518060800160405280600e8681548110610b62576000805160206133f1833981519152600052603260045260246000fd5b600091825260208083209190910154600160a060020a0390811684528981168483015260408085018890528051808201825260078082527f70656e64696e6700000000000000000000000000000000000000000000000000828601526060968701919091528054600181018255945285517fa66cc928b5edb82af9bd49922954155ab7b0942694bea4ce44661d9a8736c6886004909502948501805473ffffffffffffffffffffffffffffffffffffffff19908116928516929092178155878501517fa66cc928b5edb82af9bd49922954155ab7b0942694bea4ce44661d9a8736c6898701805490931694169390931790558501517fa66cc928b5edb82af9bd49922954155ab7b0942694bea4ce44661d9a8736c68a8401559284015180519495508594610cb7937fa66cc928b5edb82af9bd49922954155ab7b0942694bea4ce44661d9a8736c68b01929190910190612796565b5050505050508080610cc89061339b565b915050610a53565b50508080610cdd9061339b565b915050610a08565b50565b610d127fc5c92f39ffa8f1471a82cf301c1391bf96d83f010965a4bb1af353359e80b247336117ce565b610d365760405160008051602061341183398151915281526004016108c590612e31565b600160a060020a03811660009081526009602052604081208054849290610d5e9084906132ff565b90915550505050565b600160a060020a031660009081526009602052604090205490565b610d8b82610979565b610d9c81610d976120e6565b6122f0565b610da6838361235c565b505050565b7f7a05a596cb0ce7fdea8a1e1ec73be300bdb35097c944ce1897202f7a13122eb281565b601290565b610ddc6120e6565b600160a060020a031681600160a060020a031614610e145760405160008051602061341183398151915281526004016108c590613104565b610e1e82826123e3565b5050565b60006106bb610e2f6120e6565b848460016000610e3d6120e6565b600160a060020a03908116825260208083019390935260409182016000908120918b1681529252902054610e7191906131b2565b6120ea565b610ea07f9f2df0fed2c77648de5860a4cc508cd0818c85b8b8a1ab4ceeef8d981c8956a6336117ce565b610ec45760405160008051602061341183398151915281526004016108c590612f7f565b610e1e82610ed0610dcf565b610ede9060ff16600a613212565b610ee890846132e0565b612468565b610f177fc5c92f39ffa8f1471a82cf301c1391bf96d83f010965a4bb1af353359e80b247336117ce565b610f3b5760405160008051602061341183398151915281526004016108c590612e31565b8051610e1e90600d906020840190612796565b600b544211610f775760405160008051602061341183398151915281526004016108c590613070565b336000805b60075481101561112b5783600160a060020a031660078281548110610fb8576000805160206133f1833981519152600052603260045260246000fd5b6000918252602090912060016004909202010154600160a060020a031614801561102b575084600160a060020a03166007828154811061100f576000805160206133f1833981519152600052603260045260246000fd5b6000918252602090912060049091020154600160a060020a0316145b156111195760408051808201909152600481527f7061696400000000000000000000000000000000000000000000000000000000602090910152600780547f5ab53550295bfc9315c562232d99e75119ebb4d3b8a6e012160126a3506b02a89190839081106110b1576000805160206133f1833981519152600052603260045260246000fd5b90600052602060002090600402016003016040516110cf9190612a49565b6040518091039020146111195760078181548110611104576000805160206133f1833981519152600052603260045260246000fd5b90600052602060002090600402016002015491505b806111238161339b565b915050610f7c565b5060005b600e54811015611311576000600e8281548110611163576000805160206133f1833981519152600052603260045260246000fd5b6000918252602082200154600e8054600160a060020a03909216935090849081106111a5576000805160206133f1833981519152600052603260045260246000fd5b600091825260209091200154600160a060020a03908116915087168114156112fc576040517f095ea7b3000000000000000000000000000000000000000000000000000000008152600160a060020a0383169063095ea7b39061120e9088908890600401612ba4565b602060405180830381600087803b15801561122857600080fd5b505af115801561123c573d6000803e3d6000fd5b505050506040513d601f19601f8201168201806040525081019061126091906128f6565b506040517fa9059cbb000000000000000000000000000000000000000000000000000000008152600160a060020a0383169063a9059cbb906112a89088908890600401612ba4565b602060405180830381600087803b1580156112c257600080fd5b505af11580156112d6573d6000803e3d6000fd5b505050506040513d601f19601f820116820180604052508101906112fa91906128f6565b505b505080806113099061339b565b91505061112f565b5060005b60075481101561145f5783600160a060020a031660078281548110611351576000805160206133f1833981519152600052603260045260246000fd5b6000918252602090912060016004909202010154600160a060020a03161480156113c4575084600160a060020a0316600782815481106113a8576000805160206133f1833981519152600052603260045260246000fd5b6000918252602090912060049091020154600160a060020a0316145b1561144d576040518060400160405280600481526020017f706169640000000000000000000000000000000000000000000000000000000081525060078281548110611427576000805160206133f1833981519152600052603260045260246000fd5b9060005260206000209060040201600301908051906020019061144b929190612796565b505b806114578161339b565b915050611315565b5050505050565b600160a060020a031660009081526020819052604090205490565b6114ab7fc5c92f39ffa8f1471a82cf301c1391bf96d83f010965a4bb1af353359e80b247336117ce565b6114cf5760405160008051602061341183398151915281526004016108c590612e31565b3360005b600e5481101561161d576000600e8281548110611507576000805160206133f1833981519152600052603260045260246000fd5b6000918252602082200154600e8054600160a060020a0390921693509084908110611549576000805160206133f1833981519152600052603260045260246000fd5b600091825260209091200154600160a060020a0390811691508616811415611608576040517f23b872dd000000000000000000000000000000000000000000000000000000008152600160a060020a038316906323b872dd906115b490879030908a90600401612b80565b602060405180830381600087803b1580156115ce57600080fd5b505af11580156115e2573d6000803e3d6000fd5b505050506040513d601f19601f8201168201806040525081019061160691906128f6565b505b505080806116159061339b565b9150506114d3565b506040517f70a08231000000000000000000000000000000000000000000000000000000008152600090600160a060020a038516906370a0823190611666903090600401612b6c565b60206040518083038186803b15801561167e57600080fd5b505afa158015611692573d6000803e3d6000fd5b505050506040513d601f19601f820116820180604052508101906116b69190612a31565b60408051808201909152600160a060020a039586168152602081019182526008805460018101825560009190915290517ff3f7a9fe364faab93b216da50a3214154f22a0a2b415b23a84c8169e8b636ee36002909202918201805473ffffffffffffffffffffffffffffffffffffffff19169190971617909555517ff3f7a9fe364faab93b216da50a3214154f22a0a2b415b23a84c8169e8b636ee490940193909355505050565b6060600680548060200260200160405190810160405280929190818152602001828054801561069d57602002820191906000526020600020905b8154600160a060020a03168152600190910190602001808311611798575050505050905090565b600a54600160a060020a031681565b6000918252600560209081526040808420600160a060020a0393909316845291905290205460ff1690565b60606004805461062490613359565b600080805b6008548110156118af57600060088281548110611841576000805160206133f1833981519152600052603260045260246000fd5b6000918252602091829020604080518082019091526002909202018054600160a060020a039081168084526001909201549383019390935290925090861614801561188f5750828160200151115b1561189c57806020015192505b50806118a78161339b565b91505061180d565b5092915050565b600081565b600080600160006118ca6120e6565b600160a060020a039081168252602080830193909352604091820160009081209188168152925290205490508281101561191e5760405160008051602061341183398151915281526004016108c5906130a7565b6119326119296120e6565b858584036120ea565b5060019392505050565b600d805461194990613359565b80601f016020809104026020016040519081016040528092919081815260200182805461197590613359565b80156119c25780601f10611997576101008083540402835291602001916119c2565b820191906000526020600020905b8154815290600101906020018083116119a557829003601f168201915b505050505081565b6119f47fc5c92f39ffa8f1471a82cf301c1391bf96d83f010965a4bb1af353359e80b247336117ce565b611a185760405160008051602061341183398151915281526004016108c590612e31565b600e80546001810182556000919091527fbb7b4a454dc3493923482f07822329ed19e8244eff582cc204f8554c3620c3fd01805473ffffffffffffffffffffffffffffffffffffffff1916600160a060020a0392909216919091179055565b60006106bb611a846120e6565b84846121ae565b7f37869509cd177be1dff4623c455e0f6e991f086eada4aa4d62043ed390ec307881565b600b544211611ad85760405160008051602061341183398151915281526004016108c590613070565b611b027fc5c92f39ffa8f1471a82cf301c1391bf96d83f010965a4bb1af353359e80b247336117ce565b611b265760405160008051602061341183398151915281526004016108c590612e31565b60005b600654811015610ce557600060068281548110611b5d576000805160206133f1833981519152600052603260045260246000fd5b6000918252602082200154600160a060020a03169150611b7c82611466565b9050611b888183612538565b50508080611b959061339b565b915050611b29565b7f9f2df0fed2c77648de5860a4cc508cd0818c85b8b8a1ab4ceeef8d981c8956a681565b611bca82610979565b611bd681610d976120e6565b610da683836123e3565b7fc5c92f39ffa8f1471a82cf301c1391bf96d83f010965a4bb1af353359e80b24781565b600160a060020a03918216600090815260016020908152604080832093909416825291909152205490565b600b5481565b6060600e80548060200260200160405190810160405280929190818152602001828054801561069d57602002820191906000526020600020908154600160a060020a03168152600190910190602001808311611798575050505050905090565b6000805b600754811015611e0a57600060078281548110611ccd576000805160206133f1833981519152600052603260045260246000fd5b60009182526020918290206040805160808101825260049093029091018054600160a060020a03908116845260018201541693830193909352600283015490820152600382018054919291606084019190611d2790613359565b80601f0160208091040260200160405190810160405280929190818152602001828054611d5390613359565b8015611da05780601f10611d7557610100808354040283529160200191611da0565b820191906000526020600020905b815481529060010190602001808311611d8357829003601f168201915b505050505081525050905083600160a060020a03168160200151600160a060020a0316148015611de5575084600160a060020a03168160000151600160a060020a0316145b15611df7576040015191506106bf9050565b5080611e028161339b565b915050611c99565b5060009392505050565b60606000611e238360026132e0565b611e2e9060026131b2565b67ffffffffffffffff811115611e5b576000805160206133f1833981519152600052604160045260246000fd5b6040519080825280601f01601f191660200182016040528015611e85576020820181803683370190505b5090507f300000000000000000000000000000000000000000000000000000000000000081600081518110611ed1576000805160206133f1833981519152600052603260045260246000fd5b60200101907effffffffffffffffffffffffffffffffffffffffffffffffffffffffffffff1916908160001a9053507f780000000000000000000000000000000000000000000000000000000000000081600181518110611f49576000805160206133f1833981519152600052603260045260246000fd5b60200101907effffffffffffffffffffffffffffffffffffffffffffffffffffffffffffff1916908160001a9053506000611f858460026132e0565b611f909060016131b2565b90505b6001811115612075577f303132333435363738396162636465660000000000000000000000000000000085600f1660108110611fe6576000805160206133f1833981519152600052603260045260246000fd5b1a7f010000000000000000000000000000000000000000000000000000000000000002828281518110612030576000805160206133f1833981519152600052603260045260246000fd5b60200101907effffffffffffffffffffffffffffffffffffffffffffffffffffffffffffff1916908160001a90535060109094049361206e81613342565b9050611f93565b5083156109725760405160008051602061341183398151915281526004016108c590612c51565b7fffffffff0000000000000000000000000000000000000000000000000000000081167f01ffc9a70000000000000000000000000000000000000000000000000000000014919050565b3390565b600160a060020a0383166121185760405160008051602061341183398151915281526004016108c590612fb6565b600160a060020a0382166121465760405160008051602061341183398151915281526004016108c590612d40565b600160a060020a0380841660008181526001602090815260408083209487168084529490915290819020849055517f8c5be1e5ebec7d5bd14f71427d1e84f3dd0314c0f7b2291e5b200ac8c7c3b925906121a1908590612c15565b60405180910390a3505050565b600160a060020a0383166121dc5760405160008051602061341183398151915281526004016108c590612f22565b600160a060020a03821661220a5760405160008051602061341183398151915281526004016108c590612c86565b61221583838361256a565b600160a060020a038316600090815260208190526040902054818110156122565760405160008051602061341183398151915281526004016108c590612d9d565b600160a060020a0380851660009081526020819052604080822085850390559185168152908120805484929061228d9084906131b2565b9250508190555082600160a060020a031684600160a060020a03167fddf252ad1be2c89b69c2b068fc378daa952ba7f163c4a11628f55a4df523b3ef846040516122d79190612c15565b60405180910390a36122ea848484610da6565b50505050565b6122fa82826117ce565b610e1e5761231281600160a060020a03166014611e14565b61231d836020611e14565b60405160200161232e929190612aeb565b60408051601f198184030181529082905260008051602061341183398151915282526108c591600401612c1e565b61236682826117ce565b610e1e576000828152600560209081526040808320600160a060020a03851684529091529020805460ff1916600117905561239f6120e6565b600160a060020a031681600160a060020a0316837f2f8788117e7eff1d82e926ec794901d17c78024a50270940304540a733656f0d60405160405180910390a45050565b6123ed82826117ce565b15610e1e576000828152600560209081526040808320600160a060020a03851684529091529020805460ff191690556124246120e6565b600160a060020a031681600160a060020a0316837ff6391f5c32d9c69d2a47ea670b442974b53935d1edc7fd64eb21e047a839171b60405160405180910390a45050565b600160a060020a0382166124965760405160008051602061341183398151915281526004016108c590613161565b6124a26000838361256a565b80600260008282546124b491906131b2565b9091555050600160a060020a038216600090815260208190526040812080548392906124e19084906131b2565b9091555050604051600160a060020a038316906000907fddf252ad1be2c89b69c2b068fc378daa952ba7f163c4a11628f55a4df523b3ef90612524908590612c15565b60405180910390a3610e1e60008383610da6565b61254281836125fb565b600160a060020a03811660009081526009602052604081208054849290610d5e9084906131b2565b612575838383610da6565b600680546001810182556000919091527ff652222313e28459528d920b65115c16c04f3efc82aaedc97be59f3f377c0d3f01805473ffffffffffffffffffffffffffffffffffffffff1916600160a060020a0384161790556125d782336126fc565b610da65760405160008051602061341183398151915281526004016108c590613013565b600160a060020a0382166126295760405160008051602061341183398151915281526004016108c590612ec5565b6126358260008361256a565b600160a060020a038216600090815260208190526040902054818110156126765760405160008051602061341183398151915281526004016108c590612ce3565b600160a060020a03831660009081526020819052604081208383039055600280548492906126a59084906132ff565b9091555050604051600090600160a060020a038516907fddf252ad1be2c89b69c2b068fc378daa952ba7f163c4a11628f55a4df523b3ef906126e8908690612c15565b60405180910390a3610da683600084610da6565b6000600c5460001415612711575060016106bf565b61273b7f7a05a596cb0ce7fdea8a1e1ec73be300bdb35097c944ce1897202f7a13122eb2836117ce565b15612748575060016106bf565b6127727f37869509cd177be1dff4623c455e0f6e991f086eada4aa4d62043ed390ec3078846117ce565b6106bb5760405160008051602061341183398151915281526004016108c590612dfa565b8280546127a290613359565b90600052602060002090601f0160209004810192826127c4576000855561280a565b82601f106127dd57805160ff191683800117855561280a565b8280016001018555821561280a579182015b8281111561280a5782518255916020019190600101906127ef565b5061281692915061281a565b5090565b5b80821115612816576000815560010161281b565b8035600160a060020a038116811461060a57600080fd5b600060208284031215612857578081fd5b6109728261282f565b60008060408385031215612872578081fd5b61287b8361282f565b91506128896020840161282f565b90509250929050565b6000806000606084860312156128a6578081fd5b6128af8461282f565b92506128bd6020850161282f565b9150604084013590509250925092565b600080604083850312156128df578182fd5b6128e88361282f565b946020939093013593505050565b600060208284031215612907578081fd5b81518015158114610972578182fd5b600060208284031215612927578081fd5b5035919050565b60008060408385031215612940578182fd5b823591506128896020840161282f565b600060208284031215612961578081fd5b81357fffffffff0000000000000000000000000000000000000000000000000000000081168114610972578182fd5b600060208083850312156129a2578182fd5b823567ffffffffffffffff808211156129b9578384fd5b818501915085601f8301126129cc578384fd5b8135818111156129de576129de6133d3565b60405184601f19601f8401168201018181108482111715612a0157612a016133d3565b6040528181528382018501881015612a17578586fd5b818585018683013790810190930193909352509392505050565b600060208284031215612a42578081fd5b5051919050565b8154600090819060028104600180831680612a6557607f831692505b6020808410821415612a8c576000805160206133f183398151915287526022600452602487fd5b818015612aa05760018114612ab157612add565b60ff19861689528489019650612add565b612aba8a6131a6565b885b86811015612ad55781548b820152908501908301612abc565b505084890196505b509498975050505050505050565b60007f416363657373436f6e74726f6c3a206163636f756e742000000000000000000082528351612b23816017850160208801613316565b7f206973206d697373696e6720726f6c65200000000000000000000000000000006017918401918201528351612b60816028840160208801613316565b01602801949350505050565b600160a060020a0391909116815260200190565b600160a060020a039384168152919092166020820152604081019190915260600190565b600160a060020a03929092168252602082015260400190565b6020808252825182820181905260009190848201906040850190845b81811015612bfe578351600160a060020a031683529284019291840191600101612bd9565b50909695505050505050565b901515815260200190565b90815260200190565b6000602082528251806020840152612c3d816040850160208701613316565b601f01601f19169190910160400192915050565b6020808252818101527f537472696e67733a20686578206c656e67746820696e73756666696369656e74604082015260600190565b60208082526023908201527f45524332303a207472616e7366657220746f20746865207a65726f206164647260408201527f6573730000000000000000000000000000000000000000000000000000000000606082015260800190565b60208082526022908201527f45524332303a206275726e20616d6f756e7420657863656564732062616c616e60408201527f6365000000000000000000000000000000000000000000000000000000000000606082015260800190565b60208082526022908201527f45524332303a20617070726f766520746f20746865207a65726f20616464726560408201527f7373000000000000000000000000000000000000000000000000000000000000606082015260800190565b60208082526026908201527f45524332303a207472616e7366657220616d6f756e742065786365656473206260408201527f616c616e63650000000000000000000000000000000000000000000000000000606082015260800190565b6020808252601e908201527f526563697069656e7420646f6573206e6f742068617665206163636573730000604082015260600190565b6020808252600e908201527f4e6f742061206f70657261746f72000000000000000000000000000000000000604082015260600190565b60208082526028908201527f45524332303a207472616e7366657220616d6f756e742065786365656473206160408201527f6c6c6f77616e6365000000000000000000000000000000000000000000000000606082015260800190565b60208082526021908201527f45524332303a206275726e2066726f6d20746865207a65726f2061646472657360408201527f7300000000000000000000000000000000000000000000000000000000000000606082015260800190565b60208082526025908201527f45524332303a207472616e736665722066726f6d20746865207a65726f20616460408201527f6472657373000000000000000000000000000000000000000000000000000000606082015260800190565b6020808252600c908201527f4e6f742061206d696e7465720000000000000000000000000000000000000000604082015260600190565b60208082526024908201527f45524332303a20617070726f76652066726f6d20746865207a65726f2061646460408201527f7265737300000000000000000000000000000000000000000000000000000000606082015260800190565b60208082526028908201527f455243323057697468536166655472616e736665723a20696e76616c6964207260408201527f6563697069656e74000000000000000000000000000000000000000000000000606082015260800190565b6020808252600f908201527f4e6f74206174206d617475726974790000000000000000000000000000000000604082015260600190565b60208082526025908201527f45524332303a2064656372656173656420616c6c6f77616e63652062656c6f7760408201527f207a65726f000000000000000000000000000000000000000000000000000000606082015260800190565b6020808252602f908201527f416363657373436f6e74726f6c3a2063616e206f6e6c792072656e6f756e636560408201527f20726f6c657320666f722073656c660000000000000000000000000000000000606082015260800190565b6020808252601f908201527f45524332303a206d696e7420746f20746865207a65726f206164647265737300604082015260600190565b60ff91909116815260200190565b60009081526020902090565b600082198211156131c5576131c56133b6565b500190565b80825b60018086116131dc5750613209565b8187048211156131ee576131ee6133b6565b808616156131fb57918102915b5060029094049380026131cd565b94509492505050565b6000610972600019848460008261322b57506001610972565b8161323857506000610972565b816001811461324e576002811461325857613285565b6001915050610972565b60ff841115613269576132696133b6565b8360020a91508482111561327f5761327f6133b6565b50610972565b5060208310610133831016604e8410600b84101617156132b8575081810a838111156132b3576132b36133b6565b610972565b6132c584848460016131ca565b8086048211156132d7576132d76133b6565b02949350505050565b60008160001904831182151516156132fa576132fa6133b6565b500290565b600082821015613311576133116133b6565b500390565b60005b83811015613331578181015183820152602001613319565b838111156122ea5750506000910152565b600081613351576133516133b6565b506000190190565b60028104600182168061336d57607f821691505b60208210811415613395576000805160206133f1833981519152600052602260045260246000fd5b50919050565b60006000198214156133af576133af6133b6565b5060010190565b6000805160206133f1833981519152600052601160045260246000fd5b6000805160206133f1833981519152600052604160045260246000fdfe4e487b710000000000000000000000000000000000000000000000000000000008c379a000000000000000000000000000000000000000000000000000000000a2646970667358221220c45243d44e7ba61de543620c3369a067306a53274a70085490081cd544d648f764736f6c6343000800003337869509cd177be1dff4623c455e0f6e991f086eada4aa4d62043ed390ec3078",
  "immutableReferences": {},
  "source": "// SPDX-License-Identifier: MIT\npragma solidity ^0.8.0;\n\nimport \"@openzeppelin/contracts/token/ERC20/ERC20.sol\";\nimport \"@openzeppelin/contracts/access/AccessControl.sol\";\n\ncontract DestinationBondToken is ERC20, AccessControl {\n  address[] tokenHolders;\n\n  struct RedemptionRecord {\n    address token;\n    address wallet;\n    uint256 amount;\n    string status;\n  }\n\n  struct DepositRecord {\n    address token;\n    uint256 amount;\n  }\n\n  RedemptionRecord[] private redemptionRecordList;\n  DepositRecord[] private depositRecordList;\n\n  mapping(address => uint256) private redemptionLookup;\n\n  address public owner;\n  uint256 public vaultMaturity;\n\n  bytes32 public constant WHITELISTED_HOLDER_ROLE =\n    keccak256(\"WHITELISTED_HOLDER_ROLE\");\n  bytes32 public constant MINTER_ROLE = keccak256(\"MINTER_ROLE\");\n  bytes32 public constant VALT_OPERATOR = keccak256(\"VALT_OPERATOR\");\n  bytes32 public constant ROUTER_ROLE = keccak256(\"ROUTER_ROLE\");\n\n  uint256 public isWhitelistEnabled = 0;\n  string public contractMetadata = \"\";\n\n  address[] stableCoins;\n  uint256 tokenSupply;\n\n  constructor(\n    string memory tokenName,\n    string memory tokenSymbol,\n    string memory metadata,\n    uint256 supply,\n    address sender,\n    uint256 maturity\n  ) ERC20(tokenName, tokenSymbol) {\n    owner = msg.sender;\n    tokenSupply = supply;\n    vaultMaturity = maturity;\n    contractMetadata = metadata;\n    _setupRole(DEFAULT_ADMIN_ROLE, owner);\n    grantRole(WHITELISTED_HOLDER_ROLE, sender);\n    grantRole(MINTER_ROLE, sender);\n    grantRole(VALT_OPERATOR, sender);\n    _mint(sender, supply * (10**uint256(decimals())));\n  }\n\n  function updateContractMetadata(string memory newData) public {\n    require(hasRole(VALT_OPERATOR, msg.sender), \"Not a operator\");\n    contractMetadata = newData;\n  }\n\n  function enableWhitelist(uint256 newValue) public {\n    require(hasRole(VALT_OPERATOR, msg.sender), \"Not a operator\");\n    isWhitelistEnabled = newValue;\n  }\n\n  function checkWhitelist() public view returns (uint256) {\n    return isWhitelistEnabled;\n  }\n\n  function mint(address to, uint256 amount) public {\n    // require that the requester have the role of Minter\n    require(hasRole(MINTER_ROLE, msg.sender), \"Not a minter\");\n    _mint(to, amount * (10**uint256(decimals())));\n  }\n\n  function getRedemptionAvailableForUser(address user)\n    public\n    view\n    returns (uint256)\n  {\n    return redemptionLookup[user];\n  }\n\n  function getRedemptionAmount(address rewardToken, address user)\n    public\n    view\n    returns (uint256)\n  {\n    for (uint256 i = 0; i < redemptionRecordList.length; i++) {\n      RedemptionRecord memory record = redemptionRecordList[i];\n      if (record.wallet == user && record.token == rewardToken) {\n        return record.amount;\n      }\n    }\n    return 0;\n  }\n\n  function getRedemptionStatus(address rewardToken, address user)\n    public\n    view\n    returns (string memory)\n  {\n    for (uint256 i = 0; i < redemptionRecordList.length; i++) {\n      RedemptionRecord memory record = redemptionRecordList[i];\n      if (record.wallet == user && record.token == rewardToken) {\n        return record.status;\n      }\n    }\n    return \"no record\";\n  }\n\n  function startRedeem(uint256 amount, address forUser) private {\n    _burn(forUser, amount);\n    redemptionLookup[forUser] += amount;\n  }\n\n  function batchStartRedeem() public {\n    require(block.timestamp > vaultMaturity, \"Not at maturity\");\n    require(hasRole(VALT_OPERATOR, msg.sender), \"Not a operator\");\n\n    for (uint256 i = 0; i < tokenHolders.length; i++) {\n      address user = tokenHolders[i];\n      uint256 amount = balanceOf(user);\n      startRedeem(amount, user);\n    }\n  }\n\n  function approveRedemption() public {\n    require(hasRole(VALT_OPERATOR, msg.sender), \"Not a operator\");\n    require(block.timestamp > vaultMaturity, \"Not at maturity\");\n\n    for (uint256 z = 0; z < tokenHolders.length; z++) {\n      address user = tokenHolders[z];\n\n      for (uint256 i = 0; i < stableCoins.length; i++) {\n        address rToken = stableCoins[i];\n        uint256 amount = ERC20(rToken).balanceOf(user);\n        RedemptionRecord memory newRecord = RedemptionRecord(\n          stableCoins[i],\n          user,\n          amount,\n          \"pending\"\n        );\n        redemptionRecordList.push(newRecord);\n      }\n    }\n  }\n\n  function markRedeemed(uint256 amount, address account) external {\n    require(hasRole(VALT_OPERATOR, msg.sender), \"Not a operator\");\n    redemptionLookup[account] -= amount;\n  }\n\n  function getStableCoins() public view returns (address[] memory) {\n    return stableCoins;\n  }\n\n  function getTokenHolders() public view returns (address[] memory) {\n    return tokenHolders;\n  }\n\n  function addToStableCoins(address newToken) public {\n    require(hasRole(VALT_OPERATOR, msg.sender), \"Not a operator\");\n    stableCoins.push(newToken);\n  }\n\n  function getTokenVaultBalance(address rewardToken)\n    public\n    view\n    returns (uint256)\n  {\n    uint256 highAmount = 0;\n    for (uint256 i = 0; i < depositRecordList.length; i++) {\n      DepositRecord memory record = depositRecordList[i];\n      if (record.token == rewardToken && record.amount > highAmount) {\n        highAmount = record.amount;\n      }\n    }\n    return highAmount;\n  }\n\n  function depositIntoStableCoin(address rewardToken, uint256 amount) public {\n    require(hasRole(VALT_OPERATOR, msg.sender), \"Not a operator\");\n    address from = msg.sender;\n\n    for (uint256 i = 0; i < stableCoins.length; i++) {\n      address rToken = stableCoins[i];\n      address rTokenAddress = stableCoins[i];\n      if (rewardToken == rTokenAddress) {\n        ERC20(rToken).transferFrom(from, address(this), amount);\n      }\n    }\n\n    uint256 currentBalance = ERC20(rewardToken).balanceOf(address(this));\n    DepositRecord memory newRecord = DepositRecord(rewardToken, currentBalance);\n    depositRecordList.push(newRecord);\n  }\n\n  function redeemFromStableCoin(address rewardToken, address tokenHolder)\n    public\n  {\n    require(block.timestamp > vaultMaturity, \"Not at maturity\");\n\n    address from = msg.sender;\n    uint256 redeemAmount = 0;\n    for (uint256 i = 0; i < redemptionRecordList.length; i++) {\n      if (\n        redemptionRecordList[i].wallet == tokenHolder &&\n        redemptionRecordList[i].token == rewardToken\n      ) {\n        if (\n          keccak256(bytes(redemptionRecordList[i].status)) !=\n          keccak256(bytes(\"paid\"))\n        ) {\n          redeemAmount = redemptionRecordList[i].amount;\n        }\n      }\n    }\n\n    for (uint256 i = 0; i < stableCoins.length; i++) {\n      address rToken = stableCoins[i];\n      address rTokenAddress = stableCoins[i];\n      if (rewardToken == rTokenAddress) {\n        ERC20(rToken).approve(from, redeemAmount);\n        ERC20(rToken).transfer(from, redeemAmount);\n      }\n    }\n\n    for (uint256 z = 0; z < redemptionRecordList.length; z++) {\n      if (\n        redemptionRecordList[z].wallet == tokenHolder &&\n        redemptionRecordList[z].token == rewardToken\n      ) {\n        redemptionRecordList[z].status = \"paid\";\n      }\n    }\n  }\n\n  //all token transfers must have a recpient in the whitelist\n  function _beforeTokenTransfer(\n    address from,\n    address to,\n    uint256 amount\n  ) internal virtual override {\n    super._beforeTokenTransfer(from, to, amount);\n    tokenHolders.push(to);\n    require(\n      _validRecipient(to, msg.sender),\n      \"ERC20WithSafeTransfer: invalid recipient\"\n    );\n  }\n\n  // validate the recipeient is in the whitelist\n  function _validRecipient(address to, address sender)\n    private\n    view\n    returns (bool)\n  {\n    if (isWhitelistEnabled == 0) {\n      return true;\n    }\n\n    if (hasRole(ROUTER_ROLE, sender)) {\n      return true;\n    }\n\n    require(\n      hasRole(WHITELISTED_HOLDER_ROLE, to),\n      \"Recipient does not have access\"\n    );\n    return true;\n  }\n}\n",
  "sourcePath": "/Users/charlespacker/alloyx-frontend/alloyx/contracts/DestinationBondToken.sol",
  "compiler": {
    "name": "solc",
    "version": "0.8.0+commit.c7dfd78e.Emscripten.clang"
  },
  "schemaVersion": "3.4.3",
  "updatedAt": "2021-09-07T13:54:42.941Z",
  "devdoc": {
    "kind": "dev",
    "methods": {
      "allowance(address,address)": {
        "details": "See {IERC20-allowance}."
      },
      "approve(address,uint256)": {
        "details": "See {IERC20-approve}. Requirements: - `spender` cannot be the zero address."
      },
      "balanceOf(address)": {
        "details": "See {IERC20-balanceOf}."
      },
      "decimals()": {
        "details": "Returns the number of decimals used to get its user representation. For example, if `decimals` equals `2`, a balance of `505` tokens should be displayed to a user as `5.05` (`505 / 10 ** 2`). Tokens usually opt for a value of 18, imitating the relationship between Ether and Wei. This is the value {ERC20} uses, unless this function is overridden; NOTE: This information is only used for _display_ purposes: it in no way affects any of the arithmetic of the contract, including {IERC20-balanceOf} and {IERC20-transfer}."
      },
      "decreaseAllowance(address,uint256)": {
        "details": "Atomically decreases the allowance granted to `spender` by the caller. This is an alternative to {approve} that can be used as a mitigation for problems described in {IERC20-approve}. Emits an {Approval} event indicating the updated allowance. Requirements: - `spender` cannot be the zero address. - `spender` must have allowance for the caller of at least `subtractedValue`."
      },
      "getRoleAdmin(bytes32)": {
        "details": "Returns the admin role that controls `role`. See {grantRole} and {revokeRole}. To change a role's admin, use {_setRoleAdmin}."
      },
      "grantRole(bytes32,address)": {
        "details": "Grants `role` to `account`. If `account` had not been already granted `role`, emits a {RoleGranted} event. Requirements: - the caller must have ``role``'s admin role."
      },
      "hasRole(bytes32,address)": {
        "details": "Returns `true` if `account` has been granted `role`."
      },
      "increaseAllowance(address,uint256)": {
        "details": "Atomically increases the allowance granted to `spender` by the caller. This is an alternative to {approve} that can be used as a mitigation for problems described in {IERC20-approve}. Emits an {Approval} event indicating the updated allowance. Requirements: - `spender` cannot be the zero address."
      },
      "name()": {
        "details": "Returns the name of the token."
      },
      "renounceRole(bytes32,address)": {
        "details": "Revokes `role` from the calling account. Roles are often managed via {grantRole} and {revokeRole}: this function's purpose is to provide a mechanism for accounts to lose their privileges if they are compromised (such as when a trusted device is misplaced). If the calling account had been granted `role`, emits a {RoleRevoked} event. Requirements: - the caller must be `account`."
      },
      "revokeRole(bytes32,address)": {
        "details": "Revokes `role` from `account`. If `account` had been granted `role`, emits a {RoleRevoked} event. Requirements: - the caller must have ``role``'s admin role."
      },
      "supportsInterface(bytes4)": {
        "details": "See {IERC165-supportsInterface}."
      },
      "symbol()": {
        "details": "Returns the symbol of the token, usually a shorter version of the name."
      },
      "totalSupply()": {
        "details": "See {IERC20-totalSupply}."
      },
      "transfer(address,uint256)": {
        "details": "See {IERC20-transfer}. Requirements: - `recipient` cannot be the zero address. - the caller must have a balance of at least `amount`."
      },
      "transferFrom(address,address,uint256)": {
        "details": "See {IERC20-transferFrom}. Emits an {Approval} event indicating the updated allowance. This is not required by the EIP. See the note at the beginning of {ERC20}. Requirements: - `sender` and `recipient` cannot be the zero address. - `sender` must have a balance of at least `amount`. - the caller must have allowance for ``sender``'s tokens of at least `amount`."
      }
    },
    "version": 1
  },
  "userdoc": {
    "kind": "user",
    "methods": {},
    "version": 1
  }
}