{
  "contractName": "TokenVault",
  "abi": [
    {
      "inputs": [
        {
          "internalType": "address",
          "name": "token",
          "type": "address"
        },
        {
          "internalType": "uint256",
          "name": "newMaturity",
          "type": "uint256"
        },
        {
          "internalType": "uint256",
          "name": "newYield",
          "type": "uint256"
        },
        {
          "internalType": "address",
          "name": "contractCreator",
          "type": "address"
        },
        {
          "internalType": "address",
          "name": "admin",
          "type": "address"
        }
      ],
      "stateMutability": "nonpayable",
      "type": "constructor"
    },
    {
      "anonymous": false,
      "inputs": [
        {
          "indexed": false,
          "internalType": "address",
          "name": "from",
          "type": "address"
        }
      ],
      "name": "Deposit",
      "type": "event"
    },
    {
      "anonymous": false,
      "inputs": [
        {
          "indexed": true,
          "internalType": "bytes32",
          "name": "role",
          "type": "bytes32"
        },
        {
          "indexed": true,
          "internalType": "bytes32",
          "name": "previousAdminRole",
          "type": "bytes32"
        },
        {
          "indexed": true,
          "internalType": "bytes32",
          "name": "newAdminRole",
          "type": "bytes32"
        }
      ],
      "name": "RoleAdminChanged",
      "type": "event"
    },
    {
      "anonymous": false,
      "inputs": [
        {
          "indexed": true,
          "internalType": "bytes32",
          "name": "role",
          "type": "bytes32"
        },
        {
          "indexed": true,
          "internalType": "address",
          "name": "account",
          "type": "address"
        },
        {
          "indexed": true,
          "internalType": "address",
          "name": "sender",
          "type": "address"
        }
      ],
      "name": "RoleGranted",
      "type": "event"
    },
    {
      "anonymous": false,
      "inputs": [
        {
          "indexed": true,
          "internalType": "bytes32",
          "name": "role",
          "type": "bytes32"
        },
        {
          "indexed": true,
          "internalType": "address",
          "name": "account",
          "type": "address"
        },
        {
          "indexed": true,
          "internalType": "address",
          "name": "sender",
          "type": "address"
        }
      ],
      "name": "RoleRevoked",
      "type": "event"
    },
    {
      "anonymous": false,
      "inputs": [
        {
          "indexed": false,
          "internalType": "address",
          "name": "from",
          "type": "address"
        }
      ],
      "name": "Withdraw",
      "type": "event"
    },
    {
      "inputs": [],
      "name": "ADMIN",
      "outputs": [
        {
          "internalType": "bytes32",
          "name": "",
          "type": "bytes32"
        }
      ],
      "stateMutability": "view",
      "type": "function"
    },
    {
      "inputs": [],
      "name": "DEFAULT_ADMIN_ROLE",
      "outputs": [
        {
          "internalType": "bytes32",
          "name": "",
          "type": "bytes32"
        }
      ],
      "stateMutability": "view",
      "type": "function"
    },
    {
      "inputs": [],
      "name": "VAULT_OPERATOR",
      "outputs": [
        {
          "internalType": "bytes32",
          "name": "",
          "type": "bytes32"
        }
      ],
      "stateMutability": "view",
      "type": "function"
    },
    {
      "inputs": [],
      "name": "deployTime",
      "outputs": [
        {
          "internalType": "uint256",
          "name": "",
          "type": "uint256"
        }
      ],
      "stateMutability": "view",
      "type": "function"
    },
    {
      "inputs": [
        {
          "internalType": "bytes32",
          "name": "role",
          "type": "bytes32"
        }
      ],
      "name": "getRoleAdmin",
      "outputs": [
        {
          "internalType": "bytes32",
          "name": "",
          "type": "bytes32"
        }
      ],
      "stateMutability": "view",
      "type": "function"
    },
    {
      "inputs": [
        {
          "internalType": "bytes32",
          "name": "role",
          "type": "bytes32"
        },
        {
          "internalType": "address",
          "name": "account",
          "type": "address"
        }
      ],
      "name": "grantRole",
      "outputs": [],
      "stateMutability": "nonpayable",
      "type": "function"
    },
    {
      "inputs": [
        {
          "internalType": "bytes32",
          "name": "role",
          "type": "bytes32"
        },
        {
          "internalType": "address",
          "name": "account",
          "type": "address"
        }
      ],
      "name": "hasRole",
      "outputs": [
        {
          "internalType": "bool",
          "name": "",
          "type": "bool"
        }
      ],
      "stateMutability": "view",
      "type": "function"
    },
    {
      "inputs": [],
      "name": "isWithdrawEnabled",
      "outputs": [
        {
          "internalType": "bool",
          "name": "",
          "type": "bool"
        }
      ],
      "stateMutability": "view",
      "type": "function"
    },
    {
      "inputs": [],
      "name": "maturity",
      "outputs": [
        {
          "internalType": "uint256",
          "name": "",
          "type": "uint256"
        }
      ],
      "stateMutability": "view",
      "type": "function"
    },
    {
      "inputs": [],
      "name": "primaryTokenSupply",
      "outputs": [
        {
          "internalType": "uint256",
          "name": "",
          "type": "uint256"
        }
      ],
      "stateMutability": "view",
      "type": "function"
    },
    {
      "inputs": [
        {
          "internalType": "bytes32",
          "name": "role",
          "type": "bytes32"
        },
        {
          "internalType": "address",
          "name": "account",
          "type": "address"
        }
      ],
      "name": "renounceRole",
      "outputs": [],
      "stateMutability": "nonpayable",
      "type": "function"
    },
    {
      "inputs": [
        {
          "internalType": "bytes32",
          "name": "role",
          "type": "bytes32"
        },
        {
          "internalType": "address",
          "name": "account",
          "type": "address"
        }
      ],
      "name": "revokeRole",
      "outputs": [],
      "stateMutability": "nonpayable",
      "type": "function"
    },
    {
      "inputs": [
        {
          "internalType": "address",
          "name": "",
          "type": "address"
        }
      ],
      "name": "stableCoinAvailable",
      "outputs": [
        {
          "internalType": "uint256",
          "name": "",
          "type": "uint256"
        }
      ],
      "stateMutability": "view",
      "type": "function"
    },
    {
      "inputs": [
        {
          "internalType": "bytes4",
          "name": "interfaceId",
          "type": "bytes4"
        }
      ],
      "name": "supportsInterface",
      "outputs": [
        {
          "internalType": "bool",
          "name": "",
          "type": "bool"
        }
      ],
      "stateMutability": "view",
      "type": "function"
    },
    {
      "inputs": [],
      "name": "tokenContract",
      "outputs": [
        {
          "internalType": "contract ERC20",
          "name": "",
          "type": "address"
        }
      ],
      "stateMutability": "view",
      "type": "function"
    },
    {
      "inputs": [],
      "name": "vaultOwner",
      "outputs": [
        {
          "internalType": "address",
          "name": "",
          "type": "address"
        }
      ],
      "stateMutability": "view",
      "type": "function"
    },
    {
      "inputs": [],
      "name": "yield",
      "outputs": [
        {
          "internalType": "uint256",
          "name": "",
          "type": "uint256"
        }
      ],
      "stateMutability": "view",
      "type": "function"
    },
    {
      "inputs": [],
      "name": "getStableCoins",
      "outputs": [
        {
          "internalType": "address[]",
          "name": "",
          "type": "address[]"
        }
      ],
      "stateMutability": "view",
      "type": "function"
    },
    {
      "inputs": [
        {
          "internalType": "address",
          "name": "newToken",
          "type": "address"
        }
      ],
      "name": "addToStableCoins",
      "outputs": [],
      "stateMutability": "nonpayable",
      "type": "function"
    },
    {
      "inputs": [],
      "name": "getERC20Address",
      "outputs": [
        {
          "internalType": "contract ERC20",
          "name": "",
          "type": "address"
        }
      ],
      "stateMutability": "view",
      "type": "function"
    },
    {
      "inputs": [
        {
          "internalType": "bool",
          "name": "value",
          "type": "bool"
        }
      ],
      "name": "updateWithrawEnabled",
      "outputs": [],
      "stateMutability": "nonpayable",
      "type": "function"
    },
    {
      "inputs": [
        {
          "internalType": "address",
          "name": "rewardToken",
          "type": "address"
        }
      ],
      "name": "getTokenVaultBalance",
      "outputs": [
        {
          "internalType": "uint256",
          "name": "",
          "type": "uint256"
        }
      ],
      "stateMutability": "view",
      "type": "function"
    },
    {
      "inputs": [
        {
          "internalType": "address",
          "name": "user",
          "type": "address"
        },
        {
          "internalType": "address",
          "name": "rewardToken",
          "type": "address"
        },
        {
          "internalType": "uint256",
          "name": "amount",
          "type": "uint256"
        }
      ],
      "name": "approveRedemption",
      "outputs": [],
      "stateMutability": "nonpayable",
      "type": "function"
    },
    {
      "inputs": [
        {
          "internalType": "address",
          "name": "rewardToken",
          "type": "address"
        },
        {
          "internalType": "address",
          "name": "user",
          "type": "address"
        }
      ],
      "name": "getRedemptionAmount",
      "outputs": [
        {
          "internalType": "uint256",
          "name": "",
          "type": "uint256"
        }
      ],
      "stateMutability": "view",
      "type": "function"
    },
    {
      "inputs": [
        {
          "internalType": "address",
          "name": "rewardToken",
          "type": "address"
        },
        {
          "internalType": "address",
          "name": "user",
          "type": "address"
        }
      ],
      "name": "getRedemptionStatus",
      "outputs": [
        {
          "internalType": "string",
          "name": "",
          "type": "string"
        }
      ],
      "stateMutability": "view",
      "type": "function"
    },
    {
      "inputs": [
        {
          "internalType": "address",
          "name": "rewardToken",
          "type": "address"
        },
        {
          "internalType": "uint256",
          "name": "amount",
          "type": "uint256"
        }
      ],
      "name": "depositIntoStableCoin",
      "outputs": [],
      "stateMutability": "nonpayable",
      "type": "function"
    },
    {
      "inputs": [
        {
          "internalType": "address",
          "name": "rewardToken",
          "type": "address"
        },
        {
          "internalType": "address",
          "name": "tokenHolder",
          "type": "address"
        }
      ],
      "name": "redeemFromStableCoin",
      "outputs": [],
      "stateMutability": "nonpayable",
      "type": "function"
    },
    {
      "inputs": [
        {
          "internalType": "uint256",
          "name": "amount",
          "type": "uint256"
        }
      ],
      "name": "deposit",
      "outputs": [],
      "stateMutability": "nonpayable",
      "type": "function"
    },
    {
      "inputs": [
        {
          "internalType": "uint256",
          "name": "amount",
          "type": "uint256"
        }
      ],
      "name": "withdraw",
      "outputs": [],
      "stateMutability": "nonpayable",
      "type": "function"
    }
  ],
  "bytecode": "0x60806040523480156200001157600080fd5b5060405162003099380380620030998339810160408190526200003491620005fd565b600784905542600655600883905560018054600160a060020a03808816600160a060020a0319928316179092556002805492851692909116919091179055600a805460ff19169055620000a0600080516020620030798339815191528264010000000062000117810204565b620000c4600080516020620030598339815191528264010000000062000117810204565b620000e8600080516020620030798339815191523364010000000062000117810204565b6200010c600080516020620030598339815191523364010000000062000130810204565b505050505062000802565b6200012c828264010000000062000185810204565b5050565b620001448264010000000062000221810204565b6200016b816200015c64010000000062000239810204565b6401000000006200023d810204565b62000180838364010000000062000185810204565b505050565b6200019a8282640100000000620002f4810204565b6200012c57600082815260208181526040808320600160a060020a03851684529091529020805460ff19166001179055620001dd64010000000062000239810204565b600160a060020a031681600160a060020a0316837f2f8788117e7eff1d82e926ec794901d17c78024a50270940304540a733656f0d60405160405180910390a45050565b6000818152602081905260409020600101545b919050565b3390565b620002528282640100000000620002f4810204565b6200012c576200027b600160a060020a038216601464010000000062001bf86200031d82021704565b6200029683602064010000000062001bf86200031d82021704565b604051602001620002a99291906200065a565b60408051601f19818403018152908290527f08c379a0000000000000000000000000000000000000000000000000000000008252620002eb91600401620006df565b60405180910390fd5b600091825260208281526040808420600160a060020a0393909316845291905290205460ff1690565b606060006200032e83600262000764565b6200033b90600262000749565b67ffffffffffffffff8111156200037b577f4e487b7100000000000000000000000000000000000000000000000000000000600052604160045260246000fd5b6040519080825280601f01601f191660200182016040528015620003a6576020820181803683370190505b5090507f30000000000000000000000000000000000000000000000000000000000000008160008151811062000405577f4e487b7100000000000000000000000000000000000000000000000000000000600052603260045260246000fd5b6020010190600160f860020a031916908160001a9053507f78000000000000000000000000000000000000000000000000000000000000008160018151811062000478577f4e487b7100000000000000000000000000000000000000000000000000000000600052603260045260246000fd5b6020010190600160f860020a031916908160001a90535060006200049e84600262000764565b620004ab90600162000749565b90505b6001811115620005a2577f303132333435363738396162636465660000000000000000000000000000000085600f166010811062000515577f4e487b7100000000000000000000000000000000000000000000000000000000600052603260045260246000fd5b1a7f01000000000000000000000000000000000000000000000000000000000000000282828151811062000572577f4e487b7100000000000000000000000000000000000000000000000000000000600052603260045260246000fd5b6020010190600160f860020a031916908160001a9053506010909404936200059a81620007b9565b9050620004ae565b508315620005de576040517f08c379a0000000000000000000000000000000000000000000000000000000008152600401620002eb9062000714565b9392505050565b8051600160a060020a03811681146200023457600080fd5b600080600080600060a0868803121562000615578081fd5b6200062086620005e5565b945060208601519350604086015192506200063e60608701620005e5565b91506200064e60808701620005e5565b90509295509295909350565b60007f416363657373436f6e74726f6c3a206163636f756e7420000000000000000000825283516200069481601785016020880162000786565b7f206973206d697373696e6720726f6c65200000000000000000000000000000006017918401918201528351620006d381602884016020880162000786565b01602801949350505050565b60006020825282518060208401526200070081604085016020870162000786565b601f01601f19169190910160400192915050565b6020808252818101527f537472696e67733a20686578206c656e67746820696e73756666696369656e74604082015260600190565b600082198211156200075f576200075f620007d3565b500190565b6000816000190483118215151615620007815762000781620007d3565b500290565b60005b83811015620007a357818101518382015260200162000789565b83811115620007b3576000848401525b50505050565b600081620007cb57620007cb620007d3565b506000190190565b7f4e487b7100000000000000000000000000000000000000000000000000000000600052601160045260246000fd5b61284780620008126000396000f3fe608060405234801561001057600080fd5b50600436106101ec576000357c010000000000000000000000000000000000000000000000000000000090048063782aafac11610121578063a7775ab5116100bf578063d547741f1161008e578063d547741f1461039d578063e0fc2f05146103b0578063e2195904146103b8578063fdda77bd146103cd576101ec565b8063a7775ab514610367578063adcd63281461037a578063b6b55f2514610382578063b9f890de14610395576101ec565b806388685ab5116100fb57806388685ab51461032657806391d1485414610339578063a14e4d691461034c578063a217fddf1461035f576101ec565b8063782aafac146103035780637a40624b14610316578063880dc4e61461031e576101ec565b80632a0acc6a1161018e57806336568abe1161016857806336568abe146102c25780635217af4c146102d557806355a373d6146102e85780636b215c04146102f0576101ec565b80632a0acc6a146102945780632e1a7d4d1461029c5780632f2ff15d146102af576101ec565b80631f52692b116101ca5780631f52692b1461024f578063204f83f914610264578063248a9ca314610279578063285939841461028c576101ec565b806301ffc9a7146101f15780630d4552dd1461021a5780630f67c5c11461023a575b600080fd5b6102046101ff3660046122a7565b6103e0565b60405161021191906124f4565b60405180910390f35b61022d61022836600461219f565b61043e565b6040516102119190612508565b61024d6102483660046121d1565b610632565b005b6102576108ef565b6040516102119190612422565b61026c61090b565b60405161021191906124ff565b61026c61028736600461226d565b610911565b61026c610926565b61026c61092c565b61024d6102aa36600461226d565b610950565b61024d6102bd366004612285565b610b82565b61024d6102d0366004612285565b610bab565b61024d6102e3366004612235565b610c25565b610257610c98565b61024d6102fe36600461219f565b610cb4565b61024d61031136600461220c565b61127a565b61026c6115aa565b6102046115b0565b61026c610334366004612185565b6115b9565b610204610347366004612285565b6115cb565b61026c61035a366004612185565b611601565b61026c6116bc565b61024d610375366004612185565b6116c1565b61026c61177e565b61024d61039036600461226d565b611784565b61025761196a565b61024d6103ab366004612285565b611986565b61026c6119a5565b6103c06119c9565b604051610211919061249a565b61026c6103db36600461219f565b611a38565b60007fffffffff0000000000000000000000000000000000000000000000000000000082167f7965db0b000000000000000000000000000000000000000000000000000000001480610436575061043682611e99565b90505b919050565b606060005b6003548110156105f557600060038281548110610477576000805160206127f2833981519152600052603260045260246000fd5b6000918252602091829020604080516080810182526004909302909101805473ffffffffffffffffffffffffffffffffffffffff9081168452600182015416938301939093526002830154908201526003820180549192916060840191906104de90612766565b80601f016020809104026020016040519081016040528092919081815260200182805461050a90612766565b80156105575780601f1061052c57610100808354040283529160200191610557565b820191906000526020600020905b81548152906001019060200180831161053a57829003601f168201915b50505050508152505090508373ffffffffffffffffffffffffffffffffffffffff16816020015173ffffffffffffffffffffffffffffffffffffffff161480156105d057508473ffffffffffffffffffffffffffffffffffffffff16816000015173ffffffffffffffffffffffffffffffffffffffff16145b156105e25760600151915061062c9050565b50806105ed816127a8565b915050610443565b505060408051808201909152600981527f6e6f207265636f7264000000000000000000000000000000000000000000000060208201525b92915050565b61065c7f76d92ef51f7d7d45b3e891347e649744c224326a0412ae46e6627a7b6b2edb86336115cb565b61069b576040517f08c379a0000000000000000000000000000000000000000000000000000000008152600401610692906125a7565b60405180910390fd5b60075442116106d6576040517f08c379a00000000000000000000000000000000000000000000000000000000081526004016106929061264c565b60005b600b548110156108e9576000600b828154811061070d576000805160206127f2833981519152600052603260045260246000fd5b60009182526020909120015473ffffffffffffffffffffffffffffffffffffffff908116915084168114156108d65760006040518060800160405280600b8581548110610771576000805160206127f2833981519152600052603260045260246000fd5b60009182526020808320919091015473ffffffffffffffffffffffffffffffffffffffff90811684528a81168483015260408085018a905280518082018252600781527f70656e64696e67000000000000000000000000000000000000000000000000008185015260609586015260038054600181018255945285517fc2575a0e9e593c00f959f8c92f12db2869c3395a3b0502d05e2516446f71f85b6004909502948501805473ffffffffffffffffffffffffffffffffffffffff19908116928516929092178155878501517fc2575a0e9e593c00f959f8c92f12db2869c3395a3b0502d05e2516446f71f85c8701805490931694169390931790558501517fc2575a0e9e593c00f959f8c92f12db2869c3395a3b0502d05e2516446f71f85d84015592840151805194955085946108d1937fc2575a0e9e593c00f959f8c92f12db2869c3395a3b0502d05e2516446f71f85e019291909101906120c8565b505050505b50806108e1816127a8565b9150506106d9565b50505050565b60025473ffffffffffffffffffffffffffffffffffffffff1681565b60075481565b60009081526020819052604090206001015490565b60085481565b7fdf8b4c520ffe197c5343c6f5aec59570151ef9a492f2c624fd45ddde6135ec4281565b600a5460ff161515600114610991576040517f08c379a0000000000000000000000000000000000000000000000000000000008152600401610692906125de565b6109bb7f76d92ef51f7d7d45b3e891347e649744c224326a0412ae46e6627a7b6b2edb86336115cb565b6109f1576040517f08c379a0000000000000000000000000000000000000000000000000000000008152600401610692906125a7565b6001546040517f095ea7b3000000000000000000000000000000000000000000000000000000008152339173ffffffffffffffffffffffffffffffffffffffff169063095ea7b390610a499084908690600401612474565b602060405180830381600087803b158015610a6357600080fd5b505af1158015610a77573d6000803e3d6000fd5b505050506040513d601f19601f82011682018060405250810190610a9b9190612251565b506001546040517fa9059cbb00000000000000000000000000000000000000000000000000000000815273ffffffffffffffffffffffffffffffffffffffff9091169063a9059cbb90610af49084908690600401612474565b602060405180830381600087803b158015610b0e57600080fd5b505af1158015610b22573d6000803e3d6000fd5b505050506040513d601f19601f82011682018060405250810190610b469190612251565b507ff67611512e0a2d90c96fd3f08dca4971bc45fba9dc679eabe839a32abbe58a8e81604051610b769190612422565b60405180910390a15050565b610b8b82610911565b610b9c81610b97611ee3565b611ee7565b610ba68383611f72565b505050565b610bb3611ee3565b73ffffffffffffffffffffffffffffffffffffffff168173ffffffffffffffffffffffffffffffffffffffff1614610c17576040517f08c379a000000000000000000000000000000000000000000000000000000000815260040161069290612683565b610c21828261201e565b5050565b610c4f7fdf8b4c520ffe197c5343c6f5aec59570151ef9a492f2c624fd45ddde6135ec42336115cb565b610c85576040517f08c379a000000000000000000000000000000000000000000000000000000000815260040161069290612615565b600a805460ff1916911515919091179055565b60015473ffffffffffffffffffffffffffffffffffffffff1681565b6007544211610cef576040517f08c379a00000000000000000000000000000000000000000000000000000000081526004016106929061264c565b336000805b600354811015610ed7578373ffffffffffffffffffffffffffffffffffffffff1660038281548110610d3d576000805160206127f2833981519152600052603260045260246000fd5b600091825260209091206001600490920201015473ffffffffffffffffffffffffffffffffffffffff16148015610dd757508473ffffffffffffffffffffffffffffffffffffffff1660038281548110610dae576000805160206127f2833981519152600052603260045260246000fd5b600091825260209091206004909102015473ffffffffffffffffffffffffffffffffffffffff16145b15610ec55760408051808201909152600481527f7061696400000000000000000000000000000000000000000000000000000000602090910152600380547f5ab53550295bfc9315c562232d99e75119ebb4d3b8a6e012160126a3506b02a8919083908110610e5d576000805160206127f2833981519152600052603260045260246000fd5b9060005260206000209060040201600301604051610e7b91906122ff565b604051809103902014610ec55760038181548110610eb0576000805160206127f2833981519152600052603260045260246000fd5b90600052602060002090600402016002015491505b80610ecf816127a8565b915050610cf4565b5060005b600b548110156110f1576000600b8281548110610f0f576000805160206127f2833981519152600052603260045260246000fd5b6000918252602082200154600b805473ffffffffffffffffffffffffffffffffffffffff90921693509084908110610f5e576000805160206127f2833981519152600052603260045260246000fd5b60009182526020909120015473ffffffffffffffffffffffffffffffffffffffff908116915087168114156110dc576040517f095ea7b300000000000000000000000000000000000000000000000000000000815273ffffffffffffffffffffffffffffffffffffffff83169063095ea7b390610fe19088908890600401612474565b602060405180830381600087803b158015610ffb57600080fd5b505af115801561100f573d6000803e3d6000fd5b505050506040513d601f19601f820116820180604052508101906110339190612251565b506040517fa9059cbb00000000000000000000000000000000000000000000000000000000815273ffffffffffffffffffffffffffffffffffffffff83169063a9059cbb906110889088908890600401612474565b602060405180830381600087803b1580156110a257600080fd5b505af11580156110b6573d6000803e3d6000fd5b505050506040513d601f19601f820116820180604052508101906110da9190612251565b505b505080806110e9906127a8565b915050610edb565b5060005b600354811015611273578373ffffffffffffffffffffffffffffffffffffffff166003828154811061113e576000805160206127f2833981519152600052603260045260246000fd5b600091825260209091206001600490920201015473ffffffffffffffffffffffffffffffffffffffff161480156111d857508473ffffffffffffffffffffffffffffffffffffffff16600382815481106111af576000805160206127f2833981519152600052603260045260246000fd5b600091825260209091206004909102015473ffffffffffffffffffffffffffffffffffffffff16145b15611261576040518060400160405280600481526020017f70616964000000000000000000000000000000000000000000000000000000008152506003828154811061123b576000805160206127f2833981519152600052603260045260246000fd5b9060005260206000209060040201600301908051906020019061125f9291906120c8565b505b8061126b816127a8565b9150506110f5565b5050505050565b6112a47f76d92ef51f7d7d45b3e891347e649744c224326a0412ae46e6627a7b6b2edb86336115cb565b6112da576040517f08c379a0000000000000000000000000000000000000000000000000000000008152600401610692906125a7565b3360005b600b5481101561144f576000600b8281548110611312576000805160206127f2833981519152600052603260045260246000fd5b6000918252602082200154600b805473ffffffffffffffffffffffffffffffffffffffff90921693509084908110611361576000805160206127f2833981519152600052603260045260246000fd5b60009182526020909120015473ffffffffffffffffffffffffffffffffffffffff9081169150861681141561143a576040517f23b872dd00000000000000000000000000000000000000000000000000000000815273ffffffffffffffffffffffffffffffffffffffff8316906323b872dd906113e690879030908a90600401612443565b602060405180830381600087803b15801561140057600080fd5b505af1158015611414573d6000803e3d6000fd5b505050506040513d601f19601f820116820180604052508101906114389190612251565b505b50508080611447906127a8565b9150506112de565b506040517f70a0823100000000000000000000000000000000000000000000000000000000815260009073ffffffffffffffffffffffffffffffffffffffff8516906370a08231906114a5903090600401612422565b60206040518083038186803b1580156114bd57600080fd5b505afa1580156114d1573d6000803e3d6000fd5b505050506040513d601f19601f820116820180604052508101906114f591906122e7565b6040805180820190915273ffffffffffffffffffffffffffffffffffffffff9586168152602081019182526004805460018101825560009190915290517f8a35acfbc15ff81a39ae7d344fd709f28e8600b4aa8c65c6b64bfe7fe36bd19b6002909202918201805473ffffffffffffffffffffffffffffffffffffffff19169190971617909555517f8a35acfbc15ff81a39ae7d344fd709f28e8600b4aa8c65c6b64bfe7fe36bd19c90940193909355505050565b60065481565b600a5460ff1681565b60056020526000908152604090205481565b60009182526020828152604080842073ffffffffffffffffffffffffffffffffffffffff93909316845291905290205460ff1690565b600080805b6004548110156116b55760006004828154811061163a576000805160206127f2833981519152600052603260045260246000fd5b600091825260209182902060408051808201909152600290920201805473ffffffffffffffffffffffffffffffffffffffff908116808452600190920154938301939093529092509086161480156116955750828160200151115b156116a257806020015192505b50806116ad816127a8565b915050611606565b5092915050565b600081565b60025473ffffffffffffffffffffffffffffffffffffffff163314611712576040517f08c379a000000000000000000000000000000000000000000000000000000000815260040161069290612570565b600b80546001810182556000919091527f0175b7a638427703f0dbe7bb9bbf987a2551717b34e79f33b5b1008d1fa01db901805473ffffffffffffffffffffffffffffffffffffffff191673ffffffffffffffffffffffffffffffffffffffff92909216919091179055565b60095481565b6117ae7f76d92ef51f7d7d45b3e891347e649744c224326a0412ae46e6627a7b6b2edb86336115cb565b6117e4576040517f08c379a0000000000000000000000000000000000000000000000000000000008152600401610692906125a7565b6001546040517f23b872dd000000000000000000000000000000000000000000000000000000008152339173ffffffffffffffffffffffffffffffffffffffff16906323b872dd9061183e90849030908790600401612443565b602060405180830381600087803b15801561185857600080fd5b505af115801561186c573d6000803e3d6000fd5b505050506040513d601f19601f820116820180604052508101906118909190612251565b506001546040517f70a0823100000000000000000000000000000000000000000000000000000000815273ffffffffffffffffffffffffffffffffffffffff909116906370a08231906118e7903090600401612422565b60206040518083038186803b1580156118ff57600080fd5b505afa158015611913573d6000803e3d6000fd5b505050506040513d601f19601f8201168201806040525081019061193791906122e7565b6009556040517f8ce0bd46ec50cf39f0d0ea8686a686eb226af5796dcda4231b26fb84b5ef123490610b76908390612422565b60015473ffffffffffffffffffffffffffffffffffffffff1690565b61198f82610911565b61199b81610b97611ee3565b610ba6838361201e565b7f76d92ef51f7d7d45b3e891347e649744c224326a0412ae46e6627a7b6b2edb8681565b6060600b805480602002602001604051908101604052809291908181526020018280548015611a2e57602002820191906000526020600020905b815473ffffffffffffffffffffffffffffffffffffffff168152600190910190602001808311611a03575b5050505050905090565b6000805b600354811015611bee57600060038281548110611a70576000805160206127f2833981519152600052603260045260246000fd5b6000918252602091829020604080516080810182526004909302909101805473ffffffffffffffffffffffffffffffffffffffff908116845260018201541693830193909352600283015490820152600382018054919291606084019190611ad790612766565b80601f0160208091040260200160405190810160405280929190818152602001828054611b0390612766565b8015611b505780601f10611b2557610100808354040283529160200191611b50565b820191906000526020600020905b815481529060010190602001808311611b3357829003601f168201915b50505050508152505090508373ffffffffffffffffffffffffffffffffffffffff16816020015173ffffffffffffffffffffffffffffffffffffffff16148015611bc957508473ffffffffffffffffffffffffffffffffffffffff16816000015173ffffffffffffffffffffffffffffffffffffffff16145b15611bdb5760400151915061062c9050565b5080611be6816127a8565b915050611a3c565b5060009392505050565b60606000611c07836002612704565b611c129060026126ec565b67ffffffffffffffff811115611c3f576000805160206127f2833981519152600052604160045260246000fd5b6040519080825280601f01601f191660200182016040528015611c69576020820181803683370190505b5090507f300000000000000000000000000000000000000000000000000000000000000081600081518110611cb5576000805160206127f2833981519152600052603260045260246000fd5b60200101907effffffffffffffffffffffffffffffffffffffffffffffffffffffffffffff1916908160001a9053507f780000000000000000000000000000000000000000000000000000000000000081600181518110611d2d576000805160206127f2833981519152600052603260045260246000fd5b60200101907effffffffffffffffffffffffffffffffffffffffffffffffffffffffffffff1916908160001a9053506000611d69846002612704565b611d749060016126ec565b90505b6001811115611e59577f303132333435363738396162636465660000000000000000000000000000000085600f1660108110611dca576000805160206127f2833981519152600052603260045260246000fd5b1a7f010000000000000000000000000000000000000000000000000000000000000002828281518110611e14576000805160206127f2833981519152600052603260045260246000fd5b60200101907effffffffffffffffffffffffffffffffffffffffffffffffffffffffffffff1916908160001a905350601090940493611e528161274f565b9050611d77565b508315611e92576040517f08c379a00000000000000000000000000000000000000000000000000000000081526004016106929061253b565b9392505050565b7fffffffff0000000000000000000000000000000000000000000000000000000081167f01ffc9a70000000000000000000000000000000000000000000000000000000014919050565b3390565b611ef182826115cb565b610c2157611f168173ffffffffffffffffffffffffffffffffffffffff166014611bf8565b611f21836020611bf8565b604051602001611f329291906123a1565b60408051601f19818403018152908290527f08c379a000000000000000000000000000000000000000000000000000000000825261069291600401612508565b611f7c82826115cb565b610c215760008281526020818152604080832073ffffffffffffffffffffffffffffffffffffffff851684529091529020805460ff19166001179055611fc0611ee3565b73ffffffffffffffffffffffffffffffffffffffff168173ffffffffffffffffffffffffffffffffffffffff16837f2f8788117e7eff1d82e926ec794901d17c78024a50270940304540a733656f0d60405160405180910390a45050565b61202882826115cb565b15610c215760008281526020818152604080832073ffffffffffffffffffffffffffffffffffffffff851684529091529020805460ff1916905561206a611ee3565b73ffffffffffffffffffffffffffffffffffffffff168173ffffffffffffffffffffffffffffffffffffffff16837ff6391f5c32d9c69d2a47ea670b442974b53935d1edc7fd64eb21e047a839171b60405160405180910390a45050565b8280546120d490612766565b90600052602060002090601f0160209004810192826120f6576000855561213c565b82601f1061210f57805160ff191683800117855561213c565b8280016001018555821561213c579182015b8281111561213c578251825591602001919060010190612121565b5061214892915061214c565b5090565b5b80821115612148576000815560010161214d565b803573ffffffffffffffffffffffffffffffffffffffff8116811461043957600080fd5b600060208284031215612196578081fd5b611e9282612161565b600080604083850312156121b1578081fd5b6121ba83612161565b91506121c860208401612161565b90509250929050565b6000806000606084860312156121e5578081fd5b6121ee84612161565b92506121fc60208501612161565b9150604084013590509250925092565b6000806040838503121561221e578182fd5b61222783612161565b946020939093013593505050565b600060208284031215612246578081fd5b8135611e92816127e0565b600060208284031215612262578081fd5b8151611e92816127e0565b60006020828403121561227e578081fd5b5035919050565b60008060408385031215612297578182fd5b823591506121c860208401612161565b6000602082840312156122b8578081fd5b81357fffffffff0000000000000000000000000000000000000000000000000000000081168114611e92578182fd5b6000602082840312156122f8578081fd5b5051919050565b815460009081906002810460018083168061231b57607f831692505b6020808410821415612342576000805160206127f283398151915287526022600452602487fd5b818015612356576001811461236757612393565b60ff19861689528489019650612393565b6123708a6126e0565b885b8681101561238b5781548b820152908501908301612372565b505084890196505b509498975050505050505050565b60007f416363657373436f6e74726f6c3a206163636f756e7420000000000000000000825283516123d9816017850160208801612723565b7f206973206d697373696e6720726f6c65200000000000000000000000000000006017918401918201528351612416816028840160208801612723565b01602801949350505050565b73ffffffffffffffffffffffffffffffffffffffff91909116815260200190565b73ffffffffffffffffffffffffffffffffffffffff9384168152919092166020820152604081019190915260600190565b73ffffffffffffffffffffffffffffffffffffffff929092168252602082015260400190565b6020808252825182820181905260009190848201906040850190845b818110156124e857835173ffffffffffffffffffffffffffffffffffffffff16835292840192918401916001016124b6565b50909695505050505050565b901515815260200190565b90815260200190565b6000602082528251806020840152612527816040850160208701612723565b601f01601f19169190910160400192915050565b6020808252818101527f537472696e67733a20686578206c656e67746820696e73756666696369656e74604082015260600190565b6020808252600c908201527f4e6f7420616e204f776e65720000000000000000000000000000000000000000604082015260600190565b6020808252600e908201527f4e6f742061206f70657261746f72000000000000000000000000000000000000604082015260600190565b60208082526014908201527f5769746864726177206e6f7420656e61626c6564000000000000000000000000604082015260600190565b6020808252600b908201527f4e6f7420612061646d696e000000000000000000000000000000000000000000604082015260600190565b6020808252600f908201527f4e6f74206174206d617475726974790000000000000000000000000000000000604082015260600190565b6020808252602f908201527f416363657373436f6e74726f6c3a2063616e206f6e6c792072656e6f756e636560408201527f20726f6c657320666f722073656c660000000000000000000000000000000000606082015260800190565b60009081526020902090565b600082198211156126ff576126ff6127c3565b500190565b600081600019048311821515161561271e5761271e6127c3565b500290565b60005b8381101561273e578181015183820152602001612726565b838111156108e95750506000910152565b60008161275e5761275e6127c3565b506000190190565b60028104600182168061277a57607f821691505b602082108114156127a2576000805160206127f2833981519152600052602260045260246000fd5b50919050565b60006000198214156127bc576127bc6127c3565b5060010190565b6000805160206127f2833981519152600052601160045260246000fd5b80151581146127ee57600080fd5b5056fe4e487b7100000000000000000000000000000000000000000000000000000000a2646970667358221220c323e28f89dc91b6280fb6fa9f55b24957efb970e1cc39038c5a25588abcda1464736f6c63430008000033df8b4c520ffe197c5343c6f5aec59570151ef9a492f2c624fd45ddde6135ec4276d92ef51f7d7d45b3e891347e649744c224326a0412ae46e6627a7b6b2edb86",
  "immutableReferences": {},
  "source": "// SPDX-License-Identifier: MIT\npragma solidity ^0.8.0;\n\nimport \"@openzeppelin/contracts/token/ERC20/ERC20.sol\";\nimport \"@openzeppelin/contracts/access/AccessControl.sol\";\n\n/**\n * @title TokenReceiver\n * @dev The source network vault that holds all deposits on the source chain. This vault manages deposits and redemptions for source network deposits.\n */\ncontract TokenVault is AccessControl {\n  ERC20 public tokenContract;\n  address public vaultOwner;\n\n  bytes32 public constant VAULT_OPERATOR = keccak256(\"VAULT_OPERATOR\");\n  bytes32 public constant ADMIN = keccak256(\"ADMIN\");\n\n  struct RedemptionRecord {\n    address token;\n    address wallet;\n    uint256 amount;\n    string status;\n  }\n\n  struct DepositRecord {\n    address token;\n    uint256 amount;\n  }\n\n  RedemptionRecord[] redemptionRecordList;\n  DepositRecord[] depositRecordList;\n\n  mapping(address => uint256) public stableCoinAvailable;\n\n  uint256 public deployTime;\n  uint256 public maturity;\n  uint256 public yield;\n  uint256 public primaryTokenSupply;\n\n  bool public isWithdrawEnabled;\n\n  address[] stableCoins;\n\n  event Deposit(address from);\n  event Withdraw(address from);\n\n  /**\n   * @dev Constructor sets token that can be received\n   */\n  constructor(\n    address token,\n    uint256 newMaturity,\n    uint256 newYield,\n    address contractCreator,\n    address admin\n  ) {\n    maturity = newMaturity;\n    deployTime = block.timestamp;\n    yield = newYield;\n    tokenContract = ERC20(token);\n    vaultOwner = contractCreator;\n    isWithdrawEnabled = false;\n\n    _setupRole(VAULT_OPERATOR, admin);\n    _setupRole(ADMIN, admin);\n    _setupRole(VAULT_OPERATOR, msg.sender);\n\n    grantRole(ADMIN, msg.sender);\n  }\n\n  function getStableCoins() public view returns (address[] memory) {\n    return stableCoins;\n  }\n\n  function addToStableCoins(address newToken) public {\n    require(vaultOwner == msg.sender, \"Not an Owner\");\n    stableCoins.push(newToken);\n  }\n\n  function getERC20Address() public view returns (ERC20) {\n    return tokenContract;\n  }\n\n  function updateWithrawEnabled(bool value) public {\n    require(hasRole(ADMIN, msg.sender), \"Not a admin\");\n\n    isWithdrawEnabled = value;\n  }\n\n  function getTokenVaultBalance(address rewardToken)\n    public\n    view\n    returns (uint256)\n  {\n    uint256 highAmount = 0;\n    for (uint256 i = 0; i < depositRecordList.length; i++) {\n      DepositRecord memory record = depositRecordList[i];\n      if (record.token == rewardToken && record.amount > highAmount) {\n        highAmount = record.amount;\n      }\n    }\n    return highAmount;\n  }\n\n  function approveRedemption(\n    address user,\n    address rewardToken,\n    uint256 amount\n  ) public {\n    require(hasRole(VAULT_OPERATOR, msg.sender), \"Not a operator\");\n    require(block.timestamp > maturity, \"Not at maturity\");\n\n    for (uint256 i = 0; i < stableCoins.length; i++) {\n      address rToken = stableCoins[i];\n      if (rToken == rewardToken) {\n        RedemptionRecord memory newRecord = RedemptionRecord(\n          stableCoins[i],\n          user,\n          amount,\n          \"pending\"\n        );\n        redemptionRecordList.push(newRecord);\n      }\n    }\n  }\n\n  function getRedemptionAmount(address rewardToken, address user)\n    public\n    view\n    returns (uint256)\n  {\n    for (uint256 i = 0; i < redemptionRecordList.length; i++) {\n      RedemptionRecord memory record = redemptionRecordList[i];\n      if (record.wallet == user && record.token == rewardToken) {\n        return record.amount;\n      }\n    }\n    return 0;\n  }\n\n  function getRedemptionStatus(address rewardToken, address user)\n    public\n    view\n    returns (string memory)\n  {\n    for (uint256 i = 0; i < redemptionRecordList.length; i++) {\n      RedemptionRecord memory record = redemptionRecordList[i];\n      if (record.wallet == user && record.token == rewardToken) {\n        return record.status;\n      }\n    }\n    return \"no record\";\n  }\n\n  function depositIntoStableCoin(address rewardToken, uint256 amount) public {\n    require(hasRole(VAULT_OPERATOR, msg.sender), \"Not a operator\");\n\n    address from = msg.sender;\n\n    for (uint256 i = 0; i < stableCoins.length; i++) {\n      address rToken = stableCoins[i];\n      address rTokenAddress = stableCoins[i];\n      if (rewardToken == rTokenAddress) {\n        ERC20(rToken).transferFrom(from, address(this), amount);\n      }\n    }\n\n    uint256 currentBalance = ERC20(rewardToken).balanceOf(address(this));\n    DepositRecord memory newRecord = DepositRecord(rewardToken, currentBalance);\n    depositRecordList.push(newRecord);\n  }\n\n  function redeemFromStableCoin(address rewardToken, address tokenHolder)\n    public\n  {\n    require(block.timestamp > maturity, \"Not at maturity\");\n\n    address from = msg.sender;\n    uint256 redeemAmount = 0;\n    for (uint256 i = 0; i < redemptionRecordList.length; i++) {\n      if (\n        redemptionRecordList[i].wallet == tokenHolder &&\n        redemptionRecordList[i].token == rewardToken\n      ) {\n        if (\n          keccak256(bytes(redemptionRecordList[i].status)) !=\n          keccak256(bytes(\"paid\"))\n        ) {\n          redeemAmount = redemptionRecordList[i].amount;\n        }\n      }\n    }\n\n    for (uint256 i = 0; i < stableCoins.length; i++) {\n      address rToken = stableCoins[i];\n      address rTokenAddress = stableCoins[i];\n      if (rewardToken == rTokenAddress) {\n        ERC20(rToken).approve(from, redeemAmount);\n        ERC20(rToken).transfer(from, redeemAmount);\n      }\n    }\n\n    for (uint256 z = 0; z < redemptionRecordList.length; z++) {\n      if (\n        redemptionRecordList[z].wallet == tokenHolder &&\n        redemptionRecordList[z].token == rewardToken\n      ) {\n        redemptionRecordList[z].status = \"paid\";\n      }\n    }\n  }\n\n  function deposit(uint256 amount) external {\n    require(hasRole(VAULT_OPERATOR, msg.sender), \"Not a operator\");\n    address from = msg.sender;\n    tokenContract.transferFrom(from, address(this), amount);\n    primaryTokenSupply = tokenContract.balanceOf(address(this));\n\n    emit Deposit(from);\n  }\n\n  function withdraw(uint256 amount) external {\n    require(isWithdrawEnabled == true, \"Withdraw not enabled\");\n    require(hasRole(VAULT_OPERATOR, msg.sender), \"Not a operator\");\n\n    address from = msg.sender;\n    tokenContract.approve(from, amount);\n    tokenContract.transfer(from, amount);\n    emit Withdraw(from);\n  }\n}\n",
  "sourcePath": "/Users/charlespacker/alloyx_smart_contracts/contracts/TokenVault.sol",
  "compiler": {
    "name": "solc",
    "version": "0.8.0+commit.c7dfd78e.Emscripten.clang"
  },
  "schemaVersion": "3.4.3",
  "updatedAt": "2021-09-05T01:37:20.899Z",
  "devdoc": {
    "details": "The source network vault that holds all deposits on the source chain. This vault manages deposits and redemptions for source network deposits.",
    "kind": "dev",
    "methods": {
      "constructor": {
        "details": "Constructor sets token that can be received"
      },
      "getRoleAdmin(bytes32)": {
        "details": "Returns the admin role that controls `role`. See {grantRole} and {revokeRole}. To change a role's admin, use {_setRoleAdmin}."
      },
      "grantRole(bytes32,address)": {
        "details": "Grants `role` to `account`. If `account` had not been already granted `role`, emits a {RoleGranted} event. Requirements: - the caller must have ``role``'s admin role."
      },
      "hasRole(bytes32,address)": {
        "details": "Returns `true` if `account` has been granted `role`."
      },
      "renounceRole(bytes32,address)": {
        "details": "Revokes `role` from the calling account. Roles are often managed via {grantRole} and {revokeRole}: this function's purpose is to provide a mechanism for accounts to lose their privileges if they are compromised (such as when a trusted device is misplaced). If the calling account had been granted `role`, emits a {RoleRevoked} event. Requirements: - the caller must be `account`."
      },
      "revokeRole(bytes32,address)": {
        "details": "Revokes `role` from `account`. If `account` had been granted `role`, emits a {RoleRevoked} event. Requirements: - the caller must have ``role``'s admin role."
      },
      "supportsInterface(bytes4)": {
        "details": "See {IERC165-supportsInterface}."
      }
    },
    "title": "TokenReceiver",
    "version": 1
  },
  "userdoc": {
    "kind": "user",
    "methods": {},
    "version": 1
  }
}