{
  "contractName": "TokenVault",
  "abi": [
    {
      "inputs": [
        {
          "internalType": "address",
          "name": "token",
          "type": "address"
        },
        {
          "internalType": "uint256",
          "name": "newMaturity",
          "type": "uint256"
        },
        {
          "internalType": "uint256",
          "name": "newYield",
          "type": "uint256"
        },
        {
          "internalType": "address",
          "name": "contractCreator",
          "type": "address"
        },
        {
          "internalType": "address",
          "name": "admin",
          "type": "address"
        }
      ],
      "stateMutability": "nonpayable",
      "type": "constructor"
    },
    {
      "anonymous": false,
      "inputs": [
        {
          "indexed": false,
          "internalType": "address",
          "name": "from",
          "type": "address"
        }
      ],
      "name": "Deposit",
      "type": "event"
    },
    {
      "anonymous": false,
      "inputs": [
        {
          "indexed": true,
          "internalType": "bytes32",
          "name": "role",
          "type": "bytes32"
        },
        {
          "indexed": true,
          "internalType": "bytes32",
          "name": "previousAdminRole",
          "type": "bytes32"
        },
        {
          "indexed": true,
          "internalType": "bytes32",
          "name": "newAdminRole",
          "type": "bytes32"
        }
      ],
      "name": "RoleAdminChanged",
      "type": "event"
    },
    {
      "anonymous": false,
      "inputs": [
        {
          "indexed": true,
          "internalType": "bytes32",
          "name": "role",
          "type": "bytes32"
        },
        {
          "indexed": true,
          "internalType": "address",
          "name": "account",
          "type": "address"
        },
        {
          "indexed": true,
          "internalType": "address",
          "name": "sender",
          "type": "address"
        }
      ],
      "name": "RoleGranted",
      "type": "event"
    },
    {
      "anonymous": false,
      "inputs": [
        {
          "indexed": true,
          "internalType": "bytes32",
          "name": "role",
          "type": "bytes32"
        },
        {
          "indexed": true,
          "internalType": "address",
          "name": "account",
          "type": "address"
        },
        {
          "indexed": true,
          "internalType": "address",
          "name": "sender",
          "type": "address"
        }
      ],
      "name": "RoleRevoked",
      "type": "event"
    },
    {
      "anonymous": false,
      "inputs": [
        {
          "indexed": false,
          "internalType": "address",
          "name": "from",
          "type": "address"
        }
      ],
      "name": "Withdraw",
      "type": "event"
    },
    {
      "inputs": [],
      "name": "ADMIN",
      "outputs": [
        {
          "internalType": "bytes32",
          "name": "",
          "type": "bytes32"
        }
      ],
      "stateMutability": "view",
      "type": "function"
    },
    {
      "inputs": [],
      "name": "DEFAULT_ADMIN_ROLE",
      "outputs": [
        {
          "internalType": "bytes32",
          "name": "",
          "type": "bytes32"
        }
      ],
      "stateMutability": "view",
      "type": "function"
    },
    {
      "inputs": [],
      "name": "VAULT_OPERATOR",
      "outputs": [
        {
          "internalType": "bytes32",
          "name": "",
          "type": "bytes32"
        }
      ],
      "stateMutability": "view",
      "type": "function"
    },
    {
      "inputs": [],
      "name": "deployTime",
      "outputs": [
        {
          "internalType": "uint256",
          "name": "",
          "type": "uint256"
        }
      ],
      "stateMutability": "view",
      "type": "function"
    },
    {
      "inputs": [
        {
          "internalType": "bytes32",
          "name": "role",
          "type": "bytes32"
        }
      ],
      "name": "getRoleAdmin",
      "outputs": [
        {
          "internalType": "bytes32",
          "name": "",
          "type": "bytes32"
        }
      ],
      "stateMutability": "view",
      "type": "function"
    },
    {
      "inputs": [
        {
          "internalType": "bytes32",
          "name": "role",
          "type": "bytes32"
        },
        {
          "internalType": "address",
          "name": "account",
          "type": "address"
        }
      ],
      "name": "grantRole",
      "outputs": [],
      "stateMutability": "nonpayable",
      "type": "function"
    },
    {
      "inputs": [
        {
          "internalType": "bytes32",
          "name": "role",
          "type": "bytes32"
        },
        {
          "internalType": "address",
          "name": "account",
          "type": "address"
        }
      ],
      "name": "hasRole",
      "outputs": [
        {
          "internalType": "bool",
          "name": "",
          "type": "bool"
        }
      ],
      "stateMutability": "view",
      "type": "function"
    },
    {
      "inputs": [],
      "name": "isWithdrawEnabled",
      "outputs": [
        {
          "internalType": "bool",
          "name": "",
          "type": "bool"
        }
      ],
      "stateMutability": "view",
      "type": "function"
    },
    {
      "inputs": [],
      "name": "maturity",
      "outputs": [
        {
          "internalType": "uint256",
          "name": "",
          "type": "uint256"
        }
      ],
      "stateMutability": "view",
      "type": "function"
    },
    {
      "inputs": [],
      "name": "primaryTokenSupply",
      "outputs": [
        {
          "internalType": "uint256",
          "name": "",
          "type": "uint256"
        }
      ],
      "stateMutability": "view",
      "type": "function"
    },
    {
      "inputs": [
        {
          "internalType": "bytes32",
          "name": "role",
          "type": "bytes32"
        },
        {
          "internalType": "address",
          "name": "account",
          "type": "address"
        }
      ],
      "name": "renounceRole",
      "outputs": [],
      "stateMutability": "nonpayable",
      "type": "function"
    },
    {
      "inputs": [
        {
          "internalType": "bytes32",
          "name": "role",
          "type": "bytes32"
        },
        {
          "internalType": "address",
          "name": "account",
          "type": "address"
        }
      ],
      "name": "revokeRole",
      "outputs": [],
      "stateMutability": "nonpayable",
      "type": "function"
    },
    {
      "inputs": [
        {
          "internalType": "address",
          "name": "",
          "type": "address"
        }
      ],
      "name": "stableCoinAvailable",
      "outputs": [
        {
          "internalType": "uint256",
          "name": "",
          "type": "uint256"
        }
      ],
      "stateMutability": "view",
      "type": "function"
    },
    {
      "inputs": [
        {
          "internalType": "bytes4",
          "name": "interfaceId",
          "type": "bytes4"
        }
      ],
      "name": "supportsInterface",
      "outputs": [
        {
          "internalType": "bool",
          "name": "",
          "type": "bool"
        }
      ],
      "stateMutability": "view",
      "type": "function"
    },
    {
      "inputs": [],
      "name": "tokenContract",
      "outputs": [
        {
          "internalType": "contract ERC20",
          "name": "",
          "type": "address"
        }
      ],
      "stateMutability": "view",
      "type": "function"
    },
    {
      "inputs": [],
      "name": "vaultOwner",
      "outputs": [
        {
          "internalType": "address",
          "name": "",
          "type": "address"
        }
      ],
      "stateMutability": "view",
      "type": "function"
    },
    {
      "inputs": [],
      "name": "yield",
      "outputs": [
        {
          "internalType": "uint256",
          "name": "",
          "type": "uint256"
        }
      ],
      "stateMutability": "view",
      "type": "function"
    },
    {
      "inputs": [],
      "name": "getStableCoins",
      "outputs": [
        {
          "internalType": "address[]",
          "name": "",
          "type": "address[]"
        }
      ],
      "stateMutability": "view",
      "type": "function"
    },
    {
      "inputs": [
        {
          "internalType": "address",
          "name": "newToken",
          "type": "address"
        }
      ],
      "name": "addToStableCoins",
      "outputs": [],
      "stateMutability": "nonpayable",
      "type": "function"
    },
    {
      "inputs": [],
      "name": "getERC20Address",
      "outputs": [
        {
          "internalType": "contract ERC20",
          "name": "",
          "type": "address"
        }
      ],
      "stateMutability": "view",
      "type": "function"
    },
    {
      "inputs": [
        {
          "internalType": "bool",
          "name": "value",
          "type": "bool"
        }
      ],
      "name": "updateWithrawEnabled",
      "outputs": [],
      "stateMutability": "nonpayable",
      "type": "function"
    },
    {
      "inputs": [
        {
          "internalType": "address",
          "name": "rewardToken",
          "type": "address"
        }
      ],
      "name": "getTokenVaultBalance",
      "outputs": [
        {
          "internalType": "uint256",
          "name": "",
          "type": "uint256"
        }
      ],
      "stateMutability": "view",
      "type": "function"
    },
    {
      "inputs": [
        {
          "internalType": "address[]",
          "name": "users",
          "type": "address[]"
        },
        {
          "internalType": "address",
          "name": "rewardToken",
          "type": "address"
        },
        {
          "internalType": "uint256",
          "name": "amount",
          "type": "uint256"
        }
      ],
      "name": "approveRedemption",
      "outputs": [],
      "stateMutability": "nonpayable",
      "type": "function"
    },
    {
      "inputs": [
        {
          "internalType": "address",
          "name": "rewardToken",
          "type": "address"
        },
        {
          "internalType": "address",
          "name": "user",
          "type": "address"
        }
      ],
      "name": "getRedemptionAmount",
      "outputs": [
        {
          "internalType": "uint256",
          "name": "",
          "type": "uint256"
        }
      ],
      "stateMutability": "view",
      "type": "function"
    },
    {
      "inputs": [
        {
          "internalType": "address",
          "name": "rewardToken",
          "type": "address"
        },
        {
          "internalType": "address",
          "name": "user",
          "type": "address"
        }
      ],
      "name": "getRedemptionStatus",
      "outputs": [
        {
          "internalType": "string",
          "name": "",
          "type": "string"
        }
      ],
      "stateMutability": "view",
      "type": "function"
    },
    {
      "inputs": [
        {
          "internalType": "address",
          "name": "rewardToken",
          "type": "address"
        },
        {
          "internalType": "uint256",
          "name": "amount",
          "type": "uint256"
        }
      ],
      "name": "depositIntoStableCoin",
      "outputs": [],
      "stateMutability": "nonpayable",
      "type": "function"
    },
    {
      "inputs": [
        {
          "internalType": "address",
          "name": "rewardToken",
          "type": "address"
        },
        {
          "internalType": "address",
          "name": "tokenHolder",
          "type": "address"
        }
      ],
      "name": "redeemFromStableCoin",
      "outputs": [],
      "stateMutability": "nonpayable",
      "type": "function"
    },
    {
      "inputs": [
        {
          "internalType": "uint256",
          "name": "amount",
          "type": "uint256"
        }
      ],
      "name": "deposit",
      "outputs": [],
      "stateMutability": "nonpayable",
      "type": "function"
    },
    {
      "inputs": [
        {
          "internalType": "uint256",
          "name": "amount",
          "type": "uint256"
        }
      ],
      "name": "withdraw",
      "outputs": [],
      "stateMutability": "nonpayable",
      "type": "function"
    }
  ],
  "bytecode": "0x60806040523480156200001157600080fd5b50604051620031ab380380620031ab8339810160408190526200003491620005fd565b600784905542600655600883905560018054600160a060020a03808816600160a060020a0319928316179092556002805492851692909116919091179055600a805460ff19169055620000a06000805160206200318b8339815191528264010000000062000117810204565b620000c46000805160206200316b8339815191528264010000000062000117810204565b620000e86000805160206200318b8339815191523364010000000062000117810204565b6200010c6000805160206200316b8339815191523364010000000062000130810204565b505050505062000802565b6200012c828264010000000062000185810204565b5050565b620001448264010000000062000221810204565b6200016b816200015c64010000000062000239810204565b6401000000006200023d810204565b62000180838364010000000062000185810204565b505050565b6200019a8282640100000000620002f4810204565b6200012c57600082815260208181526040808320600160a060020a03851684529091529020805460ff19166001179055620001dd64010000000062000239810204565b600160a060020a031681600160a060020a0316837f2f8788117e7eff1d82e926ec794901d17c78024a50270940304540a733656f0d60405160405180910390a45050565b6000818152602081905260409020600101545b919050565b3390565b620002528282640100000000620002f4810204565b6200012c576200027b600160a060020a038216601464010000000062001c4c6200031d82021704565b6200029683602064010000000062001c4c6200031d82021704565b604051602001620002a99291906200065a565b60408051601f19818403018152908290527f08c379a0000000000000000000000000000000000000000000000000000000008252620002eb91600401620006df565b60405180910390fd5b600091825260208281526040808420600160a060020a0393909316845291905290205460ff1690565b606060006200032e83600262000764565b6200033b90600262000749565b67ffffffffffffffff8111156200037b577f4e487b7100000000000000000000000000000000000000000000000000000000600052604160045260246000fd5b6040519080825280601f01601f191660200182016040528015620003a6576020820181803683370190505b5090507f30000000000000000000000000000000000000000000000000000000000000008160008151811062000405577f4e487b7100000000000000000000000000000000000000000000000000000000600052603260045260246000fd5b6020010190600160f860020a031916908160001a9053507f78000000000000000000000000000000000000000000000000000000000000008160018151811062000478577f4e487b7100000000000000000000000000000000000000000000000000000000600052603260045260246000fd5b6020010190600160f860020a031916908160001a90535060006200049e84600262000764565b620004ab90600162000749565b90505b6001811115620005a2577f303132333435363738396162636465660000000000000000000000000000000085600f166010811062000515577f4e487b7100000000000000000000000000000000000000000000000000000000600052603260045260246000fd5b1a7f01000000000000000000000000000000000000000000000000000000000000000282828151811062000572577f4e487b7100000000000000000000000000000000000000000000000000000000600052603260045260246000fd5b6020010190600160f860020a031916908160001a9053506010909404936200059a81620007b9565b9050620004ae565b508315620005de576040517f08c379a0000000000000000000000000000000000000000000000000000000008152600401620002eb9062000714565b9392505050565b8051600160a060020a03811681146200023457600080fd5b600080600080600060a0868803121562000615578081fd5b6200062086620005e5565b945060208601519350604086015192506200063e60608701620005e5565b91506200064e60808701620005e5565b90509295509295909350565b60007f416363657373436f6e74726f6c3a206163636f756e7420000000000000000000825283516200069481601785016020880162000786565b7f206973206d697373696e6720726f6c65200000000000000000000000000000006017918401918201528351620006d381602884016020880162000786565b01602801949350505050565b60006020825282518060208401526200070081604085016020870162000786565b601f01601f19169190910160400192915050565b6020808252818101527f537472696e67733a20686578206c656e67746820696e73756666696369656e74604082015260600190565b600082198211156200075f576200075f620007d3565b500190565b6000816000190483118215151615620007815762000781620007d3565b500290565b60005b83811015620007a357818101518382015260200162000789565b83811115620007b3576000848401525b50505050565b600081620007cb57620007cb620007d3565b506000190190565b7f4e487b7100000000000000000000000000000000000000000000000000000000600052601160045260246000fd5b61295980620008126000396000f3fe608060405234801561001057600080fd5b50600436106101ec576000357c0100000000000000000000000000000000000000000000000000000000900480637a40624b11610121578063a7775ab5116100bf578063d547741f1161008e578063d547741f1461039d578063e0fc2f05146103b0578063e2195904146103b8578063fdda77bd146103cd576101ec565b8063a7775ab514610367578063adcd63281461037a578063b6b55f2514610382578063b9f890de14610395576101ec565b80638dbde182116100fb5780638dbde1821461032657806391d1485414610339578063a14e4d691461034c578063a217fddf1461035f576101ec565b80637a40624b14610303578063880dc4e61461030b57806388685ab514610313576101ec565b80632e1a7d4d1161018e5780635217af4c116101685780635217af4c146102c257806355a373d6146102d55780636b215c04146102dd578063782aafac146102f0576101ec565b80632e1a7d4d146102875780632f2ff15d1461029c57806336568abe146102af576101ec565b8063204f83f9116101ca578063204f83f91461024f578063248a9ca31461026457806328593984146102775780632a0acc6a1461027f576101ec565b806301ffc9a7146101f15780630d4552dd1461021a5780631f52692b1461023a575b600080fd5b6102046101ff36600461239c565b6103e0565b60405161021191906125e9565b60405180910390f35b61022d6102283660046121f3565b61043e565b60405161021191906125fd565b610242610632565b6040516102119190612517565b61025761064e565b60405161021191906125f4565b610257610272366004612362565b610654565b610257610669565b61025761066f565b61029a610295366004612362565b610693565b005b61029a6102aa36600461237a565b6108ce565b61029a6102bd36600461237a565b6108f7565b61029a6102d036600461232a565b610971565b6102426109e4565b61029a6102eb3660046121f3565b610a00565b61029a6102fe366004612225565b610fc6565b6102576112f6565b6102046112fc565b6102576103213660046121d9565b611305565b61029a61033436600461224e565b611317565b61020461034736600461237a565b61161f565b61025761035a3660046121d9565b611655565b610257611710565b61029a6103753660046121d9565b611715565b6102576117d2565b61029a610390366004612362565b6117d8565b6102426119be565b61029a6103ab36600461237a565b6119da565b6102576119f9565b6103c0611a1d565b604051610211919061258f565b6102576103db3660046121f3565b611a8c565b60007fffffffff0000000000000000000000000000000000000000000000000000000082167f7965db0b000000000000000000000000000000000000000000000000000000001480610436575061043682611eed565b90505b919050565b606060005b6003548110156105f55760006003828154811061047757600080516020612904833981519152600052603260045260246000fd5b6000918252602091829020604080516080810182526004909302909101805473ffffffffffffffffffffffffffffffffffffffff9081168452600182015416938301939093526002830154908201526003820180549192916060840191906104de9061285b565b80601f016020809104026020016040519081016040528092919081815260200182805461050a9061285b565b80156105575780601f1061052c57610100808354040283529160200191610557565b820191906000526020600020905b81548152906001019060200180831161053a57829003601f168201915b50505050508152505090508373ffffffffffffffffffffffffffffffffffffffff16816020015173ffffffffffffffffffffffffffffffffffffffff161480156105d057508473ffffffffffffffffffffffffffffffffffffffff16816000015173ffffffffffffffffffffffffffffffffffffffff16145b156105e25760600151915061062c9050565b50806105ed8161289d565b915050610443565b505060408051808201909152600981527f6e6f207265636f7264000000000000000000000000000000000000000000000060208201525b92915050565b60025473ffffffffffffffffffffffffffffffffffffffff1681565b60075481565b60009081526020819052604090206001015490565b60085481565b7fdf8b4c520ffe197c5343c6f5aec59570151ef9a492f2c624fd45ddde6135ec4281565b600a5460ff1615156001146106dd576040517f08c379a00000000000000000000000000000000000000000000000000000000081526004016106d4906126d3565b60405180910390fd5b6107077f76d92ef51f7d7d45b3e891347e649744c224326a0412ae46e6627a7b6b2edb863361161f565b61073d576040517f08c379a00000000000000000000000000000000000000000000000000000000081526004016106d49061269c565b6001546040517f095ea7b3000000000000000000000000000000000000000000000000000000008152339173ffffffffffffffffffffffffffffffffffffffff169063095ea7b3906107959084908690600401612569565b602060405180830381600087803b1580156107af57600080fd5b505af11580156107c3573d6000803e3d6000fd5b505050506040513d601f19601f820116820180604052508101906107e79190612346565b506001546040517fa9059cbb00000000000000000000000000000000000000000000000000000000815273ffffffffffffffffffffffffffffffffffffffff9091169063a9059cbb906108409084908690600401612569565b602060405180830381600087803b15801561085a57600080fd5b505af115801561086e573d6000803e3d6000fd5b505050506040513d601f19601f820116820180604052508101906108929190612346565b507ff67611512e0a2d90c96fd3f08dca4971bc45fba9dc679eabe839a32abbe58a8e816040516108c29190612517565b60405180910390a15050565b6108d782610654565b6108e8816108e3611f37565b611f3b565b6108f28383611fc6565b505050565b6108ff611f37565b73ffffffffffffffffffffffffffffffffffffffff168173ffffffffffffffffffffffffffffffffffffffff1614610963576040517f08c379a00000000000000000000000000000000000000000000000000000000081526004016106d490612778565b61096d8282612072565b5050565b61099b7fdf8b4c520ffe197c5343c6f5aec59570151ef9a492f2c624fd45ddde6135ec423361161f565b6109d1576040517f08c379a00000000000000000000000000000000000000000000000000000000081526004016106d49061270a565b600a805460ff1916911515919091179055565b60015473ffffffffffffffffffffffffffffffffffffffff1681565b6007544211610a3b576040517f08c379a00000000000000000000000000000000000000000000000000000000081526004016106d490612741565b336000805b600354811015610c23578373ffffffffffffffffffffffffffffffffffffffff1660038281548110610a8957600080516020612904833981519152600052603260045260246000fd5b600091825260209091206001600490920201015473ffffffffffffffffffffffffffffffffffffffff16148015610b2357508473ffffffffffffffffffffffffffffffffffffffff1660038281548110610afa57600080516020612904833981519152600052603260045260246000fd5b600091825260209091206004909102015473ffffffffffffffffffffffffffffffffffffffff16145b15610c115760408051808201909152600481527f7061696400000000000000000000000000000000000000000000000000000000602090910152600380547f5ab53550295bfc9315c562232d99e75119ebb4d3b8a6e012160126a3506b02a8919083908110610ba957600080516020612904833981519152600052603260045260246000fd5b9060005260206000209060040201600301604051610bc791906123f4565b604051809103902014610c115760038181548110610bfc57600080516020612904833981519152600052603260045260246000fd5b90600052602060002090600402016002015491505b80610c1b8161289d565b915050610a40565b5060005b600b54811015610e3d576000600b8281548110610c5b57600080516020612904833981519152600052603260045260246000fd5b6000918252602082200154600b805473ffffffffffffffffffffffffffffffffffffffff90921693509084908110610caa57600080516020612904833981519152600052603260045260246000fd5b60009182526020909120015473ffffffffffffffffffffffffffffffffffffffff90811691508716811415610e28576040517f095ea7b300000000000000000000000000000000000000000000000000000000815273ffffffffffffffffffffffffffffffffffffffff83169063095ea7b390610d2d9088908890600401612569565b602060405180830381600087803b158015610d4757600080fd5b505af1158015610d5b573d6000803e3d6000fd5b505050506040513d601f19601f82011682018060405250810190610d7f9190612346565b506040517fa9059cbb00000000000000000000000000000000000000000000000000000000815273ffffffffffffffffffffffffffffffffffffffff83169063a9059cbb90610dd49088908890600401612569565b602060405180830381600087803b158015610dee57600080fd5b505af1158015610e02573d6000803e3d6000fd5b505050506040513d601f19601f82011682018060405250810190610e269190612346565b505b50508080610e359061289d565b915050610c27565b5060005b600354811015610fbf578373ffffffffffffffffffffffffffffffffffffffff1660038281548110610e8a57600080516020612904833981519152600052603260045260246000fd5b600091825260209091206001600490920201015473ffffffffffffffffffffffffffffffffffffffff16148015610f2457508473ffffffffffffffffffffffffffffffffffffffff1660038281548110610efb57600080516020612904833981519152600052603260045260246000fd5b600091825260209091206004909102015473ffffffffffffffffffffffffffffffffffffffff16145b15610fad576040518060400160405280600481526020017f706169640000000000000000000000000000000000000000000000000000000081525060038281548110610f8757600080516020612904833981519152600052603260045260246000fd5b90600052602060002090600402016003019080519060200190610fab92919061211c565b505b80610fb78161289d565b915050610e41565b5050505050565b610ff07f76d92ef51f7d7d45b3e891347e649744c224326a0412ae46e6627a7b6b2edb863361161f565b611026576040517f08c379a00000000000000000000000000000000000000000000000000000000081526004016106d49061269c565b3360005b600b5481101561119b576000600b828154811061105e57600080516020612904833981519152600052603260045260246000fd5b6000918252602082200154600b805473ffffffffffffffffffffffffffffffffffffffff909216935090849081106110ad57600080516020612904833981519152600052603260045260246000fd5b60009182526020909120015473ffffffffffffffffffffffffffffffffffffffff90811691508616811415611186576040517f23b872dd00000000000000000000000000000000000000000000000000000000815273ffffffffffffffffffffffffffffffffffffffff8316906323b872dd9061113290879030908a90600401612538565b602060405180830381600087803b15801561114c57600080fd5b505af1158015611160573d6000803e3d6000fd5b505050506040513d601f19601f820116820180604052508101906111849190612346565b505b505080806111939061289d565b91505061102a565b506040517f70a0823100000000000000000000000000000000000000000000000000000000815260009073ffffffffffffffffffffffffffffffffffffffff8516906370a08231906111f1903090600401612517565b60206040518083038186803b15801561120957600080fd5b505afa15801561121d573d6000803e3d6000fd5b505050506040513d601f19601f8201168201806040525081019061124191906123dc565b6040805180820190915273ffffffffffffffffffffffffffffffffffffffff9586168152602081019182526004805460018101825560009190915290517f8a35acfbc15ff81a39ae7d344fd709f28e8600b4aa8c65c6b64bfe7fe36bd19b6002909202918201805473ffffffffffffffffffffffffffffffffffffffff19169190971617909555517f8a35acfbc15ff81a39ae7d344fd709f28e8600b4aa8c65c6b64bfe7fe36bd19c90940193909355505050565b60065481565b600a5460ff1681565b60056020526000908152604090205481565b6113417f76d92ef51f7d7d45b3e891347e649744c224326a0412ae46e6627a7b6b2edb863361161f565b611377576040517f08c379a00000000000000000000000000000000000000000000000000000000081526004016106d49061269c565b60075442116113b2576040517f08c379a00000000000000000000000000000000000000000000000000000000081526004016106d490612741565b60005b83518110156116195760008482815181106113e757600080516020612904833981519152600052603260045260246000fd5b6020026020010151905060005b600b54811015611604576000600b828154811061142857600080516020612904833981519152600052603260045260246000fd5b60009182526020909120015473ffffffffffffffffffffffffffffffffffffffff908116915086168114156115f15760006040518060800160405280600b858154811061148c57600080516020612904833981519152600052603260045260246000fd5b60009182526020808320919091015473ffffffffffffffffffffffffffffffffffffffff90811684528881168483015260408085018c905280518082018252600781527f70656e64696e67000000000000000000000000000000000000000000000000008185015260609586015260038054600181018255945285517fc2575a0e9e593c00f959f8c92f12db2869c3395a3b0502d05e2516446f71f85b6004909502948501805473ffffffffffffffffffffffffffffffffffffffff19908116928516929092178155878501517fc2575a0e9e593c00f959f8c92f12db2869c3395a3b0502d05e2516446f71f85c8701805490931694169390931790558501517fc2575a0e9e593c00f959f8c92f12db2869c3395a3b0502d05e2516446f71f85d84015592840151805194955085946115ec937fc2575a0e9e593c00f959f8c92f12db2869c3395a3b0502d05e2516446f71f85e0192919091019061211c565b505050505b50806115fc8161289d565b9150506113f4565b505080806116119061289d565b9150506113b5565b50505050565b60009182526020828152604080842073ffffffffffffffffffffffffffffffffffffffff93909316845291905290205460ff1690565b600080805b6004548110156117095760006004828154811061168e57600080516020612904833981519152600052603260045260246000fd5b600091825260209182902060408051808201909152600290920201805473ffffffffffffffffffffffffffffffffffffffff908116808452600190920154938301939093529092509086161480156116e95750828160200151115b156116f657806020015192505b50806117018161289d565b91505061165a565b5092915050565b600081565b60025473ffffffffffffffffffffffffffffffffffffffff163314611766576040517f08c379a00000000000000000000000000000000000000000000000000000000081526004016106d490612665565b600b80546001810182556000919091527f0175b7a638427703f0dbe7bb9bbf987a2551717b34e79f33b5b1008d1fa01db901805473ffffffffffffffffffffffffffffffffffffffff191673ffffffffffffffffffffffffffffffffffffffff92909216919091179055565b60095481565b6118027f76d92ef51f7d7d45b3e891347e649744c224326a0412ae46e6627a7b6b2edb863361161f565b611838576040517f08c379a00000000000000000000000000000000000000000000000000000000081526004016106d49061269c565b6001546040517f23b872dd000000000000000000000000000000000000000000000000000000008152339173ffffffffffffffffffffffffffffffffffffffff16906323b872dd9061189290849030908790600401612538565b602060405180830381600087803b1580156118ac57600080fd5b505af11580156118c0573d6000803e3d6000fd5b505050506040513d601f19601f820116820180604052508101906118e49190612346565b506001546040517f70a0823100000000000000000000000000000000000000000000000000000000815273ffffffffffffffffffffffffffffffffffffffff909116906370a082319061193b903090600401612517565b60206040518083038186803b15801561195357600080fd5b505afa158015611967573d6000803e3d6000fd5b505050506040513d601f19601f8201168201806040525081019061198b91906123dc565b6009556040517f8ce0bd46ec50cf39f0d0ea8686a686eb226af5796dcda4231b26fb84b5ef1234906108c2908390612517565b60015473ffffffffffffffffffffffffffffffffffffffff1690565b6119e382610654565b6119ef816108e3611f37565b6108f28383612072565b7f76d92ef51f7d7d45b3e891347e649744c224326a0412ae46e6627a7b6b2edb8681565b6060600b805480602002602001604051908101604052809291908181526020018280548015611a8257602002820191906000526020600020905b815473ffffffffffffffffffffffffffffffffffffffff168152600190910190602001808311611a57575b5050505050905090565b6000805b600354811015611c4257600060038281548110611ac457600080516020612904833981519152600052603260045260246000fd5b6000918252602091829020604080516080810182526004909302909101805473ffffffffffffffffffffffffffffffffffffffff908116845260018201541693830193909352600283015490820152600382018054919291606084019190611b2b9061285b565b80601f0160208091040260200160405190810160405280929190818152602001828054611b579061285b565b8015611ba45780601f10611b7957610100808354040283529160200191611ba4565b820191906000526020600020905b815481529060010190602001808311611b8757829003601f168201915b50505050508152505090508373ffffffffffffffffffffffffffffffffffffffff16816020015173ffffffffffffffffffffffffffffffffffffffff16148015611c1d57508473ffffffffffffffffffffffffffffffffffffffff16816000015173ffffffffffffffffffffffffffffffffffffffff16145b15611c2f5760400151915061062c9050565b5080611c3a8161289d565b915050611a90565b5060009392505050565b60606000611c5b8360026127f9565b611c669060026127e1565b67ffffffffffffffff811115611c9357600080516020612904833981519152600052604160045260246000fd5b6040519080825280601f01601f191660200182016040528015611cbd576020820181803683370190505b5090507f300000000000000000000000000000000000000000000000000000000000000081600081518110611d0957600080516020612904833981519152600052603260045260246000fd5b60200101907effffffffffffffffffffffffffffffffffffffffffffffffffffffffffffff1916908160001a9053507f780000000000000000000000000000000000000000000000000000000000000081600181518110611d8157600080516020612904833981519152600052603260045260246000fd5b60200101907effffffffffffffffffffffffffffffffffffffffffffffffffffffffffffff1916908160001a9053506000611dbd8460026127f9565b611dc89060016127e1565b90505b6001811115611ead577f303132333435363738396162636465660000000000000000000000000000000085600f1660108110611e1e57600080516020612904833981519152600052603260045260246000fd5b1a7f010000000000000000000000000000000000000000000000000000000000000002828281518110611e6857600080516020612904833981519152600052603260045260246000fd5b60200101907effffffffffffffffffffffffffffffffffffffffffffffffffffffffffffff1916908160001a905350601090940493611ea681612844565b9050611dcb565b508315611ee6576040517f08c379a00000000000000000000000000000000000000000000000000000000081526004016106d490612630565b9392505050565b7fffffffff0000000000000000000000000000000000000000000000000000000081167f01ffc9a70000000000000000000000000000000000000000000000000000000014919050565b3390565b611f45828261161f565b61096d57611f6a8173ffffffffffffffffffffffffffffffffffffffff166014611c4c565b611f75836020611c4c565b604051602001611f86929190612496565b60408051601f19818403018152908290527f08c379a00000000000000000000000000000000000000000000000000000000082526106d4916004016125fd565b611fd0828261161f565b61096d5760008281526020818152604080832073ffffffffffffffffffffffffffffffffffffffff851684529091529020805460ff19166001179055612014611f37565b73ffffffffffffffffffffffffffffffffffffffff168173ffffffffffffffffffffffffffffffffffffffff16837f2f8788117e7eff1d82e926ec794901d17c78024a50270940304540a733656f0d60405160405180910390a45050565b61207c828261161f565b1561096d5760008281526020818152604080832073ffffffffffffffffffffffffffffffffffffffff851684529091529020805460ff191690556120be611f37565b73ffffffffffffffffffffffffffffffffffffffff168173ffffffffffffffffffffffffffffffffffffffff16837ff6391f5c32d9c69d2a47ea670b442974b53935d1edc7fd64eb21e047a839171b60405160405180910390a45050565b8280546121289061285b565b90600052602060002090601f01602090048101928261214a5760008555612190565b82601f1061216357805160ff1916838001178555612190565b82800160010185558215612190579182015b82811115612190578251825591602001919060010190612175565b5061219c9291506121a0565b5090565b5b8082111561219c57600081556001016121a1565b803573ffffffffffffffffffffffffffffffffffffffff8116811461043957600080fd5b6000602082840312156121ea578081fd5b611ee6826121b5565b60008060408385031215612205578081fd5b61220e836121b5565b915061221c602084016121b5565b90509250929050565b60008060408385031215612237578182fd5b612240836121b5565b946020939093013593505050565b600080600060608486031215612262578081fd5b833567ffffffffffffffff80821115612279578283fd5b818601915086601f83011261228c578283fd5b81356020828211156122a0576122a06128d5565b808202604051828282010181811086821117156122bf576122bf6128d5565b604052838152828101945085830182870184018c10156122dd578788fd5b8796505b84871015612306576122f2816121b5565b8652600196909601959483019483016122e1565b50975061231690508882016121b5565b955050505050604084013590509250925092565b60006020828403121561233b578081fd5b8135611ee6816128f2565b600060208284031215612357578081fd5b8151611ee6816128f2565b600060208284031215612373578081fd5b5035919050565b6000806040838503121561238c578182fd5b8235915061221c602084016121b5565b6000602082840312156123ad578081fd5b81357fffffffff0000000000000000000000000000000000000000000000000000000081168114611ee6578182fd5b6000602082840312156123ed578081fd5b5051919050565b815460009081906002810460018083168061241057607f831692505b60208084108214156124375760008051602061290483398151915287526022600452602487fd5b81801561244b576001811461245c57612488565b60ff19861689528489019650612488565b6124658a6127d5565b885b868110156124805781548b820152908501908301612467565b505084890196505b509498975050505050505050565b60007f416363657373436f6e74726f6c3a206163636f756e7420000000000000000000825283516124ce816017850160208801612818565b7f206973206d697373696e6720726f6c6520000000000000000000000000000000601791840191820152835161250b816028840160208801612818565b01602801949350505050565b73ffffffffffffffffffffffffffffffffffffffff91909116815260200190565b73ffffffffffffffffffffffffffffffffffffffff9384168152919092166020820152604081019190915260600190565b73ffffffffffffffffffffffffffffffffffffffff929092168252602082015260400190565b6020808252825182820181905260009190848201906040850190845b818110156125dd57835173ffffffffffffffffffffffffffffffffffffffff16835292840192918401916001016125ab565b50909695505050505050565b901515815260200190565b90815260200190565b600060208252825180602084015261261c816040850160208701612818565b601f01601f19169190910160400192915050565b6020808252818101527f537472696e67733a20686578206c656e67746820696e73756666696369656e74604082015260600190565b6020808252600c908201527f4e6f7420616e204f776e65720000000000000000000000000000000000000000604082015260600190565b6020808252600e908201527f4e6f742061206f70657261746f72000000000000000000000000000000000000604082015260600190565b60208082526014908201527f5769746864726177206e6f7420656e61626c6564000000000000000000000000604082015260600190565b6020808252600b908201527f4e6f7420612061646d696e000000000000000000000000000000000000000000604082015260600190565b6020808252600f908201527f4e6f74206174206d617475726974790000000000000000000000000000000000604082015260600190565b6020808252602f908201527f416363657373436f6e74726f6c3a2063616e206f6e6c792072656e6f756e636560408201527f20726f6c657320666f722073656c660000000000000000000000000000000000606082015260800190565b60009081526020902090565b600082198211156127f4576127f46128b8565b500190565b6000816000190483118215151615612813576128136128b8565b500290565b60005b8381101561283357818101518382015260200161281b565b838111156116195750506000910152565b600081612853576128536128b8565b506000190190565b60028104600182168061286f57607f821691505b6020821081141561289757600080516020612904833981519152600052602260045260246000fd5b50919050565b60006000198214156128b1576128b16128b8565b5060010190565b600080516020612904833981519152600052601160045260246000fd5b600080516020612904833981519152600052604160045260246000fd5b801515811461290057600080fd5b5056fe4e487b7100000000000000000000000000000000000000000000000000000000a264697066735822122094665a03dc8b01e97b73c00cf82c4eb0ed5b1da6a0338dec1d92782940e81e9c64736f6c63430008000033df8b4c520ffe197c5343c6f5aec59570151ef9a492f2c624fd45ddde6135ec4276d92ef51f7d7d45b3e891347e649744c224326a0412ae46e6627a7b6b2edb86",
  "immutableReferences": {},
  "source": "// SPDX-License-Identifier: MIT\npragma solidity ^0.8.0;\n\nimport \"@openzeppelin/contracts/token/ERC20/ERC20.sol\";\nimport \"@openzeppelin/contracts/access/AccessControl.sol\";\n\n/**\n * @title TokenReceiver\n * @dev The source network vault that holds all deposits on the source chain. This vault manages deposits and redemptions for source network deposits.\n */\ncontract TokenVault is AccessControl {\n  ERC20 public tokenContract;\n  address public vaultOwner;\n\n  bytes32 public constant VAULT_OPERATOR = keccak256(\"VAULT_OPERATOR\");\n  bytes32 public constant ADMIN = keccak256(\"ADMIN\");\n\n  struct RedemptionRecord {\n    address token;\n    address wallet;\n    uint256 amount;\n    string status;\n  }\n\n  struct DepositRecord {\n    address token;\n    uint256 amount;\n  }\n\n  RedemptionRecord[] redemptionRecordList;\n  DepositRecord[] depositRecordList;\n\n  mapping(address => uint256) public stableCoinAvailable;\n\n  uint256 public deployTime;\n  uint256 public maturity;\n  uint256 public yield;\n  uint256 public primaryTokenSupply;\n\n  bool public isWithdrawEnabled;\n\n  address[] stableCoins;\n\n  event Deposit(address from);\n  event Withdraw(address from);\n\n  /**\n   * @dev Constructor sets token that can be received\n   */\n  constructor(\n    address token,\n    uint256 newMaturity,\n    uint256 newYield,\n    address contractCreator,\n    address admin\n  ) {\n    maturity = newMaturity;\n    deployTime = block.timestamp;\n    yield = newYield;\n    tokenContract = ERC20(token);\n    vaultOwner = contractCreator;\n    isWithdrawEnabled = false;\n\n    _setupRole(VAULT_OPERATOR, admin);\n    _setupRole(ADMIN, admin);\n    _setupRole(VAULT_OPERATOR, msg.sender);\n\n    grantRole(ADMIN, msg.sender);\n  }\n\n  function getStableCoins() public view returns (address[] memory) {\n    return stableCoins;\n  }\n\n  function addToStableCoins(address newToken) public {\n    require(vaultOwner == msg.sender, \"Not an Owner\");\n    stableCoins.push(newToken);\n  }\n\n  function getERC20Address() public view returns (ERC20) {\n    return tokenContract;\n  }\n\n  function updateWithrawEnabled(bool value) public {\n    require(hasRole(ADMIN, msg.sender), \"Not a admin\");\n\n    isWithdrawEnabled = value;\n  }\n\n  function getTokenVaultBalance(address rewardToken)\n    public\n    view\n    returns (uint256)\n  {\n    uint256 highAmount = 0;\n    for (uint256 i = 0; i < depositRecordList.length; i++) {\n      DepositRecord memory record = depositRecordList[i];\n      if (record.token == rewardToken && record.amount > highAmount) {\n        highAmount = record.amount;\n      }\n    }\n    return highAmount;\n  }\n\n  function approveRedemption(\n    address[] memory users,\n    address rewardToken,\n    uint256 amount\n  ) public {\n    require(hasRole(VAULT_OPERATOR, msg.sender), \"Not a operator\");\n    require(block.timestamp > maturity, \"Not at maturity\");\n\n    for (uint256 z = 0; z < users.length; z++) {\n      address user = users[z];\n      for (uint256 i = 0; i < stableCoins.length; i++) {\n        address rToken = stableCoins[i];\n        if (rToken == rewardToken) {\n          RedemptionRecord memory newRecord = RedemptionRecord(\n            stableCoins[i],\n            user,\n            amount,\n            \"pending\"\n          );\n          redemptionRecordList.push(newRecord);\n        }\n      }\n    }\n  }\n\n  function getRedemptionAmount(address rewardToken, address user)\n    public\n    view\n    returns (uint256)\n  {\n    for (uint256 i = 0; i < redemptionRecordList.length; i++) {\n      RedemptionRecord memory record = redemptionRecordList[i];\n      if (record.wallet == user && record.token == rewardToken) {\n        return record.amount;\n      }\n    }\n    return 0;\n  }\n\n  function getRedemptionStatus(address rewardToken, address user)\n    public\n    view\n    returns (string memory)\n  {\n    for (uint256 i = 0; i < redemptionRecordList.length; i++) {\n      RedemptionRecord memory record = redemptionRecordList[i];\n      if (record.wallet == user && record.token == rewardToken) {\n        return record.status;\n      }\n    }\n    return \"no record\";\n  }\n\n  function depositIntoStableCoin(address rewardToken, uint256 amount) public {\n    require(hasRole(VAULT_OPERATOR, msg.sender), \"Not a operator\");\n\n    address from = msg.sender;\n\n    for (uint256 i = 0; i < stableCoins.length; i++) {\n      address rToken = stableCoins[i];\n      address rTokenAddress = stableCoins[i];\n      if (rewardToken == rTokenAddress) {\n        ERC20(rToken).transferFrom(from, address(this), amount);\n      }\n    }\n\n    uint256 currentBalance = ERC20(rewardToken).balanceOf(address(this));\n    DepositRecord memory newRecord = DepositRecord(rewardToken, currentBalance);\n    depositRecordList.push(newRecord);\n  }\n\n  function redeemFromStableCoin(address rewardToken, address tokenHolder)\n    public\n  {\n    require(block.timestamp > maturity, \"Not at maturity\");\n\n    address from = msg.sender;\n    uint256 redeemAmount = 0;\n    for (uint256 i = 0; i < redemptionRecordList.length; i++) {\n      if (\n        redemptionRecordList[i].wallet == tokenHolder &&\n        redemptionRecordList[i].token == rewardToken\n      ) {\n        if (\n          keccak256(bytes(redemptionRecordList[i].status)) !=\n          keccak256(bytes(\"paid\"))\n        ) {\n          redeemAmount = redemptionRecordList[i].amount;\n        }\n      }\n    }\n\n    for (uint256 i = 0; i < stableCoins.length; i++) {\n      address rToken = stableCoins[i];\n      address rTokenAddress = stableCoins[i];\n      if (rewardToken == rTokenAddress) {\n        ERC20(rToken).approve(from, redeemAmount);\n        ERC20(rToken).transfer(from, redeemAmount);\n      }\n    }\n\n    for (uint256 z = 0; z < redemptionRecordList.length; z++) {\n      if (\n        redemptionRecordList[z].wallet == tokenHolder &&\n        redemptionRecordList[z].token == rewardToken\n      ) {\n        redemptionRecordList[z].status = \"paid\";\n      }\n    }\n  }\n\n  function deposit(uint256 amount) external {\n    require(hasRole(VAULT_OPERATOR, msg.sender), \"Not a operator\");\n    address from = msg.sender;\n    tokenContract.transferFrom(from, address(this), amount);\n    primaryTokenSupply = tokenContract.balanceOf(address(this));\n\n    emit Deposit(from);\n  }\n\n  function withdraw(uint256 amount) external {\n    require(isWithdrawEnabled == true, \"Withdraw not enabled\");\n    require(hasRole(VAULT_OPERATOR, msg.sender), \"Not a operator\");\n\n    address from = msg.sender;\n    tokenContract.approve(from, amount);\n    tokenContract.transfer(from, amount);\n    emit Withdraw(from);\n  }\n}\n",
  "sourcePath": "/Users/charlespacker/alloyx_smart_contracts/contracts/TokenVault.sol",
  "compiler": {
    "name": "solc",
    "version": "0.8.0+commit.c7dfd78e.Emscripten.clang"
  },
  "schemaVersion": "3.4.3",
  "updatedAt": "2021-09-06T11:26:02.818Z",
  "devdoc": {
    "details": "The source network vault that holds all deposits on the source chain. This vault manages deposits and redemptions for source network deposits.",
    "kind": "dev",
    "methods": {
      "constructor": {
        "details": "Constructor sets token that can be received"
      },
      "getRoleAdmin(bytes32)": {
        "details": "Returns the admin role that controls `role`. See {grantRole} and {revokeRole}. To change a role's admin, use {_setRoleAdmin}."
      },
      "grantRole(bytes32,address)": {
        "details": "Grants `role` to `account`. If `account` had not been already granted `role`, emits a {RoleGranted} event. Requirements: - the caller must have ``role``'s admin role."
      },
      "hasRole(bytes32,address)": {
        "details": "Returns `true` if `account` has been granted `role`."
      },
      "renounceRole(bytes32,address)": {
        "details": "Revokes `role` from the calling account. Roles are often managed via {grantRole} and {revokeRole}: this function's purpose is to provide a mechanism for accounts to lose their privileges if they are compromised (such as when a trusted device is misplaced). If the calling account had been granted `role`, emits a {RoleRevoked} event. Requirements: - the caller must be `account`."
      },
      "revokeRole(bytes32,address)": {
        "details": "Revokes `role` from `account`. If `account` had been granted `role`, emits a {RoleRevoked} event. Requirements: - the caller must have ``role``'s admin role."
      },
      "supportsInterface(bytes4)": {
        "details": "See {IERC165-supportsInterface}."
      }
    },
    "title": "TokenReceiver",
    "version": 1
  },
  "userdoc": {
    "kind": "user",
    "methods": {},
    "version": 1
  }
}