{
  "contractName": "TokenVaultManager",
  "abi": [
    {
      "inputs": [],
      "stateMutability": "nonpayable",
      "type": "constructor"
    },
    {
      "inputs": [
        {
          "internalType": "address",
          "name": "",
          "type": "address"
        },
        {
          "internalType": "uint256",
          "name": "",
          "type": "uint256"
        }
      ],
      "name": "vaultLookup",
      "outputs": [
        {
          "internalType": "address",
          "name": "",
          "type": "address"
        }
      ],
      "stateMutability": "view",
      "type": "function",
      "constant": true
    },
    {
      "inputs": [
        {
          "internalType": "address",
          "name": "user",
          "type": "address"
        }
      ],
      "name": "getVaultsByUser",
      "outputs": [
        {
          "internalType": "address[]",
          "name": "",
          "type": "address[]"
        }
      ],
      "stateMutability": "view",
      "type": "function",
      "constant": true
    },
    {
      "inputs": [],
      "name": "getAllVaults",
      "outputs": [
        {
          "internalType": "address[]",
          "name": "",
          "type": "address[]"
        }
      ],
      "stateMutability": "view",
      "type": "function",
      "constant": true
    },
    {
      "inputs": [
        {
          "internalType": "address",
          "name": "erc20Address",
          "type": "address"
        },
        {
          "internalType": "address",
          "name": "userAddress",
          "type": "address"
        }
      ],
      "name": "vaultExists",
      "outputs": [
        {
          "internalType": "bool",
          "name": "",
          "type": "bool"
        }
      ],
      "stateMutability": "view",
      "type": "function",
      "constant": true
    },
    {
      "inputs": [
        {
          "internalType": "address",
          "name": "newToken",
          "type": "address"
        },
        {
          "internalType": "uint256",
          "name": "maturity",
          "type": "uint256"
        },
        {
          "internalType": "uint256",
          "name": "yield",
          "type": "uint256"
        },
        {
          "internalType": "address",
          "name": "contractCreator",
          "type": "address"
        }
      ],
      "name": "createVault",
      "outputs": [],
      "stateMutability": "nonpayable",
      "type": "function"
    },
    {
      "inputs": [
        {
          "internalType": "address",
          "name": "erc20Address",
          "type": "address"
        }
      ],
      "name": "destroyVault",
      "outputs": [],
      "stateMutability": "nonpayable",
      "type": "function"
    }
  ],
  "bytecode": "0x608060405234801561001057600080fd5b5033600260006101000a81548173ffffffffffffffffffffffffffffffffffffffff021916908373ffffffffffffffffffffffffffffffffffffffff1602179055506140f4806100616000396000f3fe60806040523480156200001157600080fd5b506004361062000087576000357c0100000000000000000000000000000000000000000000000000000000900480632d1ed26a146200008c5780632d5fd62e14620000c257806397331bf914620000e25780639fa192151462000104578063a07213e9146200013a578063fab2343f1462000170575b600080fd5b620000aa6004803603810190620000a4919062000f52565b62000190565b604051620000b9919062001214565b60405180910390f35b620000e06004803603810190620000da919062000fd4565b62000390565b005b620000ec62000520565b604051620000fb9190620011f0565b60405180910390f35b6200012260048036038101906200011c919062000f93565b620005b0565b60405162000131919062001176565b60405180910390f35b62000158600480360381019062000152919062000f26565b620005ff565b604051620001679190620011f0565b60405180910390f35b6200018e600480360381019062000188919062000f26565b620006cd565b005b600080600090505b6000808473ffffffffffffffffffffffffffffffffffffffff1673ffffffffffffffffffffffffffffffffffffffff16815260200190815260200160002080549050811015620003845760008060008573ffffffffffffffffffffffffffffffffffffffff1673ffffffffffffffffffffffffffffffffffffffff16815260200190815260200160002082815481106200025b577f4e487b7100000000000000000000000000000000000000000000000000000000600052603260045260246000fd5b9060005260206000200160009054906101000a900473ffffffffffffffffffffffffffffffffffffffff16905060008173ffffffffffffffffffffffffffffffffffffffff1663b9f890de6040518163ffffffff167c010000000000000000000000000000000000000000000000000000000002815260040160206040518083038186803b158015620002ed57600080fd5b505afa15801562000302573d6000803e3d6000fd5b505050506040513d601f19601f8201168201806040525081019062000328919062001040565b90508573ffffffffffffffffffffffffffffffffffffffff168173ffffffffffffffffffffffffffffffffffffffff1614156200036c57600193505050506200038a565b505080806200037b9062001336565b91505062000198565b50600090505b92915050565b60001515620003a0853362000190565b151514620003ad57600080fd5b339050600084848433600260009054906101000a900473ffffffffffffffffffffffffffffffffffffffff16604051620003e79062000ed3565b620003f795949392919062001193565b604051809103906000f08015801562000414573d6000803e3d6000fd5b5090506000803373ffffffffffffffffffffffffffffffffffffffff1673ffffffffffffffffffffffffffffffffffffffff168152602001908152602001600020819080600181540180825580915050600190039060005260206000200160009091909190916101000a81548173ffffffffffffffffffffffffffffffffffffffff021916908373ffffffffffffffffffffffffffffffffffffffff1602179055506001819080600181540180825580915050600190039060005260206000200160009091909190916101000a81548173ffffffffffffffffffffffffffffffffffffffff021916908373ffffffffffffffffffffffffffffffffffffffff1602179055505050505050565b60606001805480602002602001604051908101604052809291908181526020018280548015620005a657602002820191906000526020600020905b8160009054906101000a900473ffffffffffffffffffffffffffffffffffffffff1673ffffffffffffffffffffffffffffffffffffffff16815260200190600101908083116200055b575b5050505050905090565b60006020528160005260406000208181548110620005cd57600080fd5b906000526020600020016000915091509054906101000a900473ffffffffffffffffffffffffffffffffffffffff1681565b60606000808373ffffffffffffffffffffffffffffffffffffffff1673ffffffffffffffffffffffffffffffffffffffff168152602001908152602001600020805480602002602001604051908101604052809291908181526020018280548015620006c157602002820191906000526020600020905b8160009054906101000a900473ffffffffffffffffffffffffffffffffffffffff1673ffffffffffffffffffffffffffffffffffffffff168152602001906001019080831162000676575b50505050509050919050565b6000339050600260009054906101000a900473ffffffffffffffffffffffffffffffffffffffff1673ffffffffffffffffffffffffffffffffffffffff163373ffffffffffffffffffffffffffffffffffffffff161462000765576040517f08c379a00000000000000000000000000000000000000000000000000000000081526004016200075c9062001231565b60405180910390fd5b6001151562000775833362000190565b1515146200078257600080fd5b6000806000905060005b6000808573ffffffffffffffffffffffffffffffffffffffff1673ffffffffffffffffffffffffffffffffffffffff16815260200190815260200160002080549050811015620009735760008060008673ffffffffffffffffffffffffffffffffffffffff1673ffffffffffffffffffffffffffffffffffffffff16815260200190815260200160002082815481106200084f577f4e487b7100000000000000000000000000000000000000000000000000000000600052603260045260246000fd5b9060005260206000200160009054906101000a900473ffffffffffffffffffffffffffffffffffffffff16905060008173ffffffffffffffffffffffffffffffffffffffff1663b9f890de6040518163ffffffff167c010000000000000000000000000000000000000000000000000000000002815260040160206040518083038186803b158015620008e157600080fd5b505afa158015620008f6573d6000803e3d6000fd5b505050506040513d601f19601f820116820180604052508101906200091c919062001040565b90508673ffffffffffffffffffffffffffffffffffffffff168173ffffffffffffffffffffffffffffffffffffffff1614156200095b57829450600193505b505080806200096a9062001336565b9150506200078c565b5060011515811515141562000bdd576000808473ffffffffffffffffffffffffffffffffffffffff1673ffffffffffffffffffffffffffffffffffffffff16815260200190815260200160002060016000808673ffffffffffffffffffffffffffffffffffffffff1673ffffffffffffffffffffffffffffffffffffffff1681526020019081526020016000208054905062000a1091906200129d565b8154811062000a48577f4e487b7100000000000000000000000000000000000000000000000000000000600052603260045260246000fd5b9060005260206000200160009054906101000a900473ffffffffffffffffffffffffffffffffffffffff166000808573ffffffffffffffffffffffffffffffffffffffff1673ffffffffffffffffffffffffffffffffffffffff168152602001908152602001600020838154811062000aea577f4e487b7100000000000000000000000000000000000000000000000000000000600052603260045260246000fd5b9060005260206000200160006101000a81548173ffffffffffffffffffffffffffffffffffffffff021916908373ffffffffffffffffffffffffffffffffffffffff1602179055506000808473ffffffffffffffffffffffffffffffffffffffff1673ffffffffffffffffffffffffffffffffffffffff16815260200190815260200160002080548062000ba7577f4e487b7100000000000000000000000000000000000000000000000000000000600052603160045260246000fd5b6001900381819060005260206000200160006101000a81549073ffffffffffffffffffffffffffffffffffffffff021916905590555b600080915060005b60018054905081101562000d545760006001828154811062000c30577f4e487b7100000000000000000000000000000000000000000000000000000000600052603260045260246000fd5b9060005260206000200160009054906101000a900473ffffffffffffffffffffffffffffffffffffffff16905060008173ffffffffffffffffffffffffffffffffffffffff1663b9f890de6040518163ffffffff167c010000000000000000000000000000000000000000000000000000000002815260040160206040518083038186803b15801562000cc257600080fd5b505afa15801562000cd7573d6000803e3d6000fd5b505050506040513d601f19601f8201168201806040525081019062000cfd919062001040565b90508773ffffffffffffffffffffffffffffffffffffffff168173ffffffffffffffffffffffffffffffffffffffff16141562000d3c57829350600194505b5050808062000d4b9062001336565b91505062000be5565b5060011515821515141562000ecc57600180808054905062000d7791906200129d565b8154811062000daf577f4e487b7100000000000000000000000000000000000000000000000000000000600052603260045260246000fd5b9060005260206000200160009054906101000a900473ffffffffffffffffffffffffffffffffffffffff166001848154811062000e15577f4e487b7100000000000000000000000000000000000000000000000000000000600052603260045260246000fd5b9060005260206000200160006101000a81548173ffffffffffffffffffffffffffffffffffffffff021916908373ffffffffffffffffffffffffffffffffffffffff160217905550600180548062000e96577f4e487b7100000000000000000000000000000000000000000000000000000000600052603160045260246000fd5b6001900381819060005260206000200160006101000a81549073ffffffffffffffffffffffffffffffffffffffff021916905590555b5050505050565b612cbd806200140283390190565b60008135905062000ef281620013b3565b92915050565b60008151905062000f0981620013cd565b92915050565b60008135905062000f2081620013e7565b92915050565b60006020828403121562000f3957600080fd5b600062000f498482850162000ee1565b91505092915050565b6000806040838503121562000f6657600080fd5b600062000f768582860162000ee1565b925050602062000f898582860162000ee1565b9150509250929050565b6000806040838503121562000fa757600080fd5b600062000fb78582860162000ee1565b925050602062000fca8582860162000f0f565b9150509250929050565b6000806000806080858703121562000feb57600080fd5b600062000ffb8782880162000ee1565b94505060206200100e8782880162000f0f565b9350506040620010218782880162000f0f565b9250506060620010348782880162000ee1565b91505092959194509250565b6000602082840312156200105357600080fd5b6000620010638482850162000ef8565b91505092915050565b60006200107a838362001086565b60208301905092915050565b6200109181620012d8565b82525050565b620010a281620012d8565b82525050565b6000620010b58262001263565b620010c181856200127b565b9350620010ce8362001253565b8060005b8381101562001105578151620010e988826200106c565b9750620010f6836200126e565b925050600181019050620010d2565b5085935050505092915050565b6200111d81620012ec565b82525050565b600062001132600c836200128c565b91507f4e6f7420616e2041646d696e00000000000000000000000000000000000000006000830152602082019050919050565b62001170816200132c565b82525050565b60006020820190506200118d600083018462001097565b92915050565b600060a082019050620011aa600083018862001097565b620011b9602083018762001165565b620011c8604083018662001165565b620011d7606083018562001097565b620011e6608083018462001097565b9695505050505050565b600060208201905081810360008301526200120c8184620010a8565b905092915050565b60006020820190506200122b600083018462001112565b92915050565b600060208201905081810360008301526200124c8162001123565b9050919050565b6000819050602082019050919050565b600081519050919050565b6000602082019050919050565b600082825260208201905092915050565b600082825260208201905092915050565b6000620012aa826200132c565b9150620012b7836200132c565b925082821015620012cd57620012cc62001384565b5b828203905092915050565b6000620012e5826200130c565b9050919050565b60008115159050919050565b60006200130582620012d8565b9050919050565b600073ffffffffffffffffffffffffffffffffffffffff82169050919050565b6000819050919050565b600062001343826200132c565b91507fffffffffffffffffffffffffffffffffffffffffffffffffffffffffffffffff82141562001379576200137862001384565b5b600182019050919050565b7f4e487b7100000000000000000000000000000000000000000000000000000000600052601160045260246000fd5b620013be81620012d8565b8114620013ca57600080fd5b50565b620013d881620012f8565b8114620013e457600080fd5b50565b620013f2816200132c565b8114620013fe57600080fd5b5056fe60806040523480156200001157600080fd5b5060405162002cbd38038062002cbd833981810160405281019062000037919062000162565b836008819055504260078190555082600981905550846000806101000a81548173ffffffffffffffffffffffffffffffffffffffff021916908373ffffffffffffffffffffffffffffffffffffffff16021790555081600260006101000a81548173ffffffffffffffffffffffffffffffffffffffff021916908373ffffffffffffffffffffffffffffffffffffffff1602179055506000600b60006101000a81548160ff02191690831515021790555080600160006101000a81548173ffffffffffffffffffffffffffffffffffffffff021916908373ffffffffffffffffffffffffffffffffffffffff160217905550505050505062000256565b600081519050620001458162000222565b92915050565b6000815190506200015c816200023c565b92915050565b600080600080600060a086880312156200017b57600080fd5b60006200018b8882890162000134565b95505060206200019e888289016200014b565b9450506040620001b1888289016200014b565b9350506060620001c48882890162000134565b9250506080620001d78882890162000134565b9150509295509295909350565b6000620001f182620001f8565b9050919050565b600073ffffffffffffffffffffffffffffffffffffffff82169050919050565b6000819050919050565b6200022d81620001e4565b81146200023957600080fd5b50565b620002478162000218565b81146200025357600080fd5b50565b612a5780620002666000396000f3fe608060405234801561001057600080fd5b506004361061016a576000357c0100000000000000000000000000000000000000000000000000000000900480637a40624b116100e0578063adcd632811610099578063adcd6328146103bb578063b6b55f25146103d9578063b9f890de146103f5578063e219590414610413578063fc6f946814610431578063fdda77bd1461044f5761016a565b80637a40624b146102d3578063880dc4e6146102f157806388685ab51461030f5780639172f7e41461033f578063a14e4d691461036f578063a7775ab51461039f5761016a565b80632b3f235c116101325780632b3f235c146102155780632e1a7d4d146102455780635217af4c1461026157806355a373d61461027d5780636b215c041461029b578063782aafac146102b75761016a565b80630d4552dd1461016f5780630f67c5c11461019f5780631f52692b146101bb578063204f83f9146101d957806328593984146101f7575b600080fd5b61018960048036038101906101849190612253565b61047f565b6040516101969190612721565b60405180910390f35b6101b960048036038101906101b4919061228f565b610705565b005b6101c3610a6f565b6040516101d0919061264e565b60405180910390f35b6101e1610a95565b6040516101ee91906127c3565b60405180910390f35b6101ff610a9b565b60405161020c91906127c3565b60405180910390f35b61022f600480360381019061022a919061222a565b610aa1565b60405161023c91906127c3565b60405180910390f35b61025f600480360381019061025a919061236c565b610aea565b005b61027b6004803603810190610276919061231a565b610d14565b005b610285610dc1565b6040516102929190612706565b60405180910390f35b6102b560048036038101906102b09190612253565b610de5565b005b6102d160048036038101906102cc91906122de565b611508565b005b6102db6118d4565b6040516102e891906127c3565b60405180910390f35b6102f96118da565b60405161030691906126eb565b60405180910390f35b6103296004803603810190610324919061222a565b6118ed565b60405161033691906127c3565b60405180910390f35b6103596004803603810190610354919061222a565b611905565b60405161036691906127c3565b60405180910390f35b6103896004803603810190610384919061222a565b61194e565b60405161039691906127c3565b60405180910390f35b6103b960048036038101906103b4919061222a565b611a89565b005b6103c3611b7f565b6040516103d091906127c3565b60405180910390f35b6103f360048036038101906103ee919061236c565b611b85565b005b6103fd611dec565b60405161040a9190612706565b60405180910390f35b61041b611e15565b60405161042891906126c9565b60405180910390f35b610439611ea3565b604051610446919061264e565b60405180910390f35b61046960048036038101906104649190612253565b611ec9565b60405161047691906127c3565b60405180910390f35b606060005b6003805490508110156106c5576000600382815481106104cd577f4e487b7100000000000000000000000000000000000000000000000000000000600052603260045260246000fd5b90600052602060002090600402016040518060800160405290816000820160009054906101000a900473ffffffffffffffffffffffffffffffffffffffff1673ffffffffffffffffffffffffffffffffffffffff1673ffffffffffffffffffffffffffffffffffffffff1681526020016001820160009054906101000a900473ffffffffffffffffffffffffffffffffffffffff1673ffffffffffffffffffffffffffffffffffffffff1673ffffffffffffffffffffffffffffffffffffffff168152602001600282015481526020016003820180546105ac906128f2565b80601f01602080910402602001604051908101604052809291908181526020018280546105d8906128f2565b80156106255780601f106105fa57610100808354040283529160200191610625565b820191906000526020600020905b81548152906001019060200180831161060857829003601f168201915b50505050508152505090508373ffffffffffffffffffffffffffffffffffffffff16816020015173ffffffffffffffffffffffffffffffffffffffff1614801561069e57508473ffffffffffffffffffffffffffffffffffffffff16816000015173ffffffffffffffffffffffffffffffffffffffff16145b156106b1578060600151925050506106ff565b5080806106bd90612924565b915050610484565b506040518060400160405280600981526020017f6e6f207265636f7264000000000000000000000000000000000000000000000081525090505b92915050565b3373ffffffffffffffffffffffffffffffffffffffff16600260009054906101000a900473ffffffffffffffffffffffffffffffffffffffff1673ffffffffffffffffffffffffffffffffffffffff1614610795576040517f08c379a000000000000000000000000000000000000000000000000000000000815260040161078c90612743565b60405180910390fd5b60085442116107d9576040517f08c379a00000000000000000000000000000000000000000000000000000000081526004016107d0906127a3565b60405180910390fd5b60005b600c80549050811015610a69576000600c8281548110610825577f4e487b7100000000000000000000000000000000000000000000000000000000600052603260045260246000fd5b9060005260206000200160009054906101000a900473ffffffffffffffffffffffffffffffffffffffff1690508373ffffffffffffffffffffffffffffffffffffffff168173ffffffffffffffffffffffffffffffffffffffff161415610a555760006040518060800160405280600c85815481106108cd577f4e487b7100000000000000000000000000000000000000000000000000000000600052603260045260246000fd5b9060005260206000200160009054906101000a900473ffffffffffffffffffffffffffffffffffffffff1673ffffffffffffffffffffffffffffffffffffffff1681526020018773ffffffffffffffffffffffffffffffffffffffff1681526020018581526020016040518060400160405280600781526020017f70656e64696e67000000000000000000000000000000000000000000000000008152508152509050600381908060018154018082558091505060019003906000526020600020906004020160009091909190915060008201518160000160006101000a81548173ffffffffffffffffffffffffffffffffffffffff021916908373ffffffffffffffffffffffffffffffffffffffff16021790555060208201518160010160006101000a81548173ffffffffffffffffffffffffffffffffffffffff021916908373ffffffffffffffffffffffffffffffffffffffff160217905550604082015181600201556060820151816003019080519060200190610a5092919061211e565b505050505b508080610a6190612924565b9150506107dc565b50505050565b600260009054906101000a900473ffffffffffffffffffffffffffffffffffffffff1681565b60085481565b60095481565b6000600560008373ffffffffffffffffffffffffffffffffffffffff1673ffffffffffffffffffffffffffffffffffffffff168152602001908152602001600020549050919050565b60011515600b60009054906101000a900460ff16151514610b40576040517f08c379a0000000000000000000000000000000000000000000000000000000008152600401610b3790612763565b60405180910390fd5b600033905060008054906101000a900473ffffffffffffffffffffffffffffffffffffffff1673ffffffffffffffffffffffffffffffffffffffff1663095ea7b382846040518363ffffffff167c0100000000000000000000000000000000000000000000000000000000028152600401610bbc9291906126a0565b602060405180830381600087803b158015610bd657600080fd5b505af1158015610bea573d6000803e3d6000fd5b505050506040513d601f19601f82011682018060405250810190610c0e9190612343565b5060008054906101000a900473ffffffffffffffffffffffffffffffffffffffff1673ffffffffffffffffffffffffffffffffffffffff1663a9059cbb82846040518363ffffffff167c0100000000000000000000000000000000000000000000000000000000028152600401610c869291906126a0565b602060405180830381600087803b158015610ca057600080fd5b505af1158015610cb4573d6000803e3d6000fd5b505050506040513d601f19601f82011682018060405250810190610cd89190612343565b507ff67611512e0a2d90c96fd3f08dca4971bc45fba9dc679eabe839a32abbe58a8e81604051610d08919061264e565b60405180910390a15050565b3373ffffffffffffffffffffffffffffffffffffffff16600160009054906101000a900473ffffffffffffffffffffffffffffffffffffffff1673ffffffffffffffffffffffffffffffffffffffff1614610da4576040517f08c379a0000000000000000000000000000000000000000000000000000000008152600401610d9b90612783565b60405180910390fd5b80600b60006101000a81548160ff02191690831515021790555050565b60008054906101000a900473ffffffffffffffffffffffffffffffffffffffff1681565b6008544211610e29576040517f08c379a0000000000000000000000000000000000000000000000000000000008152600401610e20906127a3565b60405180910390fd5b60003390506000805b600380549050811015611085578373ffffffffffffffffffffffffffffffffffffffff1660038281548110610e90577f4e487b7100000000000000000000000000000000000000000000000000000000600052603260045260246000fd5b906000526020600020906004020160010160009054906101000a900473ffffffffffffffffffffffffffffffffffffffff1673ffffffffffffffffffffffffffffffffffffffff16148015610f7b57508473ffffffffffffffffffffffffffffffffffffffff1660038281548110610f31577f4e487b7100000000000000000000000000000000000000000000000000000000600052603260045260246000fd5b906000526020600020906004020160000160009054906101000a900473ffffffffffffffffffffffffffffffffffffffff1673ffffffffffffffffffffffffffffffffffffffff16145b15611072576040518060400160405280600481526020017f70616964000000000000000000000000000000000000000000000000000000008152508051906020012060038281548110610ff7577f4e487b7100000000000000000000000000000000000000000000000000000000600052603260045260246000fd5b90600052602060002090600402016003016040516110159190612637565b604051809103902014611071576003818154811061105c577f4e487b7100000000000000000000000000000000000000000000000000000000600052603260045260246000fd5b90600052602060002090600402016002015491505b5b808061107d90612924565b915050610e32565b5060005b600c80549050811015611306576000600c82815481106110d2577f4e487b7100000000000000000000000000000000000000000000000000000000600052603260045260246000fd5b9060005260206000200160009054906101000a900473ffffffffffffffffffffffffffffffffffffffff1690506000600c838154811061113b577f4e487b7100000000000000000000000000000000000000000000000000000000600052603260045260246000fd5b9060005260206000200160009054906101000a900473ffffffffffffffffffffffffffffffffffffffff1690508073ffffffffffffffffffffffffffffffffffffffff168773ffffffffffffffffffffffffffffffffffffffff1614156112f1578173ffffffffffffffffffffffffffffffffffffffff1663095ea7b386866040518363ffffffff167c01000000000000000000000000000000000000000000000000000000000281526004016111f39291906126a0565b602060405180830381600087803b15801561120d57600080fd5b505af1158015611221573d6000803e3d6000fd5b505050506040513d601f19601f820116820180604052508101906112459190612343565b508173ffffffffffffffffffffffffffffffffffffffff1663a9059cbb86866040518363ffffffff167c010000000000000000000000000000000000000000000000000000000002815260040161129d9291906126a0565b602060405180830381600087803b1580156112b757600080fd5b505af11580156112cb573d6000803e3d6000fd5b505050506040513d601f19601f820116820180604052508101906112ef9190612343565b505b505080806112fe90612924565b915050611089565b5060005b600380549050811015611501578373ffffffffffffffffffffffffffffffffffffffff1660038281548110611368577f4e487b7100000000000000000000000000000000000000000000000000000000600052603260045260246000fd5b906000526020600020906004020160010160009054906101000a900473ffffffffffffffffffffffffffffffffffffffff1673ffffffffffffffffffffffffffffffffffffffff1614801561145357508473ffffffffffffffffffffffffffffffffffffffff1660038281548110611409577f4e487b7100000000000000000000000000000000000000000000000000000000600052603260045260246000fd5b906000526020600020906004020160000160009054906101000a900473ffffffffffffffffffffffffffffffffffffffff1673ffffffffffffffffffffffffffffffffffffffff16145b156114ee576040518060400160405280600481526020017f7061696400000000000000000000000000000000000000000000000000000000815250600382815481106114c8577f4e487b7100000000000000000000000000000000000000000000000000000000600052603260045260246000fd5b906000526020600020906004020160030190805190602001906114ec92919061211e565b505b80806114f990612924565b91505061130a565b5050505050565b3373ffffffffffffffffffffffffffffffffffffffff16600260009054906101000a900473ffffffffffffffffffffffffffffffffffffffff1673ffffffffffffffffffffffffffffffffffffffff1614611598576040517f08c379a000000000000000000000000000000000000000000000000000000000815260040161158f90612743565b60405180910390fd5b600033905060005b600c80549050811015611775576000600c82815481106115e9577f4e487b7100000000000000000000000000000000000000000000000000000000600052603260045260246000fd5b9060005260206000200160009054906101000a900473ffffffffffffffffffffffffffffffffffffffff1690506000600c8381548110611652577f4e487b7100000000000000000000000000000000000000000000000000000000600052603260045260246000fd5b9060005260206000200160009054906101000a900473ffffffffffffffffffffffffffffffffffffffff1690508073ffffffffffffffffffffffffffffffffffffffff168673ffffffffffffffffffffffffffffffffffffffff161415611760578173ffffffffffffffffffffffffffffffffffffffff166323b872dd8530886040518463ffffffff167c010000000000000000000000000000000000000000000000000000000002815260040161170c93929190612669565b602060405180830381600087803b15801561172657600080fd5b505af115801561173a573d6000803e3d6000fd5b505050506040513d601f19601f8201168201806040525081019061175e9190612343565b505b5050808061176d90612924565b9150506115a0565b5060008373ffffffffffffffffffffffffffffffffffffffff166370a08231306040518263ffffffff167c01000000000000000000000000000000000000000000000000000000000281526004016117cd919061264e565b60206040518083038186803b1580156117e557600080fd5b505afa1580156117f9573d6000803e3d6000fd5b505050506040513d601f19601f8201168201806040525081019061181d9190612395565b9050600060405180604001604052808673ffffffffffffffffffffffffffffffffffffffff168152602001838152509050600481908060018154018082558091505060019003906000526020600020906002020160009091909190915060008201518160000160006101000a81548173ffffffffffffffffffffffffffffffffffffffff021916908373ffffffffffffffffffffffffffffffffffffffff1602179055506020820151816001015550505050505050565b60075481565b600b60009054906101000a900460ff1681565b60066020528060005260406000206000915090505481565b6000600660008373ffffffffffffffffffffffffffffffffffffffff1673ffffffffffffffffffffffffffffffffffffffff168152602001908152602001600020549050919050565b6000806000905060005b600480549050811015611a7f576000600482815481106119a1577f4e487b7100000000000000000000000000000000000000000000000000000000600052603260045260246000fd5b90600052602060002090600202016040518060400160405290816000820160009054906101000a900473ffffffffffffffffffffffffffffffffffffffff1673ffffffffffffffffffffffffffffffffffffffff1673ffffffffffffffffffffffffffffffffffffffff16815260200160018201548152505090508473ffffffffffffffffffffffffffffffffffffffff16816000015173ffffffffffffffffffffffffffffffffffffffff16148015611a5e5750828160200151115b15611a6b57806020015192505b508080611a7790612924565b915050611958565b5080915050919050565b3373ffffffffffffffffffffffffffffffffffffffff16600260009054906101000a900473ffffffffffffffffffffffffffffffffffffffff1673ffffffffffffffffffffffffffffffffffffffff1614611b19576040517f08c379a0000000000000000000000000000000000000000000000000000000008152600401611b1090612743565b60405180910390fd5b600c819080600181540180825580915050600190039060005260206000200160009091909190916101000a81548173ffffffffffffffffffffffffffffffffffffffff021916908373ffffffffffffffffffffffffffffffffffffffff16021790555050565b600a5481565b3373ffffffffffffffffffffffffffffffffffffffff16600260009054906101000a900473ffffffffffffffffffffffffffffffffffffffff1673ffffffffffffffffffffffffffffffffffffffff1614611c15576040517f08c379a0000000000000000000000000000000000000000000000000000000008152600401611c0c90612743565b60405180910390fd5b600033905060008054906101000a900473ffffffffffffffffffffffffffffffffffffffff1673ffffffffffffffffffffffffffffffffffffffff166323b872dd8230856040518463ffffffff167c0100000000000000000000000000000000000000000000000000000000028152600401611c9393929190612669565b602060405180830381600087803b158015611cad57600080fd5b505af1158015611cc1573d6000803e3d6000fd5b505050506040513d601f19601f82011682018060405250810190611ce59190612343565b5060008054906101000a900473ffffffffffffffffffffffffffffffffffffffff1673ffffffffffffffffffffffffffffffffffffffff166370a08231306040518263ffffffff167c0100000000000000000000000000000000000000000000000000000000028152600401611d5b919061264e565b60206040518083038186803b158015611d7357600080fd5b505afa158015611d87573d6000803e3d6000fd5b505050506040513d601f19601f82011682018060405250810190611dab9190612395565b600a819055507f8ce0bd46ec50cf39f0d0ea8686a686eb226af5796dcda4231b26fb84b5ef123481604051611de0919061264e565b60405180910390a15050565b60008060009054906101000a900473ffffffffffffffffffffffffffffffffffffffff16905090565b6060600c805480602002602001604051908101604052809291908181526020018280548015611e9957602002820191906000526020600020905b8160009054906101000a900473ffffffffffffffffffffffffffffffffffffffff1673ffffffffffffffffffffffffffffffffffffffff1681526020019060010190808311611e4f575b5050505050905090565b600160009054906101000a900473ffffffffffffffffffffffffffffffffffffffff1681565b600080600090505b60038054905081101561211257600060038281548110611f1a577f4e487b7100000000000000000000000000000000000000000000000000000000600052603260045260246000fd5b90600052602060002090600402016040518060800160405290816000820160009054906101000a900473ffffffffffffffffffffffffffffffffffffffff1673ffffffffffffffffffffffffffffffffffffffff1673ffffffffffffffffffffffffffffffffffffffff1681526020016001820160009054906101000a900473ffffffffffffffffffffffffffffffffffffffff1673ffffffffffffffffffffffffffffffffffffffff1673ffffffffffffffffffffffffffffffffffffffff16815260200160028201548152602001600382018054611ff9906128f2565b80601f0160208091040260200160405190810160405280929190818152602001828054612025906128f2565b80156120725780601f1061204757610100808354040283529160200191612072565b820191906000526020600020905b81548152906001019060200180831161205557829003601f168201915b50505050508152505090508373ffffffffffffffffffffffffffffffffffffffff16816020015173ffffffffffffffffffffffffffffffffffffffff161480156120eb57508473ffffffffffffffffffffffffffffffffffffffff16816000015173ffffffffffffffffffffffffffffffffffffffff16145b156120fe57806040015192505050612118565b50808061210a90612924565b915050611ed1565b50600090505b92915050565b82805461212a906128f2565b90600052602060002090601f01602090048101928261214c5760008555612193565b82601f1061216557805160ff1916838001178555612193565b82800160010185558215612193579182015b82811115612192578251825591602001919060010190612177565b5b5090506121a091906121a4565b5090565b5b808211156121bd5760008160009055506001016121a5565b5090565b6000813590506121d0816129dc565b92915050565b6000813590506121e5816129f3565b92915050565b6000815190506121fa816129f3565b92915050565b60008135905061220f81612a0a565b92915050565b60008151905061222481612a0a565b92915050565b60006020828403121561223c57600080fd5b600061224a848285016121c1565b91505092915050565b6000806040838503121561226657600080fd5b6000612274858286016121c1565b9250506020612285858286016121c1565b9150509250929050565b6000806000606084860312156122a457600080fd5b60006122b2868287016121c1565b93505060206122c3868287016121c1565b92505060406122d486828701612200565b9150509250925092565b600080604083850312156122f157600080fd5b60006122ff858286016121c1565b925050602061231085828601612200565b9150509250929050565b60006020828403121561232c57600080fd5b600061233a848285016121d6565b91505092915050565b60006020828403121561235557600080fd5b6000612363848285016121eb565b91505092915050565b60006020828403121561237e57600080fd5b600061238c84828501612200565b91505092915050565b6000602082840312156123a757600080fd5b60006123b584828501612215565b91505092915050565b60006123ca83836123d6565b60208301905092915050565b6123df81612853565b82525050565b6123ee81612853565b82525050565b60006123ff82612803565b6124098185612826565b9350612414836127de565b8060005b8381101561244557815161242c88826123be565b975061243783612819565b925050600181019050612418565b5085935050505092915050565b61245b81612865565b82525050565b6000815461246e816128f2565b6124788186612837565b9450600182166000811461249357600181146124a4576124d7565b60ff198316865281860193506124d7565b6124ad856127ee565b60005b838110156124cf578154818901526001820191506020810190506124b0565b838801955050505b50505092915050565b6124e98161289b565b82525050565b60006124fa8261280e565b6125048185612842565b93506125148185602086016128bf565b61251d816129cb565b840191505092915050565b6000612535600c83612842565b91507f4e6f7420616e204f776e657200000000000000000000000000000000000000006000830152602082019050919050565b6000612575601483612842565b91507f5769746864726177206e6f7420656e61626c65640000000000000000000000006000830152602082019050919050565b60006125b5600c83612842565b91507f4e6f7420616e2041646d696e00000000000000000000000000000000000000006000830152602082019050919050565b60006125f5600f83612842565b91507f4e6f74206174206d6174757269747900000000000000000000000000000000006000830152602082019050919050565b61263181612891565b82525050565b60006126438284612461565b915081905092915050565b600060208201905061266360008301846123e5565b92915050565b600060608201905061267e60008301866123e5565b61268b60208301856123e5565b6126986040830184612628565b949350505050565b60006040820190506126b560008301856123e5565b6126c26020830184612628565b9392505050565b600060208201905081810360008301526126e381846123f4565b905092915050565b60006020820190506127006000830184612452565b92915050565b600060208201905061271b60008301846124e0565b92915050565b6000602082019050818103600083015261273b81846124ef565b905092915050565b6000602082019050818103600083015261275c81612528565b9050919050565b6000602082019050818103600083015261277c81612568565b9050919050565b6000602082019050818103600083015261279c816125a8565b9050919050565b600060208201905081810360008301526127bc816125e8565b9050919050565b60006020820190506127d86000830184612628565b92915050565b6000819050602082019050919050565b60008190508160005260206000209050919050565b600081519050919050565b600081519050919050565b6000602082019050919050565b600082825260208201905092915050565b600081905092915050565b600082825260208201905092915050565b600061285e82612871565b9050919050565b60008115159050919050565b600073ffffffffffffffffffffffffffffffffffffffff82169050919050565b6000819050919050565b60006128a6826128ad565b9050919050565b60006128b882612871565b9050919050565b60005b838110156128dd5780820151818401526020810190506128c2565b838111156128ec576000848401525b50505050565b6000600282049050600182168061290a57607f821691505b6020821081141561291e5761291d61299c565b5b50919050565b600061292f82612891565b91507fffffffffffffffffffffffffffffffffffffffffffffffffffffffffffffffff8214156129625761296161296d565b5b600182019050919050565b7f4e487b7100000000000000000000000000000000000000000000000000000000600052601160045260246000fd5b7f4e487b7100000000000000000000000000000000000000000000000000000000600052602260045260246000fd5b6000601f19601f8301169050919050565b6129e581612853565b81146129f057600080fd5b50565b6129fc81612865565b8114612a0757600080fd5b50565b612a1381612891565b8114612a1e57600080fd5b5056fea2646970667358221220489ed2724eee8e002cb88f68e0df8f4b19706a38d3fb6f6c6d7f9a04ad1bca6f64736f6c63430008000033a264697066735822122058a98098b7ad6d9cec6512aa176d3f9d7d126344c2a58ab71c537c9c877904ba64736f6c63430008000033",
  "immutableReferences": {},
  "source": "// SPDX-License-Identifier: MIT\npragma solidity ^0.8.0;\n\nimport \"./TokenVault.sol\";\nimport \"@openzeppelin/contracts/token/ERC20/ERC20.sol\";\n\n/**\n * @title TokenVaultManager\n * @dev Token vault service.\n */\ncontract TokenVaultManager {\n  mapping(address => address[]) public vaultLookup;\n  address[] allVaults;\n  address admin;\n\n  /**\n   * @dev Constructor sets token that can be received\n   */\n  constructor() {\n    admin = msg.sender;\n  }\n\n  function getVaultsByUser(address user)\n    public\n    view\n    returns (address[] memory)\n  {\n    return vaultLookup[user];\n  }\n\n  function getAllVaults() public view returns (address[] memory) {\n    return allVaults;\n  }\n\n  function vaultExists(address erc20Address, address userAddress)\n    public\n    view\n    returns (bool)\n  {\n    for (uint256 i = 0; i < vaultLookup[userAddress].length; i++) {\n      address vaultAddress = vaultLookup[userAddress][i];\n      address tokenAddress = address(\n        TokenVault(vaultAddress).getERC20Address()\n      );\n      if (tokenAddress == erc20Address) {\n        return true;\n      }\n    }\n    return false;\n  }\n\n  function createVault(\n    address newToken,\n    uint256 maturity,\n    uint256 yield,\n    address contractCreator\n  ) public {\n    require(vaultExists(newToken, msg.sender) == false);\n    contractCreator = msg.sender;\n    address tVault = address(\n      new TokenVault(newToken, maturity, yield, msg.sender, admin)\n    );\n    vaultLookup[msg.sender].push(tVault);\n    allVaults.push(tVault);\n  }\n\n  function destroyVault(address erc20Address) public {\n    address userAddress = msg.sender;\n    require(msg.sender == admin, \"Not an Admin\");\n\n    require(vaultExists(erc20Address, msg.sender) == true);\n    uint256 targetIndex;\n    bool hasVault = false;\n    for (uint256 i = 0; i < vaultLookup[userAddress].length; i++) {\n      address vaultAddress = vaultLookup[userAddress][i];\n      address tokenAddress = address(\n        TokenVault(vaultAddress).getERC20Address()\n      );\n      if (tokenAddress == erc20Address) {\n        targetIndex = i;\n        hasVault = true;\n      }\n    }\n    if (hasVault == true) {\n      vaultLookup[userAddress][targetIndex] = vaultLookup[userAddress][\n        vaultLookup[userAddress].length - 1\n      ];\n      vaultLookup[userAddress].pop();\n    }\n\n    uint256 allVaultTargetIndex;\n    hasVault = false;\n    for (uint256 i = 0; i < allVaults.length; i++) {\n      address vaultAddress = allVaults[i];\n\n      address tokenAddress = address(\n        TokenVault(vaultAddress).getERC20Address()\n      );\n      if (tokenAddress == erc20Address) {\n        allVaultTargetIndex = i;\n        hasVault = true;\n      }\n    }\n    if (hasVault == true) {\n      allVaults[targetIndex] = allVaults[allVaults.length - 1];\n      allVaults.pop();\n    }\n  }\n}\n",
  "sourcePath": "/Users/charlespacker/alloyx_smart_contracts/contracts/TokenVaultManager.sol",
  "compiler": {
    "name": "solc",
    "version": "0.8.0+commit.c7dfd78e.Emscripten.clang"
  },
  "schemaVersion": "3.4.3",
  "updatedAt": "2021-09-04T04:22:07.777Z",
  "networkType": "ethereum",
  "devdoc": {
    "details": "Token vault service.",
    "kind": "dev",
    "methods": {
      "constructor": {
        "details": "Constructor sets token that can be received"
      }
    },
    "title": "TokenVaultManager",
    "version": 1
  },
  "userdoc": {
    "kind": "user",
    "methods": {},
    "version": 1
  }
}